:020000040800F2
:10000000A00A0024E5030008475B000829580008FF
:10001000455B000883250008096E00080000000009
:10002000000000000000000000000000B95E0008B1
:100030008525000800000000495B0008BB5E000841
:10004000FF030008FF030008FF030008FF03000888
:10005000FF030008FF030008FF030008FF03000878
:10006000FF030008FF030008FF030008FF03000868
:10007000FF030008FF030008FF030008FF03000858
:10008000FF030008FF030008FF030008FF03000848
:10009000FF030008FF030008FF030008FF03000838
:1000A000FF030008FF030008FF030008FF03000828
:1000B000FF03000839600008FF030008FF03000881
:1000C000FF030008FF030008FF030008FF03000808
:1000D000FF030008016E0008FF030008FF0300088B
:1000E000FF030008FF03000800000000FF030008F2
:1000F000FF030008FF030008FF030008FF030008D8
:10010000FF030008FF030008FF030008FF030008C7
:10011000FF030008FF030008FF030008FF030008B7
:10012000FF030008FF030008FF030008FF030008A7
:10013000FF030008FF030008FF030008FF03000897
:1001400000000000000000000000000000000000AF
:10015000FF030008FF030008FF030008FF03000877
:10016000FF030008FF030008FF030008FF03000867
:10017000FF030008FF030008FF030008FF03000857
:10018000FF030008FF030008FF030008FF03000847
:10019000FF030008FF030008FF030008FF03000837
:1001A000FF030008FF030008FF030008FF03000827
:1001B000FF030008FF030008FF030008FF03000817
:1001C000FF030008FF030008FF030008FF03000807
:1001D000FF030008FF030008FF030008FF030008F7
:1001E000FF030008FF030008FF030008FF030008E7
:1001F000FF030008FF030008FF030008FF030008D7
:10020000FF030008FF030008FF030008FF030008C6
:10021000FF030008FF030008FF030008FF030008B6
:10022000FF030008FF030008FF03000800000000B0
:10023000FF030008FF03000800000000FF030008A0
:10024000FF030008FF030008FF030008FF03000886
:10025000FF030008FF030008FF030008FF03000876
:10026000FF030008FF030008FF030008FF03000866
:10027000FF030008FF030008FF0300080000000060
:10028000FF030008FF030008FF0300080000000050
:1002900000000000FF03000800F002F800F092F8F0
:1002A0000AA090E8000C82448344AAF10107DA45D1
:1002B00001D100F087F8AFF2090EBAE80F0013F091
:1002C000010F18BFFB1A43F001031847487E0000D6
:1002D000687E0000103A24BF78C878C1FAD8520767
:1002E00024BF30C830C144BF04680C6070470000B0
:1002F0000023002400250026103A28BF78C1FBD82F
:10030000520728BF30C148BF0B6070476E2900F00C
:10031000A782702900F0F183662907F0DD85652941
:1003200007F0DA85672907F0D785612907F0D685B8
:1003300003681B0A28BF41F08001692900F054823C
:10034000642900F05182752900F04E826F2900F077
:100350007F83782900F0BD83E92900F01983E4291F
:1003600000F01683F52900F01383EF2900F07C8359
:10037000F82900F0BC830368DB0928BF41F0800145
:10038000632901F0C583732901F0CA83E32901F0D1
:10039000D583F32901F0DA83002070471FB507F0F9
:1003A0008BFD00F05DFF04000020002107F066FDDA
:1003B000401C60600020002107F04AFDE0601FBD86
:1003C00010B510BD01F01AFE1146FFF7E7FF06F069
:1003D000C3FD02F0B7F803B4FFF7F2FF03BC02F06D
:1003E000C9F800000948804709480047FEE7FEE7D2
:1003F000FEE7FEE7FEE7FEE7FEE7FEE7FEE7FEE7D5
:1004000004480549054A064B704700007D5F000817
:1004100099020008A0040024A00A0024A0060024D9
:10042000A006002453EA020C00F069802DE9F04B8D
:100430004FF00006002B1FBFB3FA83F503FA05F453
:1004400024FA05F65E4012BF1643B2FA82F502FAAC
:1004500005F4C5F120051EBF22FA05FC44EA0C0490
:10046000203556EA044C4FEA144418BF641C4FF080
:1004700000084FF00009904271EB030C39D30029BA
:1004800019BFB1FA81F701FA07F6B0FA80F700FA5E
:1004900007F6C7F120071EBF20FA07FC46EA0C0644
:1004A0002037B6FBF4FCA7EB0507103F07F01F0B46
:1004B000CBF120062CFA06F60CFA0BFB44BFB34630
:1004C0000026202FA4BF5E464FF0000B5BEA060C0F
:1004D00008BF4FF0010B19EB0B0948EB0608ABFB0B
:1004E000027C06FB02CC0BFB03CCC01B71EB0C01A6
:1004F000C1E70B46024641464846BDE8F08B13B5BE
:10050000084318BF4FF0FF300146AFF30080BDE84D
:100510001C4070477CB51D4616460C00009001D06B
:100520002044401E074B7B442A46694601903046D2
:1005300000F0AFF905461CB10020694600F0BCF997
:1005400028467CBD990300000FB400B58DB010A9FA
:10055000099000910B904FF0FF300A9000200C9012
:10056000064878440690064878446A4607900F99F2
:1005700009A800F013FE0DB05DF814FB570C000045
:100580006F0C0000032A40F2308010F0030C00F0E2
:10059000158011F8013BBCF1020F624498BF11F8BD
:1005A00001CB00F8013B38BF11F8013BA2F1040276
:1005B00098BF00F801CB38BF00F8013B11F00303EE
:1005C00000F01C86083AC0F0088051F8043B083A55
:1005D00051F804CBA0E80810F5E7121D5CBF51F8F4
:1005E000043B40F8043BAFF30080D20724BF11F86E
:1005F000013B11F801CB48BF11F8012B24BF00F8D3
:10060000013B00F801CB48BF00F8012B70474FF0C9
:1006100000020429C0F0128010F0030C00F01B80CF
:10062000CCF1040CBCF1020F18BF00F8012BA8BFDD
:1006300020F8022BA1EB0C0100F00DB85FEAC17CA1
:1006400024BF00F8012B00F8012B48BF00F8012B54
:1006500070474FF0000200B5134694469646203985
:1006600022BFA0E80C50A0E80C50B1F12001BFF46B
:10067000F7AF090728BFA0E80C5048BF0CC05DF8D1
:1006800004EB890028BF40F8042B08BF704748BF1F
:1006900020F8022B11F0804F18BF00F8012B704793
:1006A00030B44FF0013C50F8042BCCFA52F451F81E
:1006B000043BD51A20D1FCB950F8042BCCFA52F4E3
:1006C00051F8043BD51A17D1B4B950F8042BCCFA21
:1006D00052F451F8043BD51A0ED16CB950F8042BE2
:1006E000CCFA52F451F8043BD51A05D1002CDAD0DB
:1006F00030BC4FF00000704729BAB1FA81F111F017
:100700001801D1F120008440F2D1CA40CB4012F050
:10071000FF0213F0FF0330BCD01A704770477047D8
:10072000704770B5044685690068C10601D530265A
:1007300000E02026C00707D070BDD4E90121304673
:100740009047206A401C20626D1EF6D570BD70B5C2
:10075000044685690078C00707D170BDD4E901213E
:1007600020209047206A401C20626D1EF6D570BD87
:1007700009684A0501D540B27047C905FCD500B2E9
:10078000704709684A0501D5C0B27047C905FCD554
:1007900080B2704770B50C460546012A05D028780E
:1007A000800600D5EA69002302E0012305E05B1C16
:1007B000934202D2E05C0028F9D1A869E618C01A79
:1007C000A861286A184428622846FFF7AAFF04E0B7
:1007D000D5E9012114F8010B9047B442F8D328461B
:1007E000FFF7B5FF70BD00002DE9F041064600247B
:1007F00010687529314616A510D0FFF7B9FF0028FB
:1008000002DA404213A507E031688A0701D512A534
:1008100002E0490704D511A5012401E0FFF7B1FF6B
:1008200000210A2206F1240709E0B0FBF2FCB0FB2C
:10083000F2F302FB1C00303078541846491C0028A3
:10084000F3D123462A463046BDE8F04100F071BDA1
:10085000000000002D0000002B0000002000000020
:1008600011680268006A530501D508700AE0D305D3
:1008700001D5088006E0130603D5C217C1E90002BE
:1008800000E008600120704701694A1C0261087895
:10089000704700B58FB0CDE90131002105910549C0
:1008A0007944CDE903101146684600F031F90FB0E4
:1008B00000BD0000E5FFFFFF0A6802F8010B0A60B7
:1008C0007047D1E900239A4202D2531C0B6010708A
:1008D000704700002DE9FF5F15468A460446DFF8A1
:1008E000AC80F8440027D8E900103E46CDE900105E
:1008F00010E03AF816106A4602A801F057FB411CB6
:1009000007D02178890603D5E269391891420DD8BC
:100910000744761C2078800602D5E069B84205DDE0
:10092000AE42E6DB3AF816000028E2D1A069C01B0F
:10093000A0612046FFF7F5FED8E90010CDE90010D0
:10094000002017E03AF818106A4602A801F02EFBC2
:10095000B0F1FF3F81460BD000250DF1080B05E0FB
:10096000D4E901211BF8050090476D1C4D45F7D3D4
:1009700008F10100B0428046E4DB206A384420627E
:100980002046FFF7E4FEBDE8FF9F0000F67600007A
:100990002DE9F0418046D21D22F007020025D2E960
:1009A0000002F52915A614D0011E72F1000106DA25
:1009B0000023D0EB030063EB020211A608E0D8F895
:1009C00000108B0701D50FA602E0490701D50EA63E
:1009D00001251146002408F1240704E000F05BFC27
:1009E00030323A55641C50EA0102F7D12B463246A8
:1009F00021464046BDE8F04100F09BBC00000000ED
:100A00002D0000002B0000002000000030B4002169
:100A100000F1240408E002F00705D208303542EA6C
:100A20004372DB086554491C52EA0305F3D104689C
:100A3000002310A2250708D504F020040C4304D09D
:100A4000C46901230CA2641EC46130BC00F071BCF7
:100A500010B5044621461068FFF793FE0246204673
:100A6000BDE810400023D1E7D21D22F00701D1E9F3
:100A70000023CBE70000000030000000F0B40D467A
:100A80000188090502D5214C7C4402E01F4C7C44BE
:100A90000E34002100F1240608E002F00F071209CD
:100AA000E75D42EA03721B097754491C52EA0307C7
:100AB000F3D102780023120704D5702D06D009B1B6
:100AC000022311342246F0BC00F033BC0123103461
:100AD000F8E770B504460D4621461068FFF751FE51
:100AE000024629462046BDE870400023C6E7D21DD5
:100AF00022F00703D3E90023C0E70368126843F03C
:100B0000200303600823C3610023B7E75875000082
:100B10002DE9F05F894604464FF0000ADFF874B112
:100B2000FB44C0F820A02046E1688847002874D024
:100B3000252806D0D4E901219047206A401C206274
:100B4000F1E700265F462046E168884720280546F1
:100B500007DB312D05D2781910F8200C08B10643B7
:100B6000F1E7B00701D526F00406C4F81CA0002761
:100B7000C4F818A02A2D09D0284607F05DF838B32C
:100B800004EB8708303DC8F8185019E059F8041BE9
:100B9000204604EB87029161E1688847012F0546F2
:100BA00018D1E069002820DA26F020061DE0D8F8E8
:100BB000180000EB800005EB40003038C8F8180042
:100BC0002046E1688847054607F036F80028EED150
:100BD000012F0AD02E2D08D12046E16888477F1CBE
:100BE0000546022F46F02006C4DBA069002803DA80
:100BF000404246F00106A061F00701D026F0100641
:100C00006C2D0BD0682D09D04C2D39D06A2D35D0E4
:100C1000742D35D07A2D33D016E038E0E1682F46B8
:100C200020468847B842054609D16C2F26D04FF49C
:100C30008060E168064320468847054604E06C2F43
:100C40001AD04FF4807006430DB3A5F14100192866
:100C500002D8203546F400664A46294620462660DA
:100C60004E46FFF753FB80B101280BD0F61D26F04E
:100C7000070000F1080956E74020E4E78020D8E7A4
:100C80000020D6E706F104094DE7284652E7206A1E
:100C9000BDE8F09FE87400002DE9FF4F06468BB0D9
:100CA0000878FF2806D0491C2D2805D000244FF0D5
:100CB000000908E000200CE00124F8E709EB8903B3
:100CC000491C00EB43090878FF28F7D114B1C9F19A
:100CD00000008146107800252C46AA4629462D287A
:100CE00001D02B2804D1521C2D2813D0002082467D
:100CF0008B461078FF280FD04FF0000C0A21521CB1
:100D0000A5FB017804FB018105FB0C11C5194BEB18
:100D10000104EEE70120EAE7002108464FF0000059
:100D2000BAF1000F02D000EB80004008C0F38157F9
:100D3000012F01DD4FF0FF370E9955EA040009EB52
:100D400001080BD04FF0020918F5FA7F16DA4FEAC6
:100D5000CA70002F706008DD012007E04FEACA70FA
:100D6000C6E900B00FB0BDE8F08F0020306000F0A1
:100D70007BFAC0F800901821084616E0B8F5FA7F13
:100D800018DD002F02DAF748784401E0F64878448D
:100D9000D0E90010C6E9001040EACA70706000F0A7
:100DA00063FAC0F80090142108460FB0BDE8F04F78
:100DB00007F08FB8002108464FF00000B8F100019D
:100DC000099002DAC7F1000200E03A4601DAC8F100
:100DD000000106A801F078F806AB93E8070003AB22
:100DE00083E8070044F23E005BEA040100905846A5
:100DF00004D144F21E012C465D460091210C0904E9
:100E0000014306D10099240444EA15442D04103905
:100E1000009104F07F41014306D10099240244EA85
:100E200015642D020839009104F07041014306D188
:100E30000099240144EA15742D01091F009104F062
:100E40004041014306D10099A40044EA9574AD00E5
:100E5000891E009104F00041084304D100986D19E7
:100E60006441401E00904FF001033A466846B8F1D5
:100E7000000FCDE9014503A902DD06F0FCFB01E00E
:100E800006F0CFFBBAF1000F04460D4601D084F006
:100E90000044002108464FF00000099940F2FF7716
:100EA000484010F00C0F07D124F00040284303D035
:100EB000C4F30A50B84212D100F0D6F9C0F800903D
:100EC000C4F30A50B8420AD1A8487844D0E90010C7
:100ED000C6E9001004F000410843706042E7C6E92B
:100EE00000543FE72DE9FF4F1F464FF0000A4FF037
:100EF000FF38454691B0D7E90146CDF83CA000F057
:100F0000AFF9C0680168405C1090B96912986D1C17
:100F10008847396A814688470028F6D1B9F1FF3FF2
:100F20000AD0002E24F4D06411DDB9F12B0F08D0C3
:100F3000B9F12D0F0BD102E0404615B013E744F490
:100F40008064B96912986D1C8847761E81466005D9
:100F500004A901D52D2000E02B20002E01F1010B6A
:100F60000DF130088DF810003FDDB9F1690F08D0A0
:100F7000B9F1490F05D0B9F16E0F02D0B9F14E0F9A
:100F80001CD13B4601A8009580E85002DDE9121211
:100F90006FF0020007F008F8C11CCED10EE0B9696D
:100FA00012986D1C884781461398761E44F400748D
:100FB00005600F98401C002E0F9016DDB9F1300F20
:100FC000EDD0B9F1780F02D0B9F1580F0DD10F98CB
:100FD00001280AD13B46CDE90054DDE91212001F79
:100FE000029606F0DFFFC11CA7D1109989453ED1BA
:100FF00044F0800406E01399681CAAF1010A44F445
:1010000000740860B9696D1C1298761E88473028F4
:101010008146F0D02BE01099894505D1200603D4F4
:10102000761E44F0800418E0484606F005FE08B33A
:10103000761E0DF123029345A9F1300044F40074AB
:1010400006D20BF8010B200607D5AAF1010003E038
:10105000200602D40AF101008246A00502D51399A8
:10106000681C0860B96912986D1C88478146002E7B
:10107000D1DC53E0002E51DDB9F1650F02D0B9F19A
:10108000450F4BD1A00549D5B9696D1C1298761E44
:1010900024F440748847002E81460CDD2B2804D0B0
:1010A000B9F12D0F07D144F48074B96912986D1C01
:1010B0008847761E8146E00501D52D2100E02B21D1
:1010C00008F8011BCDF8008021E0761E0DF13901F2
:1010D000884544F400740CD2A9F1300010F0FF00F0
:1010E00088F8000002D10099884509D908F1010863
:1010F00006E0E00501D51E4801E042F20F7082468D
:10110000B96912986D1C8847814613980560002EB6
:1011100004DD484606F090FD0028D6D1F969129802
:101120008847FF2053468BF8000088F80000002015
:101130000A900B9004AA0CA90AA8FFF7ADFDA00520
:1011400002D46FF00100F8E614F0240F12D0E0078B
:101150001CD13868DDE90A12031D3B600068C0E954
:10116000001213E0B0730000A2730000667200006A
:10117000F1D8FFFF0AA9684606F002FDE00705D195
:101180003868009A011D3960006802602846D4E67C
:10119000026811441378016018467047D160054910
:1011A0007944516104497944116200211161114669
:1011B00000F0D0BCEDFFFFFF77010000426842B1B4
:1011C000016811F8013B23B1521EC0E90012184614
:1011D00070470121C160881E704742685AB1C368D8
:1011E000016843B983688B4205D0491E521CC0E98F
:1011F0000012002070474FF0FF30704710B5203AC2
:10120000C0F00B80B1E81850A0E81850B1E81850B1
:10121000A0E81850203ABFF4F5AF5FEA027C24BF83
:10122000B1E81850A0E8185044BF18C918C0BDE86C
:1012300010405FEA827C24BF51F8043B40F8043B35
:1012400008BF7047D20728BF31F8023B48BF11F8EA
:10125000012B28BF20F8023B48BF00F8012B704744
:1012600000487047C000002400487047A0000024D8
:10127000B2F120030AD5C2F1200301FA02F120FAEB
:1012800003F341EA030100FA02F0704700FA03F1A8
:101290004FF00000704730B5B0F10A0271F1000361
:1012A0004FEA900E4EEA817EB0EB0E0061EB9101A9
:1012B0004FEA101E4EEA017E10EB0E0041EB1111B9
:1012C0004FEA102E4EEA016E10EB0E0041EB112199
:1012D0004FEA104E4EEA014E10EB0E0041EB114169
:1012E000401841F100014FEAD00040EA41704FEA56
:1012F000D1014FEA810444EA907410EB800544EB7D
:1013000001046D1944EB0404521BA3414FF0000388
:1013100048BF0A3200D530BD401C41F1000130BD4C
:1013200010B5044600F090FE0068005D00F001007A
:1013300010BD2DE9F0470D4699469246044600F14E
:1013400024080168880604D5E06921F010012160B5
:1013500000E00120A84201DD471B00E00027A16951
:101360007A1902EB0900081AA0612078C00602D49D
:101370002046FFF7D6F9002608E0D4E901211AF843
:1013800006009047206A401C761C20624E45F4DB24
:101390002078C0060AD52046FFF7C3F906E0D4E955
:1013A000012130209047206A401C2062381EA7F19E
:1013B0000107F4DC07E0D4E9012118F805009047A3
:1013C000206A401C2062281EA5F10105F3DC20469E
:1013D000FFF7BDF92078000602D50220BDE8F087AE
:1013E0000120FBE72DE9FF4F0C461E464FF0FF376B
:1013F0008BB0D2E90001DDF860800A908A46C1F323
:101400000A5505B93D46002108464FF00000BAF1E3
:10141000000F00F4400005DA00EB80004FF44001BB
:1014200001EA50004FEA9059B9F1010F00DDB946C9
:101430000A9850EA4A000ED044F61050A5F2FF3543
:1014400045432F14B8F1000F1ED07542291E1EDD32
:10145000C9F100021CE0B8F1010F4FF0000001D00B
:10146000302103E0F24305E02154401CB042FBDB95
:1014700030460022002121540B99C1F80880C1E9AF
:1014800000200FB0BDE8F08FBD1B6D1CDEE74A46A3
:1014900000DA694206A800F017FD06AB93E80700E2
:1014A00003AB83E8070050460A9905F0E6FD8DE896
:1014B0000700A0F500501F3800900398002D0ADDAA
:1014C00042F21F014A460844002303A903906846DC
:1014D00006F092F809E0A0F500504A461F380023B4
:1014E00003A90390684606F0B1F88DE807000004F0
:1014F000000C03D04FF0FF30410800E01046B8F177
:10150000000F03D00022009215461EE0751E05D480
:10151000FFF7C1FE303262556D1EF9D5B346012288
:10152000084302D000227F1C04E02078302801D13B
:1015300000227F1E002A099784D01DE0112D07DAB2
:10154000FFF7A9FE303262556D1C50EA0102F5D159
:10155000084302D00098C8B10EE00021681E05E0E3
:10156000235C625C63542254401E491C8142F7DBB9
:10157000AB46A81B401E0990002004F80B000B98F6
:10158000099AC0F80880C0E9002B7AE711264FF0CD
:10159000000857E72DE9F04F88460446D21D22F097
:1015A000070191B0D1E90001CDE90A0106F056FA30
:1015B00002460B98C00F01D02D2007E0206881075C
:1015C00001D52B2002E0202101EAC000032A099066
:1015D00001D0072A05DB03464146204600F048FDBE
:1015E0000BE12078800601D5E06900E00620B8F123
:1015F000650F814606D0B8F1660F18D0B8F1670FB5
:1016000070D131E00020B9F1110F009001DB1123FE
:1016100001E009F101030AAA01A90CA8FFF7E2FE03
:10162000DDE90C70002609F10105834647E0012041
:101630004B4600904FF000470AAA01A90CA8FFF7FB
:10164000D1FEDDE90DB00C995D46002610B909F117
:1016500001000D18B9EB050003D4C0F1FF3609F104
:101660000105A5EB09002BE0B9F1010F01DA4FF0FC
:1016700001090020B9F1110F0090484601DD112346
:1016800000E003460AAA01A90CA8FFF7ABFEDDE9BA
:101690000C704D4600268346207800070AD4AB45DF
:1016A00000DA5D4601A8012D04DD411911F8011C85
:1016B000302907D04F4502DA17F1040F04DA012070
:1016C00082460FE06D1EEEE7002F02DCED1B3E446C
:1016D00003E0781CA84200DD7D1CB81B00F1010A64
:1016E0004FF000472078000703D4AA4501DB4FF0F4
:1016F000FF3A0021B7F1004F0DF143088DF8431078
:1017000024D002202B23002F01DA7F422D230A212F
:10171000021EA0F1010000DC5FB197FBF1FC97FB1A
:10172000F1F201FB1C7C17460CF1300C08F801CDDE
:10173000EEE7A8F1010003702188090501D54521D4
:1017400000E06521A0F1010800F8011C09980FA92B
:10175000A1EB0807FF1D00B10120411901EBEA7060
:10176000A1693844081A401EA0612078C00602D43E
:101770002046FEF7D6FF099828B1D4E90121904709
:10178000206A401C20622078C00622D52046FEF741
:10179000C8FF1EE0002E04DBB34502DD01A8805D1A
:1017A00000E03020D4E901219047206A401C2062EB
:1017B000761CAAF101005FEA000A0AD1FFF750FD8A
:1017C000C0680168405CD4E901219047206A401C50
:1017D0002062281EA5F10105DCDC07E0D4E9012127
:1017E00018F8010B9047206A401C2062381EA7F1B0
:1017F0000107F3DC2046FEF7AAFF032011B041E603
:101800002DE9F04F04460D46D21D22F0070089B0A5
:10181000D0E900974846394606F020F90246F80F0D
:1018200001D02D2307E02068810701D52B2302E09A
:10183000202101EAC0038DF820300BB1012000E027
:101840000020032A824601D0072A04DB29462046CD
:1018500000F00EFC3FE12078800601D40D2500E069
:10186000E569C7F30A560D2D49DA00214FEA175BE7
:1018700008464FF00000002F00F4400007DA00EBAC
:1018800080004FF4400100EBD07001EA6000811548
:10189000012901DD4FF0FF3100224FEA850CBCF138
:1018A000180F06D31346ACF118004FF08052C24017
:1018B00003E04FF4801323FA0CF30CF10C0CBCF191
:1018C000200F04D3ACF1200C09FA0CF001E007FA68
:1018D0000CF000294FF0004801DD18B90FE00ED1DF
:1018E00040450CD319EB02095F4121B9404502D1B3
:1018F0009F4329EA0209BBEB175F00D0761C2088C2
:10190000000502D57B48784402E07A4878441938CB
:1019100008AA302302F80A30037C0AF10101002EE4
:101920000AF1020A53546A4602DC4FF0300101E02A
:101930004FF031014FF001088DF8001002D0A6F2EF
:10194000FF3603E059EA470100D06B4E002D02DC60
:101950002178090704D54FF002082E218DF80110D7
:10196000C44600210BE0C7F303433F01C35C491C9D
:101970006D1E02F80830052908F1010801DA002D72
:10198000F1DC00210CE000EB1973491C1B786D1E83
:10199000082902F808304FEA091908F1010801DAAC
:1019A000002DF0DC21688B0602D516E0A8F10108B5
:1019B000E04505DD02EB080313F8013C302BF5D0C0
:1019C000B8F1000F09DD02EB080313F8013C2E2BE0
:1019D00003D1090701D4A8F10108002D05DD3E213E
:1019E00002F808106D1E08F10108407C002E02F874
:1019F000080008F1010804DA2D20764202F80800F8
:101A000002E02B2002F808000A214FF47A70864287
:101A100008F101080BDB96FBF0F3303302F80830D5
:101A200096FBF0F308F1010800FB136601E0642E59
:101A30000CDB642096FBF0F3303302F8083096FBA1
:101A4000F0F308F1010800FB136601E00A2E06DB43
:101A500096FBF1F0303002F8080008F1010896FB1F
:101A6000F1F001FB1060303002F80800A16908F1C4
:101A7000010808EB050202EB0A00081AA0612078B1
:101A8000C00602D42046FEF74CFE216A08AE01EBE8
:101A90000A00206204E0D4E9012116F8010B904706
:101AA000BAF1010AF7D22078C00602D52046FEF727
:101AB00038FE6E4609E016F8010B3E280FD0D4E937
:101AC00001219047206A401C2062B8F10108F2D23F
:101AD0002046FEF73CFE09B00320BDE8F08F206AE7
:101AE0002844206203E0D4E90121302090476D1E94
:101AF000EBD3F8E72667000002FCFFFF10B543694F
:101B000013B1AFF3008001E0FEF744FE012010BDE9
:101B1000127800F124010A7000224A700122EDE7D8
:101B200011684FF0FF32E9E710B5436913B1AFF325
:101B3000008001E0FEF7CEFE012010BD128800F10A
:101B4000240182840022C2840122EDE711684FF053
:101B5000FF32E9E72DE9F34F4FF0000A0C465646F5
:101B60008DB001200C9001F10C000B9062690B9874
:101B700001219047051E2DD0252D2CD0216A8847A4
:101B8000C0B162690B9801219047216A88470028FB
:101B9000F7D16269411E0B98904700E0761CA1695D
:101BA0000D988847216A88470028F7D1E1690D9888
:101BB0008847DBE7A1690D988847A842074601D10D
:101BC000761CD3E7E1690D9888477F1C02D1BAF1F2
:101BD000000F6FD06BE162690B9800273D463946D4
:101BE00090472A2804D162690B980121904701256A
:101BF000DFF8D08262690B9801219047A0F1300193
:101C00000A290AD24745E5DC07EB870100EB4107CB
:101C1000303FDFD445F01005ECE7E90601D46FF062
:101C200000476C280AD04C2814D0682815D06A28A0
:101C30000DD074281CD07A281AD01DE062690B9848
:101C4000012190476C2802D045F0040514E045F0CE
:101C500002050DE045F020050AE062690B980121BC
:101C60009047682802D045F0080505E045F4006576
:101C700062690B9801219047C4E9015765283DD05E
:101C800019DC58287AD00CDC452837D004DC25280C
:101C900026D041289ED131E046282FD0472899D11F
:101CA0002CE05B2877D0612828D063287CD064287A
:101CB00023D15AE0F6E06F2848D008DC66281DD012
:101CC00067281BD0692821D06E2816D127E07028FC
:101CD00045D0732868D0752847D078280DD14DE0BD
:101CE000A1690D988847252805463FF469AFE16949
:101CF0000D9888476D1C3FF46AAFD8E00D992346D4
:101D00006A466FF0010006F04BF9C5E045F040006F
:101D100023464FF000026060A80736D43EE0E80793
:101D20007FF447AF2068011D21600068290501D5B7
:101D300006701BE7290701D5068017E7A90703D519
:101D4000F117C0E9006111E706600FE745F04000B8
:101D500023464FF008026060A80716D41EE040F644
:101D60000E0125EA0100606016E045F040002346C0
:101D70004FF00A026060A80707D40FE045F040006A
:101D80006060A80708D5234610220D996FF0010066
:101D9000AFF3008080E007E0102223460D996FF03A
:101DA0000100AFF3008077E04FF0000963284F4651
:101DB000C8464B46CB4602D05B2806D038E0E80642
:101DC00001D40120A060012732E06269D4F80CB090
:101DD0000B98012190475E2807D14FF00109494631
:101DE0006269D4F80CB00B989047216939B9002189
:101DF0000A4603AB43F82120491C0829FADBD8B373
:101E0000216949B308F1010862690B9801219047E3
:101E10005D28F4D1B9F1000F09D0002003A951F8D1
:101E20002020D24341F82020401C0828F7DB03ABD8
:101E30002069002820794FEA40701ED05B46224678
:101E4000CDF80080CDE901970D9900286FF00100D1
:101E500020DAAFF300801FE0C11703AA00EBD161C5
:101E60004B1121F01F0102EB8302411A136801207C
:101E7000884003431360C7E719E00D992246002804
:101E80006FF00100009702DAAFF3008004E0AFF3D7
:101E9000008001E0AFF3008000280ADA401C06D180
:101EA0000C9820B14FF0FF300FB0BDE8F08F5046D6
:101EB000FAE7E90701D10AF1010A064400200C9073
:101EC00054E60000CCCCCC0C2DE9F04781461646F8
:101ED0008AB0354878440DC88DE80D003248784402
:101EE000801C03AC0DC884E80D0041F69B3008440B
:101EF000372190FBF1F290FBF1F5A5F1800501FB94
:101F000012041B3C02D56442012000E00020DFF8EF
:101F100098A080460027FA44AAF1BE0A0EE0E00726
:101F20000AD03246684607EB470101230AEB8101DC
:101F300005F08CFB8DE8070064107F1C002CEED1AF
:101F4000194F7F44AE3F19E0E80715D007EB0410A6
:101F50000DF1180A90E80E008AE80E00C068F04201
:101F600001D1981908903246012306A903A805F06B
:101F70006DFB03AB83E807006D10641C002DE3D1FB
:101F80004FF0010332466946B8F1000F03A802D0B2
:101F900005F032FB01E005F059FBC9E90001C9F881
:101FA00008200AB0BDE8F087E86100002DE9F041A3
:101FB00016460C46054600F047F8036893F8010101
:101FC000012807D0FF2C12D8185D80B101202C7099
:101FD000BDE8F081D3F807013246214603F207132A
:101FE000C7182846BC46BDE8F041002360474FF0C3
:101FF000FF30EDE700487047A00000247546FFF76A
:10200000F9FFAE4605006946534620F007008546B5
:1020100018B020B5FEF7F4F9BDE820404FF00006F7
:102020004FF000074FF000084FF0000BAC46ACE853
:10203000C009ACE8C009ACE8C009ACE8C00921F0AF
:1020400007018D467047000010B5FFF709F9001D24
:1020500010BD00BF295E000010B5FFF705F900684C
:1020600010BD10B50446FFF7FFF8046010BD000076
:102070002DE9F0411F46044603260168072A01F4B2
:10208000006004DB08B116A505E016A503E008B161
:1020900015A500E015A521F010002060A069C01E64
:1020A000A0610FB1401EA0612046FEF73AFB4FB180
:1020B000D4E9012138469047206A401C2062C01CA8
:1020C000206206E0206AFAE7D4E9012115F8010B45
:1020D0009047761EF8D22046FEF739FBBDE8F08126
:1020E0004E414E006E616E00494E4600696E6600BC
:1020F0002DE9FF4F1F464FF03C0987B04FF00042DB
:10210000DDE9141001F10108DDF858A002EA4050A1
:102110000390002005908346054604460490B96963
:10212000461E08988847AAF1010A0290BAF1000FEA
:102130003BDD02982E2815D0102100F00CFA002863
:102140002EDB4FF0010B0599014317D0B9F1000FB9
:102150000BDB4A46C117FFF78BF805430C43A9F187
:10216000040905E0012004900BE008B145F00105E9
:1021700001200590049820B9361D02E0049800B1B2
:10218000361FB969089808F101088847BBF1000FAC
:10219000AAF1010A0290C9D00999C1F80080C5E7E7
:1021A0000298702808D0502806D0F9690898884706
:1021B000BBF1000F14D04FE0002002900120BBF1D2
:1021C000000F049009D0B969089808F10108884700
:1021D000AAF10109B9F1000F07DCF96908988847ED
:1021E0006FF001000BB0BDE8F08F2B2804D02D2834
:1021F0000CD14FF0FF300490B969089808F101083C
:102200008847A9F10109B9F1000FE6DD411CE4D0CE
:102210000A2100F0A0F90028DFDB029908F101088B
:1022200001EB810100EB41000290B96908988847F1
:102230000A2100F090F9099AA9F10109B9F1000FFA
:10224000C2F8008001DD0028E7DAF96908988847BC
:102250000499029800FB016655EA040004D004F0DA
:102260004041090002D006E0039898E0A40044EA47
:102270009574AD00B61E04F00041080002D16D193E
:102280006441761E159810F0240F03D04FF00B090F
:102290005C4803E04FF028096FF07D008246564508
:1022A00007DAAAEB06018944B9F1410F01DD4FF0CD
:1022B000410901200021A9F10102FEF7D9FF0246E0
:1022C00028400B462140084301D0012100E00021B5
:1022D000501E029143F1FF3128402140084301D0B4
:1022E000012000E000200299834651EA0B014FD003
:1022F000002108464FF00000039900F4400039B176
:1023000000EB80004FF4400100EBD07001EA600068
:102310008015012802DD4FF0FF3000E013D0401C93
:1023200036D0029860B3BBF1000F0CD14A460120B1
:102330000021FEF79DFF28402140084301D00120E5
:1023400000E00020E0B101204A460021FEF790FFA6
:10235000034640190A4661412D1A8C4111D3B9F147
:10236000400F09DD159810F0240F02D0AAF13406B1
:1023700003E0AAF1170600E0761C00254FF00044A8
:1023800006E05B1E42F1FF3220EA030521EA020467
:10239000CAF10100B04206DA1B49039808430190D4
:1023A000002000900EE0039AC4F3D321E80A0A4308
:1023B000164940EA44500A433146CDE900026846D6
:1023C00005F0E7FB159810F0240F0BD01598C00707
:1023D00015D13868DDE90012031D3B600068C0E9D3
:1023E00000120CE002A8694605F0CAFB1598C00768
:1023F00005D13868029A011D3960006802604046C4
:10240000F0E6000002FCFFFF0000F07F0000F03F5C
:102410002DE9FF4F92461D4685B04FF00041DDE9A2
:10242000124BDDE914727F1E01EA4B50414940F026
:10243000FF4940EA0108002122F0200049280491C8
:1024400002D04E2828D04CE03BA0012607C88DE8DA
:102450000700A9690698641C88477F1E014606D4B8
:102460001DF8060018B121F0200181420BD0E96966
:1024700006988847032E34D0082E32D06FF0010022
:1024800009B0BDE8F08F761C032E01D0082EE0D1F4
:10249000601CCAF80000DCE7A9690698641C88473C
:1024A0007F1E2AD420F02000412826D1A969069851
:1024B000641C88477F1E20D420F020004E281CD1A9
:1024C000A9690698641C88477F1E48F4002849F4CF
:1024D0008009CAF8004001D4282806D0E969069886
:1024E00088475FEACB7012D022E0A9690698641C85
:1024F00088477F1E01D4002803DAE96906988847D7
:10250000BCE72928F1D1641CCAF80040E9E71BF0B8
:10251000240F07D028680499031D2B600068C0E9C8
:10252000001805E02868021D2A600068C0F80090C5
:102530002046A5E70000F07F494E46494E495459D0
:102540000000000010B50446AFF300802046BDE84F
:102550001040FDF740BF3A2800D2303820F020026A
:10256000412A01D3A2F13700884201D34FF0FF3056
:102570007047000001491820ABBEFEE726000200AC
:102580007047FEE77047EFF3108072B6FEE7000079
:10259000F8B5044600F074FB002C00F0BB80054643
:1025A00094F83500022840F0B0802768C14EB74249
:1025B0001CBFC14887421ED0C04887421CBFC048CC
:1025C000874218D0BF4887421CBFBF48874212D0FD
:1025D000BE4887421CBFBE4887420CD0BD488742D8
:1025E0001CBFBD48874206D0BC4887421CBFBC48C0
:1025F000874240F00E813868394620F01E0038606E
:1026000051F8140F20F08000B74208603CD0AA486F
:1026100087421CBFA948874236D0A94887421CBFC1
:10262000A848874230D0A84887421CBFA7488742A5
:102630002AD0A74887421CBFA648874224D0A64874
:1026400087421CBFA54887421ED0A54887421CBFB1
:10265000A448874218D0A54887421CBFA248874299
:1026600012D0A34887421CBFA24887420CD0A24880
:1026700087421CBFA148874206D0A14887421CBFA1
:10268000A048874240F0FE80206EB742016821F4E6
:102690008071016024D0FA4887421CBFF948874204
:1026A0001ED0F94887421CBFF848874218D0F84826
:1026B00087421CBFF748874212D0F74887421CBFA9
:1026C000F64887420CD0F64887421CBFF54887423F
:1026D00006D0F54887421CBFF448874240F0AE80E0
:1026E000386820F0010038603868C00714D000F066
:1026F000C7FA401B0628F7D320206065002084F825
:102700003400032084F8350004E0002084F834000D
:10271000802060650120F8BD2068B0421CBFD84908
:1027200088421DD0D74988421CBFD749884217D05C
:10273000D64988421CBFD649884211D0D549884223
:102740001CBFD54988420BD0D44988421CBFD4490C
:10275000884205D0D34988421CBFD349884278D1EA
:10276000A16DE26D3F2302F01F0203FA02F28A60BC
:10277000B0423BD0C24988421CBFC249884235D0D2
:10278000C14988421CBFC14988422FD0C0498842F4
:102790001CBFC049884229D0BF4988421CBFBF49DD
:1027A000884223D0BE4988421CBFBE4988421DD002
:1027B000BD4988421CBFBD49884217D0BC498842E8
:1027C0001CBFBD49884211D0BA4988421CBFBB49D1
:1027D00088420BD0BA4988421CBFBA49884205D00A
:1027E000B94988421CBFB949884258D1E06ED4E942
:1027F00019124A6030B1016821F480710160D4E996
:102800001C014160012084F83500002084F8340068
:10281000F8BDA64887423FF4EEAEA74887423FF492
:10282000EAAEA34887423FF4E6AEA24938688F4239
:102830003FF4E2AE20F00E003946E5E69C488742C0
:102840003FF44EAF9B4887423FF44AAF9A488742D5
:1028500046E7964988423FF483AF974988423FF460
:102860007FAF934988423FF47BAF924AA16D90427B
:102870003FF477AFE26D012302F01F0203FA02F288
:102880004A6075E7924887423FF4FEAE914887421E
:102890003FF4FAAE904887423FF4F6AE20E78C4909
:1028A0008842A3D08B498842A0D08B4988429DD0D2
:1028B000A8E700BF1000024028000240400002408C
:1028C000580002407000024088000240A000024010
:1028D000B8000240100402402804024040040240B4
:1028E0005804024070040240A004024088040240E0
:1028F000B8040240085402581C540258305402587C
:102900004454025858540258B0B500285DD090F88D
:102910003510022957D10168584A914223D0584BAB
:1029200099421CBF574B99421DD0574B99421CBF2F
:10293000564B994217D0564B99421CBF554B994262
:1029400011D0554B99421CBF544B99420BD0544B5C
:1029500099421CBF534B994205D0534B99421CBF1F
:10296000524B994234D191424FF0040380F83530F4
:1029700023D0434881421CBF424881421DD0424877
:1029800081421CBF4148814217D0414881421CBF4F
:102990004048814211D0404881421CBF3F4881429B
:1029A0000BD03F4881421CBF3E48814205D03E4883
:1029B00081421CBF3D4881424DD1086820F0010092
:1029C0000860002102E08021416501210846B0BD78
:1029D000374B9942C7D0374B9942C4D0364B9942B6
:1029E000C1D00A6822F00E020A600A6822F00102D1
:1029F0000A60324A91420BD0314A91421CBF314A9F
:102A0000914205D0304A91421CBF304A91422BD1AD
:102A100000F158041ECC1D6825F480751D6002F07D
:102A20001F02012303FA02F24A60816E6160C16EE7
:102A300031B10A6822F480720A60D0E91C124A603F
:102A4000012180F83510026D002180F83410002A31
:102A5000BCD09047B5E716488142AED015488142B8
:102A6000ABD015488142A8E7194A9142D0D0194A03
:102A70009142CDD0184A9142CAD0E1E710000240FD
:102A8000280002404000024058000240700002400E
:102A900088000240A0000240B8000240100402403A
:102AA00028040240400402405804024070040240DE
:102AB00088040240B8040240A004024008540258AE
:102AC0001C54025830540258445402585854025866
:102AD0006C54025894540258805402582DE9F84F0F
:102AE000594A4FF00A0A4FF000084FF0010B4FF01F
:102AF000000C9042554A08BF4FF0090A02444FEAC1
:102B0000B223092B38BF4FEAB22A00220D6835FAEA
:102B100002F600F097800BFA02F715EA070900F0B9
:102B200084804E68122E00F286800BFA06F414F0B0
:102B3000061F00F08080032303FA0CF48368CD683D
:102B4000A34305FA0CF56FEA040E2B4383603309A7
:102B50004568BD43934057002B434360C3688C686E
:102B600003EA0E03BC402343C36046F01003122B5C
:102B700011D16FF0030508F01C030F2405EA52057C
:102B80009C4005442E6A26EA04040E6906FA03F303
:102B900023432B624E68036806F0030403EA0E0326
:102BA000BC4023430360F3003FD56A4C294F4FF0EC
:102BB000B04E236843F00203236023680F2403F020
:102BC00002030093009D08F00C0322F003059C40D3
:102BD0000AFA03F3EE5926EA04042343EB511C4F8F
:102BE000FB6F4D6843EA0904EE0358BF23EA09046A
:102BF000FC67AE03D7F8803043EA090458BF23EAE4
:102C00000904C7F88040EE02DEF8003043EA090408
:102C100058BF23EA0904CEF80040AD023B6843EAFE
:102C2000090458BF23EA09043C6008F104080CF1C8
:102C3000020C01326AE70323674603FA0CF46FEAD9
:102C4000040E8BE7BDE8F88F002402580000FEA7B1
:102C50000400005808040058426902EA0103914345
:102C600041EA034181617047002A08BF090481617C
:102C70007047000001480068000C70470010005CBD
:102C800005480068704700BF2848034900780A6873
:102C900010440860704700BF9C04002480B50320E6
:102CA00000F084F800F078FF0E49624B0A68C2F326
:102CB0000322096801F00F019A5C595C02F01F02BF
:102CC000D0401B4A01F01F011060C840064908604F
:102CD000002000F00BF808B1012080BD00F02AF8B8
:102CE000002080BD184402580C00002470B50F4E1F
:102CF00004463078B0B14FF47A71B1FBF0F00C4972
:102D00000968B1FBF0F001F0FFFE01250F2C0AD895
:102D100048B94FF0FF3021460022002500F02AF884
:102D2000746000E00125284670BD00BF000000244B
:102D30000800002481B00748016841F002010160E9
:102D4000006800F0020000900098052001B000F03B
:102D50002DB800BFF4440258002808D400F01F0129
:102D60000122400902FA01F1014A42F8201070479D
:102D700000E100E070B5134B4FF0FF351B68C3F363
:102D80000223DC1E83F0070338BF0024042B28BF76
:102D9000042305FA04F605FA03F3B2439943A1406C
:102DA0001143BDE8704004F069B800BF05494FF613
:102DB000FF030A681A4060F30A22034810430860C0
:102DC000704700BF0CED00E00000FA05B0B5104DF3
:102DD0002A682968520705D401F00701081A18BFAC
:102DE0000120B0BD21F0070108432860FFF748FF2C
:102DF000044655F8080C800407D4FFF741FF001B78
:102E0000B0F57A7FF5D90120B0BD0020B0BD00BF7C
:102E10000C48025880B500F081FE0549054A096852
:102E2000C1F30211515C01F01F01C84080BD00BF19
:102E300020440258D8800008B0B53B498B6A8A6AA2
:102E4000CC6AC4F30014CD6BC5F3CC056C4300EE23
:102E5000104AB8EE400AC2F30532AAB103F00303E8
:102E6000022B15D0BBB90B689B0651BF9FED311AE1
:102E70000B68C3F3C103304C42BF24FA03F301EEE5
:102E8000103AB8EE411A08E00021C0E9001148E00C
:102E90009FED271A01E09FED251A8B6B9FED273AD6
:102EA0006FF35F2302EE103AB8EE422A00EE032AD7
:102EB00003EE102AB7EE000AB8EE433A8A6BC2F36B
:102EC000462232EE002A81EE031A21EE021A02EEA9
:102ED000102AB8EE422A32EE002A81EE022ABCEE17
:102EE000C22A80ED002A8A6BC2F3064202EE102A43
:102EF000B8EE422A32EE002A81EE022ABCEEC22A45
:102F000080ED012A896BC1F3066102EE101AB8EE5A
:102F1000422A32EE000A81EE000ABCEEC00A10EE30
:102F2000101A8160B0BD00BF004402580024744AEA
:102F300020BCBE4B0024744C0090D003000000392C
:102F4000B0B53B498B6A8A6ACC6AC4F300244D6CE5
:102F5000C5F3CC056C4300EE104AB8EE400AC2F34C
:102F60000552AAB103F00303022B15D0BBB90B68BD
:102F70009B0651BF9FED311A0B68C3F3C103304C60
:102F800042BF24FA03F301EE103AB8EE411A08E00A
:102F90000021C0E9001148E09FED271A01E09FEDF4
:102FA000251A0B6C9FED273A6FF35F2302EE103A60
:102FB000B8EE422A00EE032A03EE102AB7EE000A0A
:102FC000B8EE433A0A6CC2F3462232EE002A81EE92
:102FD000031A21EE021A02EE102AB8EE422A32EE4D
:102FE000002A81EE022ABCEEC22A80ED002A0A6C79
:102FF000C2F3064202EE102AB8EE422A32EE002A4E
:1030000081EE022ABCEEC22A80ED012A096CC1F3CE
:10301000066102EE101AB8EE422A32EE000A81EE84
:10302000000ABCEEC00A10EE101A8160B0BD00BFED
:10303000004402580024744A20BCBE4B0024744C47
:103040000090D003000000392DE9F0470446C07815
:10305000A94F000721D5606E4FEA3051032908D8E7
:10306000DFE801F002090E16F96941F40031F96157
:103070000EE0012612E0201D022102F067FD04E0AF
:1030800004F12400022102F0DDFD064630B9606E35
:10309000396C21F440110843386400266078BA4640
:1030A000C00701D1354628E0606D04280BD83546AD
:1030B000DFE800F0030C11171700F869354640F4FB
:1030C0000030F8610DE00125012717E0201D0021E7
:1030D00002F03CFD04E004F12400002102F0B2FD06
:1030E00005462F4655B9606DDAF840100025524666
:1030F00021F007010843CAF840003746607880078E
:103100002BD5A06D4FEAB01004280CD8DFE800F0F2
:10311000030E13191900DAF81C00514640F4003070
:10312000CAF81C000DE00125012617E0201D002132
:1031300002F00CFD04E004F12400002102F082FD05
:1031400005462E4655B9A06DDAF8401000255246C6
:1031500021F4E0710843CAF840003E466078400719
:1031600002D4B04657462AE0D4F8A40057464FEAA6
:103170007050042809D8DFE800F0030C111717007D
:10318000F86940F40030F8610EE001254FF00108C5
:1031900015E0201D002102F0D9FC04E004F1240018
:1031A000002102F04FFD0546A84645B9D4F8A40019
:1031B000B96C0025B04621F460010843B86460781A
:1031C00000072AD5D4F8A8004FEA3060042809D8AF
:1031D000DFE800F0030B10161600F86940F4003029
:1031E000F8610DE00125012718E0201D002102F003
:1031F000ADFC04E004F12400002102F023FD0546AB
:103200002F465DB9D4F8A800DAF8481000255246D8
:1032100021F0E0610843CAF848004746E07880079B
:1032200024D5A06C4FEA301003280BD8DFE800F05B
:1032300012020D12DAF81C00514640F40030CAF8B0
:103240001C0007E00125012611E0201D022102F0EB
:103250007DFC05462E4655B9A06CDAF83C100025D9
:10326000524621F030010843CAF83C003E466078DF
:10327000C0062BD5E06D4FEA303004280CD8DFE8CB
:1032800000F0030E13191900DAF81C00514640F43F
:103290000030CAF81C000DE00125012717E0201DB1
:1032A000002102F053FC04E004F12400002102F0AC
:1032B000C9FC05462F4655B9E06DDAF840100025E7
:1032C000524621F4E0410843CAF84000374660788E
:1032D000800625D5206E4FEA3040052809D8DFE862
:1032E00000F013030D131313201D012102F02EFC17
:1032F00009E00125012614E01044025804F12400DD
:10330000012102F09FFC05462E4655B9206EDAF8E1
:1033100040100025524621F4E0210843CAF840003D
:103320003E466078400625D5D4F8AC004FEA3070B0
:10333000052809D8DFE800F011030B111111201D39
:10334000012102F003FC07E00125012713E004F14D
:103350002400012102F076FC05462F465DB9D4F821
:10336000AC00DAF848100025524621F0E04108434D
:10337000CAF8480037466078000620D5E06E90B164
:10338000B0F1005F0AD0B0F1805F2CD1DAF81C00F8
:10339000514640F40030CAF81C0004E0201D012111
:1033A00002F0D4FB05462E4655B9E06EDAF840101F
:1033B0000025524621F040510843CAF840003E46DD
:1033C000E078C00702D1B046574622E0606C57460D
:1033D00003280BD8DFE800F013020E13F86940F45D
:1033E0000030F8610BE001250126E9E701254FF0E7
:1033F00001080EE0201D022102F0A8FB0546A846A8
:103400003DB9606CF96B0025B04621F0030108431B
:10341000F863A078400601D4474616E0D7F8F003D9
:1034200040F48070C7F8F003FFF72AFC0646D7F88F
:10343000F003C00507D4FFF723FC801B6428F6D9EE
:103440000325032701E02F468DB12078C0074ED019
:10345000A06F4FEAF000052834D8DFE800F03C0305
:10346000363C3C3C201D012102F070FB32E0DAF8D2
:103470006010D4F8B0005546414011F4407F0BD0A5
:10348000296E2A6E42F480322A6621F440712A6E37
:1034900022F480322A662966B0F5807F40F01B82D4
:1034A000FFF7EEFB064641F288390327DAF86000A1
:1034B000800700F10D82FFF7E3FB801B03254845E1
:1034C000F4D9C2E70125012612E004F1240001210C
:1034D00002F0B8FB05462E4655B9A06FDAF8441045
:1034E0000025524621F038010843CAF844003E4600
:1034F0002078800721D5606F052809D8DFE800F023
:1035000011030B111111201D012102F01FFB07E017
:103510000125012712E004F12400012102F092FBB1
:1035200005462F4655B9606FDAF84410002552461B
:1035300021F007010843CAF84400374620784007C5
:1035400023D5D4F89000052809D8DFE800F011034E
:103550000B111111201D012102F0F8FA07E00125DD
:10356000012613E004F12400012102F06BFB054663
:103570002E465DB9D4F89000DAF84810002552467E
:1035800021F007010843CAF848003E46207880062B
:1035900025D5D4F88C004FEA3070052809D8DFE82B
:1035A00000F011030B111111201D002102F0CEFAC1
:1035B00007E00125012713E004F12400022102F0B5
:1035C00041FB05462F465DB9D4F88C00DAF844106B
:1035D0000025524621F0E0410843CAF8440037462E
:1035E0002078400625D5D4F898004FEAB020052869
:1035F00009D8DFE800F011030B111111201D002183
:1036000002F0A4FA07E00125012613E004F12400EA
:10361000022102F017FB05462E465DB9D4F898004A
:10362000DAF848100025524621F4E0510843CAF860
:1036300048003E462078000625D5D4F89C004FEA85
:103640007030052809D8DFE800F011030B111111C3
:10365000201D002102F07AFA07E00125012713E07E
:1036600004F12400022102F0EDFA05462F465DB96F
:10367000D4F89C00DAF848100025524621F4604145
:103680000843CAF8480037462068010717D5D4F820
:103690008010B1F5805F0AD104F12400022102F00C
:1036A000D1FA002818BF01272068D4F88010DAF872
:1036B0004420534622F440521143CAF84410C10634
:1036C00017D5D4F89410B1F5807F0AD104F1240005
:1036D000022102F0B7FA002818BF01272068D4F8A9
:1036E0009410DAF84820534622F440721143CAF885
:1036F0004810000320D5D4F8A000B0F5003F0ED04C
:10370000B0F5803F05D078BB201D002102F01EFAE5
:1037100004E004F12400022102F094FA05462E464A
:103720005DB9D4F8A000DAF848100025524621F41B
:1037300040310843CAF848003E46A078400729D5E2
:10374000D4F88400B0F5401F17D0B0F5001F0ED09C
:10375000B0F5801F40F0B980DAF81C00514640F403
:103760000030CAF81C0008E001250126E5E704F155
:103770002400012102F066FA05462F465DB9D4F80F
:103780008400DAF844100025524621F44011084321
:10379000CAF844003746A078C00701D13E4620E071
:1037A000E06CB0F5803F08D0C8B9DAF81C0051468B
:1037B00040F40030CAF81C0004E0201D022102F091
:1037C000C5F905462E4665B9E06CDAF83C100025CF
:1037D000524621F480310843CAF83C00DEE7012557
:1037E00001262068810008D504F12400022102F09E
:1037F00029FA002818BF0126206881031BD5E16F34
:103800006FF0010202EB3122022A0AD34FEA312281
:103810003AB1012A06D1DAF81C2042F40032CAF883
:103820001C200DB1012606E0DAF8442022F4407293
:103830001143CAF84410C10207D5216FDAF84020BD
:1038400022F000421143CAF84010C10008D5D4F854
:10385000B410DAF8002022F480421143CAF80010B4
:10386000810207D5A16EDAF8402022F08072114360
:10387000CAF8401041000CD5DAF8001021F40041DC
:10388000CAF80010D4F8B810DAF800201143CAF8CA
:103890000010B0F1FF3F07DC216DDAF83C2022F088
:1038A00040521143CAF83C10000208D5D4F88800F1
:1038B000DAF8441021F440010843CAF84400002E0D
:1038C00018BF01263046BDE8F0870125012762E7D1
:1038D0005546D4F8B0002A68094900F4407322F430
:1038E0007C5201EA1011B3F5407F6FF31F3008BF1F
:1038F0000A432A60296E0843286600258CE500BF2C
:10390000CFFFFF002DE9F843002800F00081814D32
:1039100004468846286800F00F0088420BD22868C9
:1039200020F00F0040EA08002860286800F00F002F
:10393000404540F0EC802068CC4F41070AD5216912
:10394000BA6902F07002914204D9BA6922F0700299
:103950001143B96101070AD56169FA6902F0700281
:10396000914204D9FA6922F070021143F961C1064B
:103970000AD5A169FA6902F4E062914204D9FA69B0
:1039800022F4E0621143F96181060AD5E1693A6ADD
:1039900002F07002914204D93A6A22F07002114397
:1039A000396210F002010AD0E268BB6903F00F032C
:1039B0009A4204D9BB6923F00F031A43BA61C207C4
:1039C0003AD0D4E90101BA6922F47062032841EACD
:1039D0000201B96105D0022807D1396889030DD4E5
:1039E00095E03968890109D491E03968012802D14C
:1039F000C90503D48BE0490740F189803969A9469C
:103A000021F0070108433861FFF73AF9064641F211
:103A100088356068396901F03801B1EBC00F07D013
:103A2000FFF72EF9801BA842F3D90320BDE8F883E5
:103A300020684D4600F0020151B1E168BA6902F018
:103A40000F02914204D2BA6922F00F021143B96108
:103A5000296801F00F0141450AD9296821F00F01B9
:103A600041EA08012960296801F00F0141454ED162
:103A700041070AD52169BA6902F07002914204D265
:103A8000BA6922F070021143B96101070AD5616970
:103A9000FA6902F07002914204D2FA6922F07002CF
:103AA0001143F961C1060AD5A169FA6902F4E0621D
:103AB000914204D2FA6922F4E0621143F96180066E
:103AC0000AD5E069396A01F07001884204D2396A86
:103AD00021F070010843386200F05EF8B9692D4AA0
:103AE0001B4BC1F30321515C01F01F01C840B969B0
:103AF000186001F00F01515C01F01F01C840154929
:103B0000086005480068BDE8F843FFF7EFB80120FA
:103B1000BDE8F883002000520400002480B500F0C6
:103B20003BF80A491B4B0A68C2F30322096801F0FB
:103B30000F019A5C595C02F01F02D040044A01F068
:103B40001F011060C8400349086080BD1844025836
:103B5000080000240C00002480B5FFF7DFFF0C49AB
:103B60000C4A0968C1F30211515C01F01F01C84001
:103B700080BD00BF80B5FFF7D1FF0549054A096840
:103B8000C1F30221515C01F01F01C84080BD00BF9C
:103B90001C440258D880000810B534490869C0F3A5
:103BA000C20003280BD002282FD080BB08688006F3
:103BB00034485AD50968C1F3C101C84010BD8A6AAA
:103BC000886ACB6A4C6B03F00103C4F3CC046343F3
:103BD00000EE103AB8EE400AC0F30510C8B102F08A
:103BE0000302022A17D0CAB90A68920651BF9FED94
:103BF000241A0A68C2F3C102224B42BF23FA02F21E
:103C000001EE102AB8EE411A0AE01A4810BD184811
:103C100010BD002010BD9FED191A01E09FED161A8E
:103C20000A6B9FED193A6FF35F2202EE102AB8EE8D
:103C3000422A00EE032AB7EE000A32EE000A02EE34
:103C4000100AB8EE422A086BC0F3462081EE021A31
:103C5000013021EE000A01EE100AB8EE411A80EEA2
:103C6000010ABCEEC00A10EE100A10BD0044025852
:103C700000093D0040787D010024744A20BCBE4B01
:103C80000024744C0090D00300000039F8B50028DF
:103C900000F0E88004460078D34EC00712D03069A7
:103CA00000F03801B06A102905D018292CD100F095
:103CB0000300022828D13068800303D560680028FB
:103CC00000F0D0802078800750D5306910F038019E
:103CD000B06A2CD0182908BF5FEA807027D03068FE
:103CE000E168002900F0088120F0190008433060E5
:103CF000FEF7C6FF0546306840071FD4FEF7C0FF39
:103D0000401B0228F7D984E16068002800F0058193
:103D1000B0F5803F07D03168B0F5A02F40F0668144
:103D200041F480203060306840F4803064E13068D5
:103D3000400703D5E068002800F09480FEF79AFF62
:103D400041F2030188420AD82069716821F47C316C
:103D5000402814BF41EA003041F4003005E02069FA
:103D6000716821F0FE4141EA006070602078C00671
:103D70003ED5306900F03801B06A082905D018290D
:103D80001BD100F00300012817D13068C00502D50F
:103D9000E069802866D1FEF76DFF41F20301884299
:103DA0001FD8206A716821F0F841202814BF41EA29
:103DB000806041F0804070601AE03068E16900295D
:103DC00000F0E28040F080003060FEF759FF0546C9
:103DD0003068C005DFD4FEF753FF401B0228F7D937
:103DE00017E1206AF16821F07C5141EA0060F0603F
:103DF0002078000738D42078800647D42078400700
:103E000057D4676A67B3306900F03800182840F06B
:103E1000CC80B16A306B012F24D0A26A01F0030379
:103E200093421FD1E26AC1F3051191421AD10146B2
:103E3000226B6FF35F21013A914213D1C0F3462107
:103E4000626B013A91420DD1C0F30641A26B013A77
:103E5000914207D1C0F30660E16B0139884201D17C
:103E6000002065E10120F8BD706F6169A1B340F0E9
:103E700001007067FEF704FF0546706F8007BAD433
:103E8000FEF7FEFE401B0228F7D9C2E03068A169A8
:103E9000002968D040F480503060FEF7F1FE0546FE
:103EA00030688004AAD4FEF7EBFE401B0228F7D945
:103EB000AFE0D6F8000440F48070C6F80004FEF7C6
:103EC000DFFE0546D6F80004C0053CD4FEF7D8FE58
:103ED000401B6428F6D99CE020F001007067FEF7D3
:103EE000CFFE0546706F80077FF585AFFEF7C8FEF1
:103EF000401B0228F6D98CE020F001003060FEF76C
:103F0000BFFE0546306840077FF530AFFEF7B8FECC
:103F1000411B03200229F5D90AE1306820F48030E2
:103F20003060306820F480203060FEF7A9FE05463E
:103F3000306880037FF5C6AEFEF7A2FE411B03206A
:103F40006429F5D9F4E0A068002864D0012806D0DF
:103F5000316F052840F0D68041F004003067306FA3
:103F600040F00100D4E020F480503060FEF788FE7D
:103F70000546306880047FF541AFFEF781FE411BA6
:103F800003200229F5D9D3E020F080003060FEF74D
:103F900077FE05463068C0057FF52AAFFEF770FE54
:103FA000411B03200229F5D9C2E0306820F080705F
:103FB0003060FEF765FE0546022F09D130688001AA
:103FC00041D5FEF75DFE411B03200229F6D9AFE083
:103FD000306880017FF544AFFEF752FE411B03209D
:103FE0000229F5D9A4E000BF0044025821F4803032
:103FF0003060306820F480203060FEF741FE0546D6
:10400000306880033FF55EAEFEF73AFE401B642841
:10401000F6D90320F8BD306F20F001003067306F13
:1040200020F004003067FEF72BFE054641F288378A
:10403000306F80077FF5E5AEFEF722FE411B0320BF
:10404000B942F5D974E004F12805B06A40F2F331C1
:1040500088432ECD0843591E40EA0210B0626FF328
:104060005F214FF4FE024FF47E4000EB452080B20A
:104070000844A16B02EB01414FF0FE4201F4FE0146
:104080000844E16B02EB016101F0FE41084430633A
:104090004FF6F871F06A20F00100F062706B88430F
:1040A000A16C40EAC1007063206CF16A21F00C0140
:1040B0000843F062F06A616C20F002000843F0628D
:1040C000F06A40F48030F062F06A40F40030F06250
:1040D000F06A40F48020F062F06A40F00100F06283
:1040E000306840F080703060FEF7CAFD04463068EA
:1040F00080013FF5B5AEFEF7C3FD011B0320022989
:10410000F5D915E021F001003067306F20F0040090
:104110003067FEF7B5FD054641F28837306F8007FE
:104120003FF56FAEFEF7ACFD411B0320B942F5D958
:10413000F8BD0000F8B550B3044600209A49A062CB
:104140002068884208D04F4A904205D0974A904252
:1041500002D0E2680F2A1AD8E268E36B0125884290
:1041600002F1080205EB53134FEAD20203FB02F2FD
:104170000BD08E49884208D0424B984218BF082A7B
:1041800005D8884218BF984203D1102A01D90120CE
:10419000F8BD94F8811031B9002084F880002046E1
:1041A00000F072F82068022184F88110016821F083
:1041B00001010160D4F818C06168BCF1806F12D1B0
:1041C00039B1B1F5800F0ED1A36B33B14FF480013B
:1041D00009E0A36BB3F1805F04D1036843F480531B
:1041E000036000E00021E369A56A04F10807626941
:1041F00043EA0503E56B43EA0503E0CF43EA060320
:104200008360636B666A43EA0C0343EA0603A66BAA
:1042100043EA060343EA070342EA0302236A42EA47
:104220000302D4E9123642EA010242EA060242EAF5
:10423000050242EA0302A36D42EA0302C26061B1D1
:10424000026D490222F00102026514D5616DC26857
:1042500022F000421143C1600DE08168012262F347
:10426000CC2181600222816862F34A218160016D64
:1042700021F0010101650020C4F88400012184F8C7
:104280008110F8BD003C0040B0B5B6B0044631A87E
:104290001421FCF7DEF902A8BC21FCF7DAF920684A
:1042A0004149404C884238D04049884277D14FF448
:1042B000805002900025199502A8FEF7C5FE08B1AE
:1042C000FEF761F93A48016941F4805101610169E1
:1042D00001F4805101910199016841F008010160E8
:1042E000016801F0080101910199016841F00201A2
:1042F0000160006831A900F00200019001980520DA
:104300003590CDE93355022032908020319004F56C
:104310000060FEF7E3FB182035E04FF48050029078
:104320000025199502A8FEF78FFE08B1FEF72BF9BC
:104330001F48816841F480418160816801F48041B7
:1043400001910199016841F004010160016801F0E7
:10435000040101910199016841F0020101600068C6
:1043600031A900F002000190019805203590CDE9B7
:104370003355022032900620319004F58060FEF71C
:10438000ADFB4FF4806031900520359031A90020BD
:10439000CDE93300022032902046FEF79FFB36B075
:1043A000B0BD00BF0004025800380040003001409A
:1043B000E04402582DE9FC470446D0E900901D4630
:1043C00017460E46B0F5800F02D1A068002876D0BF
:1043D00094F8800001286FD0012084F88000FEF757
:1043E0004FFC804694F88100012862D1002E72D0E3
:1043F000002F70D0042084F881000020C4F88400CD
:10440000A4F86A70A4F868706666A4F86000E065B5
:10441000C4E91C00A4F86200A1682068B1F5C02FAF
:1044200003D1016821F40061016041684FF6FF7219
:10443000914339444160016841F0010101606168C4
:10444000B1F5800F03D1016841F400710160E168AA
:10445000102946D348F208066F1CB4F86A000028F9
:1044600000F0A98020684169314209D0006B616E7B
:1044700001C16166B4F86A000138A4F86A00ECE78B
:10448000FEF7FEFB002FE8D0A0EB0800A842E4D323
:10449000204601F0A7FCD4F8840040F48070C4F8F2
:1044A0008400002084F88000012084F88100BDE8A9
:1044B000FC87002084F880000220BDE8FC870420EF
:1044C00084F88100314632463B460095204600F094
:1044D00094F9BDE8FC87002084F880000120BDE845
:1044E000FC874FF6FC706E1C07292AD900F1030ADD
:1044F000871CB4F86A0000285DD02068416911F477
:10450000604F0AD04169090410D4B9F83000616ED7
:1045100021F8020B504661660DE0FEF7B1FB002E5C
:10452000E7D0A0EB0800A842E3D3B1E7006B616ECF
:1045300001C161663846B4F86A100844A4F86A00FC
:10454000D7E700F1020AC71CB4F86A0098B32068E4
:10455000416911F4604F10D04169090416D44169D2
:1045600001F4C041B1F5005F17D9B9F83000616EB0
:1045700021F8020B6166504617E0FEF781FB002E22
:10458000E2D0A0EB0800A842DED381E7006B616EA9
:1045900001C161664FF6FC7007E090F83000616E73
:1045A0000870606E013060663846B4F86A100844DE
:1045B000A4F86A00C8E7204601F014FC012084F842
:1045C0008100002084F88000D4F88400002818BFFF
:1045D0000120BDE8FC872DE9F047044690F88000F3
:1045E000012862D001201D4617460E46D4F80090DF
:1045F00084F88000FEF744FB804694F8810001288F
:1046000050D1002E54D0002F52D0032084F88100C6
:104610000020C4F88400A4F86270A4F86070E66515
:10462000A4F868006066C4E91C00A4F86A00A168E8
:104630002068B1F5C02F03D1016841F40061016029
:1046400041684FF6FF72914339444160016841F07F
:10465000010101606168B1F5800F03D1016841F487
:1046600000710160E068102828D36E1CB4F8620065
:10467000002800F0958020684169890708D4FEF77A
:10468000FFFA002EF2D0A0EB0800A842EED3A3E080
:10469000E16D04C90262E165B4F862000138A4F872
:1046A0006200E3E7002084F880000220BDE8F08784
:1046B000002084F880000120BDE8F08707282FD96A
:1046C0004FF6FC706E1C00F1020AC71CB4F86200C1
:1046D000002865D020684169890708D4FEF7D0FA20
:1046E000002EF3D0A0EB0800A842EFD374E0B4F89A
:1046F0006210022907D3E16B29B1E16D04C902629E
:10470000E165504606E0E06D30F8021BA9F8201084
:10471000E0653846B4F862100844A4F86200D5E7B2
:104720004FF6FC706E1C00F1020AC71CB4F8620060
:10473000B0B320684169890708D4FEF7A1FA002EBA
:10474000F4D0A0EB0800A842F0D345E0B4F8621022
:10475000042909D3E16B412906D3E16D04C9026242
:10476000E1654FF6FC7015E0B4F86210022909D338
:10477000E16B39B1E06D30F8021BA9F82010E0655B
:10478000504607E0E16D097880F82010E06D0130B7
:10479000E0653846B4F862100844A4F86200C5E742
:1047A000204641462A4601F073FB28B1D4F8840024
:1047B00040F02000C4F88400204601F013FB0120E3
:1047C00084F88100002084F88000D4F88400002858
:1047D00018BF0120BDE8F087204601F003FBD4F8A4
:1047E000840040F48070C4F88400002084F88000C5
:1047F000012084F88100BDE8F0872DE9F84F0446D8
:1048000090F88000012800F0868001209A46154625
:104810000E46D4F8009084F88000FEF731FA804606
:1048200094F88100012869D1002E77D0002D75D031
:10483000BAF1000F72D094F88100042802D005204C
:1048400084F881000021C4F88410A4F86AA0A4F8B8
:1048500062A04FF6FF77D4E90002B2F5800F4368FB
:1048600023EA0703534443606566A4F868A0E6653D
:10487000C4E91C11A4F860A0016841F001010160C5
:1048800003D1016841F400710160E168DDF828B0EE
:10489000102949D348F208050BF10106574657EA9B
:1048A0000A0000F015812068BAF1000F416918BFB5
:1048B00011F002010AD0E16D04C90262B4F862206D
:1048C000013AA4F86220E165B4F862A0416967B1D9
:1048D00029400AD0006BB4F86A100139A4F86A10B4
:1048E000616E01C16166B4F86A70FEF7C9F9002E05
:1048F000D5D0A0EB08005845D1D3D8E06168B1F518
:10490000800F05D1042803D1A06800283FF48CAFA4
:10491000002084F880000220BDE8F88F002084F891
:1049200080000120BDE8F88F4FF6FE700BF1010505
:1049300007294DD9471C564656EA0A0000F0C880A0
:104940002068BAF1000F416918BF11F0020119D0B7
:10495000BAF1010F08D0E16B31B1E16D04C9026217
:10496000E1654FF6FE7106E0E16D31F8022BA9F822
:104970002020E1653946B4F862201144A4F86210A1
:10498000B4F862A04169D6B111F4604117D0416911
:10499000090407D4B9F83000616E21F8020B3846DB
:1049A000616605E0006B616E01C161664FF6FE70E5
:1049B000B4F86A100844A4F86A00B4F86A60FEF714
:1049C0005FF9002DB8D0A0EB08005845B4D36EE0D5
:1049D000861E5746411C009157EA0A0078D020688D
:1049E000BAF1000F416918BF11F002012BD0BAF1E2
:1049F000040F09D3E16B41290AD3E16D04C90262B6
:104A0000B4F86220043A0CE0BAF1020F0CD3E16B67
:104A100051B1E16D31F8022BA9F82020B4F86220E1
:104A2000023AA4F862200BE0E16D097880F82010CA
:104A3000B4F862000138A4F86200E16D2068013129
:104A4000E165B4F862A041694FB311F4604126D02A
:104A5000416909040ED4416901F4C041B1F5005F18
:104A60000ED9B9F83000616E21F8020B61664FF67D
:104A7000FE700DE0006B616E01C16166304607E0BB
:104A800090F83000616E0870606E013060660098CA
:104A9000B4F86A100844A4F86A00B4F86A70FEF723
:104AA000EFF8002D98D0A0EB0800584594D320468D
:104AB00001F098F9D4F8840040F48070C4F88400C0
:104AC000002084F88000012084F88100BDE8F88F80
:104AD000204641465A4601F0DBF928B1D4F884005B
:104AE00040F02000C4F88400204601F07BF901204A
:104AF00084F88100002084F88000D4F88400002825
:104B000018BF0120BDE8F88F411E0020B0EB116FE7
:104B100001D001207047044AF023516003490B7013
:104B2000906007211160704710E000E023ED00E085
:104B3000704770477047000070B590F83C30022213
:104B4000012B32D080F83D20012280F83C205E4CC1
:104B5000026842F4806655689368A64202BF25F455
:104B600070054E683543B2F1804F0E6825F0700530
:104B700045EA060555601CBF4F4DAA420AD04F4D6D
:104B8000AA421CBF4E4DAA4204D04E4DAA4218BFA5
:104B9000A2420CD123F0800389681943916000225E
:104BA00080F83C20012180F83D10104670BD474C34
:104BB000A242EFD0F3E700BF60B310B5044690F80F
:104BC0003D0028B9002084F83C00204600F024F87D
:104BD000022084F83D00211D206801F033FA0120F5
:104BE00084F8480084F83E0084F83F0084F84000D0
:104BF00084F8410084F8420084F8430084F84400BB
:104C000084F8450084F8460084F8470084F83D00A5
:104C1000002010BD01207047E0B500682649884299
:104C200018BF8CBD09480022016841F002010160F3
:104C30000068012100F00200019001981D20FEF79C
:104C400099F81D20BDE88C40FEF786B8E84402586C
:104C500090F83D1001291DD1022180F83D10016816
:104C6000B1F1804FC86840F00100C8601CBF124815
:104C7000814205D0114881421CBF114881420BD1AD
:104C80008868134A02400020062A18BFB2F5803F08
:104C90000BD17047012070470A488142F0D00A4882
:104CA0008142EDD009488142EAD0086840F0010015
:104CB00008600020704700BF00040040000800406A
:104CC000000C0040001800400004014000000140BA
:104CD00007000100B0B590F83C2004460220012AEC
:104CE00032D084F83D00012084F83C003C4D20681F
:104CF000024652F8083F2B4013600B68BBB1102BE3
:104D000015D0202B18BF302B11D0402B34D0502B76
:104D10003ED0602B48D03348834208D0B3F5005FC3
:104D20004ED0B3F5801F18BFB3F1101F0DD110681E
:104D30002F490840184340F007001060002084F815
:104D40003C00012184F83D10B0BD27488342EED0DD
:104D500026488342EBD0702BF0D1D1E90103C9681A
:104D6000184340EA0120116821F47F410843106094
:104D7000106840F07700E0E74B68CA68194601F018
:104D80001FFB22681A4952F8080F08404730D4E741
:104D90004B68CA68194601F013FB2268144952F89F
:104DA000080F08405730C8E74B68CA68194601F039
:104DB00018FB22680E4952F8080F08406730BCE71C
:104DC000D1E90103C968184340EA0120116821F4C0
:104DD0007F4108431060106840F48040ADE700BF99
:104DE0008800CEFF400010002000100030001000AE
:104DF00088FFCFFF704710B5044600680169890736
:104E000044BFC1685FEA817140D40169490744BF6A
:104E1000C1685FEA417145D40169090744BFC168AF
:104E20005FEA01714BD40169C90644BFC1685FEAFA
:104E3000C16150D40169C9071CBFC1685FEAC17173
:104E400056D10169090644BFC1685FEA016157D4C0
:104E50000169C90544BFC1685FEA016158D40169AD
:104E6000490644BFC1685FEA416159D401698906B6
:104E700044BFC1685FEA816100D410BD6FF02001BA
:104E800001612046BDE81040FFF754BE6FF00201FB
:104E90000161012121778069800749D02046FFF711
:104EA000A9FF4BE06FF004010161022121778069C5
:104EB00010F4407F46D02046FFF79CFF48E06FF09B
:104EC0000801016104212177C069800744D0204690
:104ED000FFF790FF46E06FF0100101610821217794
:104EE000C06910F4407F41D02046FFF783FF43E0C4
:104EF0006FF001010161204600F0A2F92068A0E7EF
:104F00006FF0800101612046FFF713FE20689FE7E4
:104F10006FF4807101612046FFF70AFE20689EE76A
:104F20006FF040010161204600F0AEF920689DE776
:104F3000204600F04DF8204600F0ECF800202077E5
:104F4000206862E7204600F043F8204600F0E2F8CF
:104F50000020207720685FE7204600F039F82046DF
:104F600000F0D8F80020207720685CE7204600F0A9
:104F70002FF8204600F0CEF800202077206859E76F
:104F800010B586B0044601A81421FBF762FB206827
:104F9000B0F1804F16D10C48016841F00101016069
:104FA0000068002100F0010000900120059002201F
:104FB0000490CDE9020101A90F2001900098034857
:104FC000FDF78CFD06B010BDE04402580000025809
:104FD00070470000B0B5044690F83C00012801D1AC
:104FE0000220B0BD012084F83C004FEAB200052841
:104FF00048D80D46DFE800F0030B131B233320686D
:10500000294601F08DF8206850F8181F1EE020682E
:10501000294601F0C9F8206850F8181F26E02068DA
:10502000294601F0FFF8206850F81C1F0EE02068A8
:10503000294601F033F9206850F81C1F16E020685B
:10504000294601F059F9206850F8541F41F0080131
:105050000160016821F00401016029690FE0206806
:10506000294601F075F9206850F8541F41F4006199
:105070000160016821F48061016029690902026808
:1050800011430160002084F83C00B0BD60B310B54E
:10509000044690F83D0028B9002084F83C002046E2
:1050A00000F024F8022084F83D00211D206800F063
:1050B000C9FF012084F8480084F83E0084F83F00CE
:1050C00084F8400084F8410084F8420084F84300EA
:1050D00084F8440084F8450084F8460084F84700CA
:1050E00084F83D00002010BD0120704781B00068A9
:1050F000B0F1804F09D10648016841F0010101601B
:10510000006800F001000090009801B0704700BFF7
:10511000E84402587047000010B5044659B1081F12
:105120004FEAB000032809D8DFE800F0020B0E11A7
:1051300004F13F000DE004F13E000AE004F14300F9
:1051400007E004F1400004E004F1410001E004F153
:105150004200007801280DD171B1081F4FEAB0005C
:1051600003280DD8DFE800F002101418022084F89C
:105170003F0014E0012010BD022084F83E000EE044
:10518000022084F843000AE0022084F8400006E090
:10519000022084F8410002E0022084F842002068E6
:1051A000012200F0ADFF2168B1F1804F1AD01A48FA
:1051B00081421CBF1948814214D0194881421CBF4A
:1051C000184881420ED0184881421CBF17488142BE
:1051D00012D1486C154A40F40040486441F48060A4
:1051E000904212D18868154A02400020062A18BF52
:1051F000B2F5803F09D110BD0D488142E9D00D487C
:105200008142E6D00C488142E3D0086840F00100BA
:105210000860002010BD00BF0004004000080040EE
:10522000000C004000180040000001400004014054
:1052300000400140004801400044014007000100D7
:1052400010B50E49884218BF10BD00F079FD00EE80
:10525000100A0B4CB8EE400A84ED000A00F074FD11
:1052600000EE100A074821460222B8EE400A84EDFB
:10527000010ABDE8104001F0CFBD00BFA802002424
:105280004401002484030024704790F88010012911
:1052900001D1022112E02421C0F8841001680A68BB
:1052A0000B6823F001030B6022F000520A6000211A
:1052B000416680F880102022C0F88420084670479C
:1052C00070477047B0B5044690F88000012801D1BE
:1052D0000220B0BD2420C4F884002068056802685C
:1052E00022F001020260012284F88020826822F00C
:1052F000606211438160204601F084F8206820211B
:105300000560002084F88000C4F88410B0BDB0B5FA
:10531000044690F88000012801D10220B0BD24206D
:10532000C4F8840020680568026822F00102026067
:10533000012284F88020826822F06042114381605B
:10534000204601F05FF8206820210560002084F8E5
:105350008000C4F88410B0BD7047704770470000EB
:10536000F8B50168044640F62F00CA6902EA000554
:1053700008688B68202D0ED100F0200503F08056C0
:10538000AD1900F08B80216F002900F011812046BB
:10539000BDE8F840084740F60F052A427ED0914DFF
:1053A00000EA0506904D1D40761977D0D60718BF44
:1053B00010F4807607D001260E62D4F88C6046F097
:1053C0000106C4F88C6003F00106970708D53EB1CA
:1053D00002270F62D4F88C7047F00407C4F88C7071
:1053E000570708D53EB104260E62D4F88C6046F00B
:1053F0000206C4F88C6016070BD500F02006354372
:1054000007D008250D62D4F88C5045F00805C4F883
:105410008C5015050BD510F0806508D04FF4006551
:105420000D62D4F88C5045F02005C4F88C50D4F8A7
:105430008C50002D00F0BC8012F020020AD000F049
:10544000200003F08052801804D0226F12B1204651
:1054500090472168D4F88C00896800F0280001F09A
:105460004001401800F09E80204601F07DF8206841
:105470008168490640F19180816821F04001816096
:10548000E06F002800F0898058490165FDF73CFA7B
:10549000002800F08D80E06F016D79E700EA0205D9
:1054A000EE06E66E24D5012E22D11020086288680F
:1054B00040062AD4B4F85E00B4F85C20B4F85E303C
:1054C000002B75D0101A020472D00A68484B22F4DF
:1054D00090720A608A681A408A602022C4F8882084
:1054E0000022E26622670A6822F010020A6038E0B1
:1054F000D6023CD513F4800639D04FF480100862F0
:105500002046BDE8F840FFF728BFE06F0268536807
:105510009DB2002D4CD0B4F85C20954248D2A4F83E
:105520005E30C369B3F5807F18D00A6822F48072B8
:105530000A608A6822F001028A608A6822F04002CA
:105540008A602022C4F888200022E2660A6822F0DD
:1055500010020A60FDF71CF8B4F85C20B4F85E0095
:10556000101A81B22046BDE8F840FFF7A9BE160622
:1055700007D500F0800603F400039B1901D0616F8A
:1055800002E76B0615D4110221D510F080411ED020
:105590002046BDE8F840FFF7DFBE2046BDE8F840F2
:1055A000FFF7DCBE2046FFF7D9FE0020C4F88C00D0
:1055B000F8BD086820F040000860002060672020E7
:1055C000C4F884002046BDE8F84000F02CB9D101B1
:1055D000EED5B0F1FF3FEBDC2046BDE8F840FFF729
:1055E00070BE00BF200100040100001057650008D4
:1055F000FEFFFFEF10B5B0B10446D0F8840028B923
:10560000002084F88000204600F026F82420C4F80A
:1056100084002068016821F001010160204601F04A
:105620007BF9012801D1012010BDA06A10B12046EC
:1056300000F00AFF2068416821F4904141608168D0
:1056400021F02A018160016841F0010101602046DA
:10565000BDE8104000F04DBF10B5B6B0044631A80B
:105660001421FAF7F6FF02A8BC21FAF7F2FF20682E
:105670001B49884231D1012002900024209402A8C5
:10568000FDF7E2FC08B1FCF77EFFA248016941F09A
:1056900010010161016901F0100101910199016896
:1056A00041F002010160006831A900F002000190A0
:1056B00004203590CDE93344022032904FF440402D
:1056C000319001980748FDF709FA252000210022B2
:1056D000FDF750FB2520FDF73FFB36B010BD00BFA6
:1056E000001001400004025810B5D0F88830202B7B
:1056F00006D1012329B122B190F88030012B02D1CB
:105700000223184610BD0023C366094C012380F80C
:1057100080300368A34206D05C68240203D51C686D
:1057200044F080641C6001F0B5FA0023E9E700BF93
:10573000000C005810B5074C05480122214602F024
:105740006AF9FE4821460122BDE81040FFF7CCBFB0
:1057500008010024430100242DE9FC470446D0F849
:10576000840020280AD10D460120002959D0164670
:10577000002A56D094F88000012802D10220BDE80A
:10578000FC8701204FF0000AC4F88CA084F8800048
:1057900099462120C4F88400FDF772FAA4F85660F7
:1057A0008046A4F85460A068B0F5805F06D12769F0
:1057B0000026002F0CBF2E462F4601E02F46002664
:1057C00084F880A0B4F85600D8B120468021002289
:1057D0004346CDF8009001F0C3FAD8B927B121684B
:1057E00017F8010B886206E036F8021B20680027D4
:1057F0006FF35F218162B4F856000138A4F85600B7
:10580000E0E72046402100224346CDF8009001F019
:10581000A7FA10B10320BDE8FC872020C4F884005B
:105820000020BDE8FC877047FEE700002DE9F04F3F
:1058300087B038484FF00008CDF81880364CDFF8B4
:10584000DCA0012208274FF0010904F58056016809
:1058500041F010010160016801F01001019101990E
:10586000016841F080010160016801F0800101914F
:105870000199016841F004010160016801F004012F
:1058800001910199016841F001010160016801F095
:10589000010101910199016841F002010160016873
:1058A00001F0020101910199016841F008010160D4
:1058B0000068082100F00800019001983046D047A8
:1058C0002046F0210022D04704F5406560210122E6
:1058D000A3462846D0470224CDE90484CDE90279C5
:1058E00002AFDFF83CA030463946D047F02005949F
:1058F000CDE90398029039465846D0476020059478
:10590000CDE90398029039462846D04707B0BDE854
:10591000F08F00BFE044025800000258692C0008D4
:10592000DD2A0008F8B5134C00204FF080414FF0FD
:1059300080624FF080730F254FF480060E4F206277
:10594000C4E90076C4E90205C4E90403C4E90621F8
:10595000C4E90900E062616304F138002421FAF728
:1059600078FE2046FEF7E6FB18B1BDE8F840FCF7EC
:105970000ABEF8BD4C01002400300140F8B5134CBC
:1059800000204FF080414FF080624FF080730F2570
:105990004FF480060E4F2062C4E90076C4E9020588
:1059A000C4E90403C4E90621C4E90900E0626163B3
:1059B00004F138002421FAF74CFE2046FEF7BAFB2A
:1059C00018B1BDE8F840FCF7DEBDF8BDD4010024F5
:1059D0000038004010B58AB068461C2100240994A4
:1059E000CDE90744FAF735FE214842F20F714FF036
:1059F00080428461C0E90024C0E902410461FFF7EC
:105A000045FB08B1FCF7BFFD194807A909940794A5
:105A1000FFF792F808B1FCF7B6FD00200490CDE93D
:105A2000010069460022602000901148FFF7D2FA79
:105A300008B1FCF7A8FD0E4869460422FFF7CAFA30
:105A400008B1FCF7A0FD0A4869460822FFF7C2FA30
:105A500008B1FCF798FD064869460C22FFF7BAFA30
:105A600008B1FCF790FD0248FFF78AFA0AB010BDB2
:105A70005C02002410B588B0164800210791CDE9DA
:105A80000511CDE9031140F2E7326323124CCDE951
:105A900001118161C0E90043C0E902120161FFF711
:105AA0008BF808B1FCF76FFD4FF48050049004A907
:105AB0000848FFF70FF908B1FCF765FD00200390D7
:105AC000019001A90348FFF737F808B1FCF75BFD27
:105AD00008B010BDA80200240004004010B5174C07
