:020000040800F2
:10000000E0A700242D0400089F550008E3520008D3
:100010009D550008DF250008556D00080000000010
:10002000000000000000000000000000DD5F00088C
:100030002D26000800000000B15C0008DF5F00080A
:100040004704000847040008470400084704000864
:100050004704000847040008470400084704000854
:100060004704000847040008470400084704000844
:100070004704000847040008470400084704000834
:100080004704000847040008470400084704000824
:100090004704000847040008470400084704000814
:1000A0004704000847040008470400084704000804
:1000B000470400085161000847040008470400088D
:1000C00047040008470400084704000847040008E4
:1000D000470400084D6D0008470400084704000865
:1000E0004704000847040008000000004704000817
:1000F00047040008470400084704000847040008B4
:1001000047040008470400084704000847040008A3
:100110004704000847040008470400084704000893
:100120004704000847040008470400084704000883
:100130004704000847040008470400084704000873
:1001400000000000000000000000000000000000AF
:100150004704000847040008470400084704000853
:100160004704000847040008470400084704000843
:100170004704000847040008470400084704000833
:100180004704000847040008470400084704000823
:100190004704000847040008470400084704000813
:1001A0004704000847040008470400084704000803
:1001B00047040008470400084704000847040008F3
:1001C00047040008470400084704000847040008E3
:1001D00047040008470400084704000847040008D3
:1001E00047040008470400084704000847040008C3
:1001F00047040008470400084704000847040008B3
:1002000047040008470400084704000847040008A2
:100210004704000847040008470400084704000892
:1002200047040008470400084704000800000000D5
:1002300047040008470400080000000047040008C5
:100240004704000847040008470400084704000862
:100250004704000847040008470400084704000852
:100260004704000847040008470400084704000842
:100270004704000847040008470400080000000085
:100280004704000847040008470400080000000075
:10029000000000004704000800F002F800F0B6F883
:1002A0000AA090E8000C82448344AAF10107DA45D1
:1002B00001D100F0ABF8AFF2090EBAE80F0013F06D
:1002C000010F18BFFB1A43F0010318476C8A0000A6
:1002D0008C8A00000A4410F8013B13F0030408BFA5
:1002E00010F8014B1D1108BF10F8015B641E05D00A
:1002F00010F8016B641E01F8016BF9D1002D15D0C7
:1003000010F8014B03F00C030C2BA1EB04040ABF03
:1003100010F8013BA4EB8314A4EB032405F10103C3
:1003200014F8016B5B1E01F8016BF9D5914238BFDF
:1003300010F8013BD1D3704700230024002500268C
:10034000103A28BF78C1FBD8520728BF30C148BF38
:100350000B6070476E2900F0B182702900F0FB83BA
:10036000662908F0E582652908F0E282672908F02D
:10037000DF82612908F0DE8203681B0A28BF41F092
:100380008001692900F05E82642900F05B82752992
:1003900000F058826F2900F08983782900F0C78324
:1003A000E92900F02383E42900F02083F52900F0F7
:1003B0001D83EF2900F08683F82900F0C6830368C7
:1003C000DB0928BF41F08001632901F0CF83732945
:1003D00001F0D483E32901F0DF83F32901F0E48302
:1003E000002070471FB508F093FA00F067FF040083
:1003F0000020002108F06EFA401C606000200021FF
:1004000008F052FAE0601FBD10B510BD01F024FEE7
:100410001146FFF7E7FF06F02DFE02F0B5F803B432
:10042000FFF7F2FF03BC02F0C7F80000094880475D
:1004300009480047FEE7FEE7FEE7FEE7FEE7FEE7C6
:10044000FEE7FEE7FEE7FEE704480549054A064BDE
:10045000704700009560000899020008E0A10024A0
:10046000E0A70024E0A30024E0A3002453EA020C48
:1004700000F069802DE9F04B4FF00006002B1FBF04
:10048000B3FA83F503FA05F424FA05F65E4012BFC9
:100490001643B2FA82F502FA05F4C5F120051EBF33
:1004A00022FA05FC44EA0C04203556EA044C4FEAD3
:1004B000144418BF641C4FF000084FF0000990422C
:1004C00071EB030C39D3002919BFB1FA81F701FA96
:1004D00007F6B0FA80F700FA07F6C7F120071EBF4B
:1004E00020FA07FC46EA0C062037B6FBF4FCA7EB23
:1004F0000507103F07F01F0BCBF120062CFA06F67C
:100500000CFA0BFB44BFB3460026202FA4BF5E4667
:100510004FF0000B5BEA060C08BF4FF0010B19EB24
:100520000B0948EB0608ABFB027C06FB02CC0BFB7D
:1005300003CCC01B71EB0C01C1E70B4602464146E0
:100540004846BDE8F08B13B5084318BF4FF0FF30A5
:100550000146AFF30080BDE81C4070477CB51D46E6
:1005600016460C00009001D02044401E074B7B44EF
:100570002A4669460190304600F0B9F905461CB19B
:100580000020694600F0C6F928467CBDAD03000096
:100590000FB400B58DB010A9099000910B904FF0E9
:1005A000FF300A9000200C900648784406900648D8
:1005B00078446A4607900F9909A800F01DFE0DB017
:1005C0005DF814FB6B0C0000830C0000032A40F262
:1005D000308010F0030C00F0158011F8013BBCF1E5
:1005E000020F624498BF11F801CB00F8013B38BFFD
:1005F00011F8013BA2F1040298BF00F801CB38BF0B
:1006000000F8013B11F0030300F02686083AC0F021
:10061000088051F8043B083A51F804CBA0E80810D0
:10062000F5E7121D5CBF51F8043B40F8043BAFF303
:100630000080D20724BF11F8013B11F801CB48BF5D
:1006400011F8012B24BF00F8013B00F801CB48BF93
:1006500000F8012B70474FF000020429C0F012800F
:1006600010F0030C00F01B80CCF1040CBCF1020F65
:1006700018BF00F8012BA8BF20F8022BA1EB0C013A
:1006800000F00DB85FEAC17C24BF00F8012B00F830
:10069000012B48BF00F8012B70474FF0000200B556
:1006A000134694469646203922BFA0E80C50A0E895
:1006B0000C50B1F12001BFF4F7AF090728BFA0E843
:1006C0000C5048BF0CC05DF804EB890028BF40F80F
:1006D000042B08BF704748BF20F8022B11F0804F51
:1006E00018BF00F8012B704730B44FF0013C50F8B0
:1006F000042BCCFA52F451F8043BD51A20D1FCB9A2
:1007000050F8042BCCFA52F451F8043BD51A17D107
:10071000B4B950F8042BCCFA52F451F8043BD51A72
:100720000ED16CB950F8042BCCFA52F451F8043BBA
:10073000D51A05D1002CDAD030BC4FF0000070473C
:1007400029BAB1FA81F111F01801D1F120008440E9
:10075000F2D1CA40CB4012F0FF0213F0FF0330BCCD
:10076000D01A704770477047704710B500F0AAFD67
:10077000006810BD10B5044600F0A4FD046010BD73
:1007800070B5044685690068C10601D5302600E0D1
:100790002026C00707D070BDD4E90121304690471C
:1007A000206A401C20626D1EF6D570BD70B50446EF
:1007B00085690078C00707D170BDD4E901212020E8
:1007C0009047206A401C20626D1EF6D570BD0968F6
:1007D0004A0501D540B27047C905FCD500B2704743
:1007E00009684A0501D5C0B27047C905FCD580B279
:1007F000704770B50C460546012A05D0287880065A
:1008000000D5EA69002302E0012305E05B1C934266
:1008100002D2E05C0028F9D1A869E618C01AA861E4
:10082000286A184428622846FFF7AAFF04E0D5E9A1
:10083000012114F8010B9047B442F8D32846FFF782
:10084000B5FF70BD2DE9F0410646002410687529FA
:10085000314616A510D0FFF7BAFF002802DA404251
:1008600013A507E031688A0701D512A502E0490700
:1008700004D511A5012401E0FFF7B2FF00210A22EF
:1008800006F1240709E0B0FBF2FCB0FBF2F302FB37
:100890001C00303078541846491C0028F3D12346F8
:1008A0002A463046BDE8F04100F071BD000000006E
:1008B0002D0000002B0000002000000011680268DD
:1008C000006A530501D508700AE0D30501D50880F8
:1008D00006E0130603D5C217C1E9000200E0086074
:1008E0000120704701694A1C02610878704700B511
:1008F0008FB0CDE901310021059105497944CDE959
:1009000003101146684600F031F90FB000BD000039
:10091000E5FFFFFF0A6802F8010B0A607047D1E9A2
:1009200000239A4202D2531C0B60107070470000E3
:100930002DE9FF5F15468A460446DFF8AC80F8448F
:100940000027D8E900103E46CDE9001010E03AF843
:1009500016106A4602A801F057FB411C07D0217807
:10096000890603D5E269391891420DD80744761CEF
:100970002078800602D5E069B84205DDAE42E6DBAC
:100980003AF816000028E2D1A069C01BA0612046F9
:10099000FFF7F6FED8E90010CDE90010002017E0BF
:1009A0003AF818106A4602A801F02EFBB0F1FF3F9A
:1009B00081460BD000250DF1080B05E0D4E901219B
:1009C0001BF8050090476D1C4D45F7D308F1010059
:1009D000B0428046E4DB206A384420622046FFF7BC
:1009E000E5FEBDE8FF9F00008E8100002DE9F0418B
:1009F0008046D21D22F007020025D2E90002F52927
:100A000015A614D0011E72F1000106DA0023D0EB06
:100A1000030063EB020211A608E0D8F800108B0770
:100A200001D50FA602E0490701D50EA60125114602
:100A3000002408F1240704E000F05BFC30323A5552
:100A4000641C50EA0102F7D12B463246214640464B
:100A5000BDE8F04100F09BBC000000002D0000004C
:100A60002B0000002000000030B4002100F124041D
:100A700008E002F00705D208303542EA4372DB088D
:100A80006554491C52EA0305F3D10468002310A2FF
:100A9000250708D504F020040C4304D0C4690123C1
:100AA0000CA2641EC46130BC00F071BC10B50446D9
:100AB00021461068FFF794FE02462046BDE810402C
:100AC0000023D1E7D21D22F00701D1E90023CBE7B3
:100AD0000000000030000000F0B40D460188090558
:100AE00002D5214C7C4402E01F4C7C440E34002192
:100AF00000F1240608E002F00F071209E75D42EA60
:100B000003721B097754491C52EA0307F3D1027898
:100B10000023120704D5702D06D009B10223113429
:100B20002246F0BC00F033BC01231034F8E770B566
:100B300004460D4621461068FFF752FE024629463C
:100B40002046BDE870400023C6E7D21D22F007030F
:100B5000D3E90023C0E70368126843F02003036071
:100B60000823C3610023B7E7F07F00002DE9F05FA1
:100B7000894604464FF0000ADFF874B1FB44C0F820
:100B800020A02046E1688847002874D0252806D098
:100B9000D4E901219047206A401C2062F1E7002639
:100BA0005F462046E16888472028054607DB312D4F
:100BB00005D2781910F8200C08B10643F1E7B00708
:100BC00001D526F00406C4F81CA00027C4F818A01C
:100BD0002A2D09D0284607F04FFD38B304EB8708CB
:100BE000303DC8F8185019E059F8041B204604EBB2
:100BF00087029161E1688847012F054618D1E069B5
:100C0000002820DA26F020061DE0D8F8180000EBB6
:100C1000800005EB40003038C8F818002046E16835
:100C20008847054607F028FD0028EED1012F0AD09D
:100C30002E2D08D12046E16888477F1C0546022FEB
:100C400046F02006C4DBA069002803DA404246F0E3
:100C50000106A061F00701D026F010066C2D0BD024
:100C6000682D09D04C2D39D06A2D35D0742D35D052
:100C70007A2D33D016E038E0E1682F4620468847C9
:100C8000B842054609D16C2F26D04FF48060E16848
:100C9000064320468847054604E06C2F1AD04FF4DF
:100CA000807006430DB3A5F14100192802D8203504
:100CB00046F400664A462946204626604E46FFF71F
:100CC00049FB80B101280BD0F61D26F0070000F18A
:100CD000080956E74020E4E78020D8E70020D6E75F
:100CE00006F104094DE7284652E7206ABDE8F09F67
:100CF000807F00002DE9FF4F06468BB00878FF2863
:100D000006D0491C2D2805D000244FF0000908E02A
:100D100000200CE00124F8E709EB8903491C00EBF3
:100D200043090878FF28F7D114B1C9F100008146C2
:100D3000107800252C46AA4629462D2801D02B28BC
:100D400004D1521C2D2813D0002082468B461078E7
:100D5000FF280FD04FF0000C0A21521CA5FB017890
:100D600004FB018105FB0C11C5194BEB0104EEE7F7
:100D70000120EAE7002108464FF00000BAF1000F19
:100D800002D000EB80004008C0F38157012F01DD45
:100D90004FF0FF370E9955EA040009EB01080BD01C
:100DA0004FF0020918F5FA7F16DA4FEACA70002FE1
:100DB000706008DD012007E04FEACA70C6E900B0A4
:100DC0000FB0BDE8F08F0020306000F07BFAC0F873
:100DD00000901821084616E0B8F5FA7F18DD002FBC
:100DE00002DAF748784401E0F6487844D0E9001088
:100DF000C6E9001040EACA70706000F063FAC0F8FB
:100E00000090142108460FB0BDE8F04F07F08DBDEB
:100E1000002108464FF00000B8F10001099002DA05
:100E2000C7F1000200E03A4601DAC8F1000106A865
:100E300001F078F806AB93E8070003AB83E80700FE
:100E400044F23E005BEA04010090584604D144F2AB
:100E50001E012C465D460091210C0904014306D178
:100E60000099240444EA15442D041039009104F03B
:100E70007F41014306D10099240244EA15642D0202
:100E80000839009104F07041014306D10099240112
:100E900044EA15742D01091F009104F040410143FB
:100EA00006D10099A40044EA9574AD00891E009112
:100EB00004F00041084304D100986D196441401EBC
:100EC00000904FF001033A466846B8F1000FCDE9B3
:100ED000014503A902DD06F0D2FC01E006F0A5FC05
:100EE000BAF1000F04460D4601D084F00044002101
:100EF00008464FF00000099940F2FF77484010F093
:100F00000C0F07D124F00040284303D0C4F30A504B
:100F1000B84212D100F0D6F9C0F80090C4F30A50DC
:100F2000B8420AD1A8487844D0E90010C6E90010B8
:100F300004F000410843706042E7C6E900543FE70F
:100F40002DE9FF4F1F464FF0000A4FF0FF3845468E
:100F500091B0D7E90146CDF83CA000F0AFF9C068E8
:100F60000168405C1090B96912986D1C8847396A15
:100F7000814688470028F6D1B9F1FF3F0AD0002EFC
:100F800024F4D06411DDB9F12B0F08D0B9F12D0F85
:100F90000BD102E0404615B013E744F48064B96910
:100FA00012986D1C8847761E8146600504A901D5FC
:100FB0002D2000E02B20002E01F1010B0DF1300857
:100FC0008DF810003FDDB9F1690F08D0B9F1490F74
:100FD00005D0B9F16E0F02D0B9F14E0F1CD13B46CE
:100FE00001A8009580E85002DDE912126FF00200BE
:100FF00007F006FDC11CCED10EE0B96912986D1C38
:10100000884781461398761E44F4007405600F9853
:10101000401C002E0F9016DDB9F1300FEDD0B9F164
:10102000780F02D0B9F1580F0DD10F9801280AD1CD
:101030003B46CDE90054DDE91212001F029607F08D
:10104000DDFCC11CA7D1109989453ED144F0800434
:1010500006E01399681CAAF1010A44F400740860C0
:10106000B9696D1C1298761E884730288146F0D0E9
:101070002BE01099894505D1200603D4761E44F053
:10108000800418E0484607F0F7FA08B3761E0DF121
:1010900023029345A9F1300044F4007406D20BF802
:1010A000010B200607D5AAF1010003E0200602D4B7
:1010B0000AF101008246A00502D51399681C086058
:1010C000B96912986D1C88478146002ED1DC53E027
:1010D000002E51DDB9F1650F02D0B9F1450F4BD1AA
:1010E000A00549D5B9696D1C1298761E24F4407488
:1010F0008847002E81460CDD2B2804D0B9F12D0F36
:1011000007D144F48074B96912986D1C8847761E23
:101110008146E00501D52D2100E02B2108F8011BB7
:10112000CDF8008021E0761E0DF13901884544F4A8
:1011300000740CD2A9F1300010F0FF0088F8000014
:1011400002D10099884509D908F1010806E0E005B7
:1011500001D51E4801E042F20F708246B96912982B
:101160006D1C8847814613980560002E04DD4846B3
:1011700007F082FA0028D6D1F96912988847FF2033
:1011800053468BF8000088F8000000200A900B906E
:1011900004AA0CA90AA8FFF7ADFDA00502D46FF0C0
:1011A0000100F8E614F0240F12D0E0071CD13868D3
:1011B000DDE90A12031D3B600068C0E9001213E07C
:1011C000787F00006A7F00002E7E0000F1D8FFFFCC
:1011D0000AA9684607F0F4F9E00705D13868009AD3
:1011E000011D3960006802602846D4E60268114497
:1011F0001378016018467047D16005497944516100
:1012000004497944116200211161114600F0D0BCFB
:10121000EDFFFFFF77010000426842B1016811F85D
:10122000013B23B1521EC0E900121846704701214C
:10123000C160881E704742685AB1C368016843B9EB
:1012400083688B4205D0491E521CC0E90012002061
:1012500070474FF0FF30704710B5203AC0F00B8058
:10126000B1E81850A0E81850B1E81850A0E818509C
:10127000203ABFF4F5AF5FEA027C24BFB1E8185012
:10128000A0E8185044BF18C918C0BDE810405FEA74
:10129000827C24BF51F8043B40F8043B08BF7047F0
:1012A000D20728BF31F8023B48BF11F8012B28BFF5
:1012B00020F8023B48BF00F8012B704700487047F8
:1012C000009D002400487047E09C0024B2F12003F8
:1012D0000AD5C2F1200301FA02F120FA03F341EA30
:1012E000030100FA02F0704700FA03F14FF000002A
:1012F000704730B5B0F10A0271F100034FEA900E69
:101300004EEA817EB0EB0E0061EB91014FEA101EB8
:101310004EEA017E10EB0E0041EB11114FEA102E48
:101320004EEA016E10EB0E0041EB11214FEA104E18
:101330004EEA014E10EB0E0041EB1141401841F115
:1013400000014FEAD00040EA41704FEAD1014FEA74
:10135000810444EA907410EB800544EB01046D199C
:1013600044EB0404521BA3414FF0000348BF0A3270
:1013700000D530BD401C41F1000130BD10B5044620
:1013800000F090FE0068005D00F0010010BD2DE946
:10139000F0470D4699469246044600F1240801683C
:1013A000880604D5E06921F01001216000E00120E9
:1013B000A84201DD471B00E00027A1697A1902EB72
:1013C0000900081AA0612078C00602D42046FFF761
:1013D000D7F9002608E0D4E901211AF80600904761
:1013E000206A401C761C20624E45F4DB2078C00643
:1013F0000AD52046FFF7C4F906E0D4E901213020E0
:101400009047206A401C2062381EA7F10107F4DCD7
:1014100007E0D4E9012118F805009047206A401C34
:101420002062281EA5F10105F3DC2046FFF7BEF976
:101430002078000602D50220BDE8F0870120FBE7F6
:101440002DE9FF4F0C461E464FF0FF378BB0D2E917
:101450000001DDF860800A908A46C1F30A5505B99B
:101460003D46002108464FF00000BAF1000F00F49D
:10147000400005DA00EB80004FF4400101EA500023
:101480004FEA9059B9F1010F00DDB9460A9850EAC8
:101490004A000ED044F61050A5F2FF3545432F14F4
:1014A000B8F1000F1ED07542291E1EDDC9F10002E1
:1014B0001CE0B8F1010F4FF0000001D0302103E033
:1014C000F24305E02154401CB042FBDB30460022D1
:1014D000002121540B99C1F80880C1E900200FB008
:1014E000BDE8F08FBD1B6D1CDEE74A4600DA69429D
:1014F00006A800F017FD06AB93E8070003AB83E8EE
:10150000070050460A9905F0BDFE8DE80700A0F5DA
:1015100000501F3800900398002D0ADD42F21F0191
:101520004A460844002303A90390684606F068F978
:1015300009E0A0F500504A461F38002303A9039094
:10154000684606F087F98DE807000004000C03D018
:101550004FF0FF30410800E01046B8F1000F03D013
:101560000022009215461EE0751E05D4FFF7C1FE4D
:10157000303262556D1EF9D5B3460122084302D0C0
:1015800000227F1C04E02078302801D100227F1E39
:10159000002A099784D01DE0112D07DAFFF7A9FE74
:1015A000303262556D1C50EA0102F5D1084302D079
:1015B0000098C8B10EE00021681E05E0235C625C63
:1015C00063542254401E491C8142F7DBAB46A81BE2
:1015D000401E0990002004F80B000B98099AC0F8EF
:1015E0000880C0E9002B7AE711264FF0000857E782
:1015F0002DE9F04F88460446D21D22F0070191B034
:10160000D1E90001CDE90A0106F02CFB02460B9856
:10161000C00F01D02D2007E02068810701D52B20C5
:1016200002E0202101EAC000032A099001D0072A24
:1016300005DB03464146204600F03CFD0BE12078E7
:10164000800601D5E06900E00620B8F1650F81460B
:1016500006D0B8F1660F18D0B8F1670F70D131E03D
:101660000020B9F1110F009001DB112301E009F115
:1016700001030AAA01A90CA8FFF7E2FEDDE90C703C
:10168000002609F10105834647E001204B46009002
:101690004FF000470AAA01A90CA8FFF7D1FEDDE927
:1016A0000DB00C995D46002610B909F101000D1826
:1016B000B9EB050003D4C0F1FF3609F10105A5EB34
:1016C00009002BE0B9F1010F01DA4FF00109002008
:1016D000B9F1110F0090484601DD112300E00346E7
:1016E0000AAA01A90CA8FFF7ABFEDDE90C704D4674
:1016F00000268346207800070AD4AB4500DA5D4611
:1017000001A8012D04DD411911F8011C302907D071
:101710004F4502DA17F1040F04DA012082460FE088
:101720006D1EEEE7002F02DCED1B3E4403E0781C4B
:10173000A84200DD7D1CB81B00F1010A4FF00047F4
:101740002078000703D4AA4501DB4FF0FF3A0021BF
:10175000B7F1004F0DF143088DF8431024D002205B
:101760002B23002F01DA7F422D230A21021EA0F134
:10177000010000DC5FB197FBF1FC97FBF1F201FB8C
:101780001C7C17460CF1300C08F801CDEEE7A8F1EF
:10179000010003702188090501D5452100E065217C
:1017A000A0F1010800F8011C09980FA9A1EB080796
:1017B000FF1D00B10120411901EBEA70A169384415
:1017C000081A401EA0612078C00602D42046FEF709
:1017D000D7FF099828B1D4E901219047206A401C1D
:1017E00020622078C00622D52046FEF7C9FF1EE001
:1017F000002E04DBB34502DD01A8805D00E030204F
:10180000D4E901219047206A401C2062761CAAF18D
:1018100001005FEA000A0AD1FFF750FDC0680168C5
:10182000405CD4E901219047206A401C2062281EB8
:10183000A5F10105DCDC07E0D4E9012118F8010B72
:101840009047206A401C2062381EA7F10107F3DC94
:101850002046FEF7ABFF032011B041E62DE9F04F23
:1018600004460D46D21D22F0070089B0D0E900974A
:101870004846394606F0F6F90246F80F01D02D2306
:1018800007E02068810701D52B2302E0202101EA2F
:10189000C0038DF820300BB1012000E00020032AA6
:1018A000824601D0072A04DB2946204600F002FCCC
:1018B0003FE12078800601D40D2500E0E569C7F3FB
:1018C0000A560D2D49DA00214FEA175B08464FF002
:1018D0000000002F00F4400007DA00EB80004FF416
:1018E000400100EBD07001EA60008115012901DDA3
:1018F0004FF0FF3100224FEA850CBCF1180F06D3E0
:101900001346ACF118004FF08052C24003E04FF490
:10191000801323FA0CF30CF10C0CBCF1200F04D350
:10192000ACF1200C09FA0CF001E007FA0CF00029E8
:101930004FF0004801DD18B90FE00ED140450CD33F
:1019400019EB02095F4121B9404502D19F4329EAC1
:101950000209BBEB175F00D0761C2088000502D57A
:101960007B48784402E07A487844193808AA302342
:1019700002F80A30037C0AF10101002E0AF1020A82
:1019800053546A4602DC4FF0300101E04FF0310160
:101990004FF001088DF8001002D0A6F2FF3603E0E8
:1019A00059EA470100D06B4E002D02DC217809076F
:1019B00004D54FF002082E218DF80110C4460021F5
:1019C0000BE0C7F303433F01C35C491C6D1E02F8E3
:1019D0000830052908F1010801DA002DF1DC0021A9
:1019E0000CE000EB1973491C1B786D1E082902F8E6
:1019F00008304FEA091908F1010801DA002DF0DC7E
:101A000021688B0602D516E0A8F10108E04505DD46
:101A100002EB080313F8013C302BF5D0B8F1000FAE
:101A200009DD02EB080313F8013C2E2B03D1090753
:101A300001D4A8F10108002D05DD3E2102F80810AF
:101A40006D1E08F10108407C002E02F8080008F124
:101A5000010804DA2D20764202F8080002E02B206B
:101A600002F808000A214FF47A70864208F1010852
:101A70000BDB96FBF0F3303302F8083096FBF0F303
:101A800008F1010800FB136601E0642E0CDB642002
:101A900096FBF0F3303302F8083096FBF0F308F1D0
:101AA000010800FB136601E00A2E06DB96FBF1F04D
:101AB000303002F8080008F1010896FBF1F001FB54
:101AC0001060303002F80800A16908F1010808EB45
:101AD000050202EB0A00081AA0612078C00602D4B1
:101AE0002046FEF74DFE216A08AE01EB0A00206297
:101AF00004E0D4E9012116F8010B9047BAF1010A7C
:101B0000F7D22078C00602D52046FEF739FE6E4691
:101B100009E016F8010B3E280FD0D4E901219047C7
:101B2000206A401C2062B8F10108F2D22046FEF77C
:101B30003DFE09B00320BDE8F08F206A28442062F2
:101B400003E0D4E90121302090476D1EEBD3F8E784
:101B5000ED72000002FCFFFF10B5436913B1AFF353
:101B6000008001E0FEF745FE012010BD127800F173
:101B700024010A7000224A700122EDE711684FF03B
:101B8000FF32E9E710B5436913B1AFF3008001E01C
:101B9000FEF7CEFE012010BD128800F124018284E0
:101BA0000022C2840122EDE711684FF0FF32E9E71D
:101BB0002DE9F34F4FF0000A0C4656468DB0012038
:101BC0000C9001F10C000B9062690B980121904779
:101BD000051E2DD0252D2CD0216A8847C0B1626901
:101BE0000B9801219047216A88470028F7D1626944
:101BF000411E0B98904700E0761CA1690D9888471C
:101C0000216A88470028F7D1E1690D988847DBE70A
:101C1000A1690D988847A842074601D1761CD3E7F1
:101C2000E1690D9888477F1C02D1BAF1000F6FD08F
:101C30006BE162690B9800273D46394690472A2898
:101C400004D162690B98012190470125DFF8D08209
:101C500062690B9801219047A0F130010A290AD24C
:101C60004745E5DC07EB870100EB4107303FDFD458
:101C700045F01005ECE7E90601D46FF000476C2849
:101C80000AD04C2814D0682815D06A280DD07428A2
:101C90001CD07A281AD01DE062690B980121904768
:101CA0006C2802D045F0040514E045F002050DE073
:101CB00045F020050AE062690B98012190476828E9
:101CC00002D045F0080505E045F4006562690B980F
:101CD00001219047C4E9015765283DD019DC5828F7
:101CE0007AD00CDC452837D004DC252826D04128C2
:101CF0009ED131E046282FD0472899D12CE05B288F
:101D000077D0612828D063287CD0642823D15AE07A
:101D1000F6E06F2848D008DC66281DD067281BD065
:101D2000692821D06E2816D127E0702845D0732865
:101D300068D0752847D078280DD14DE0A1690D985D
:101D40008847252805463FF469AFE1690D98884723
:101D50006D1C3FF46AAFD8E00D9923466A466FF0D8
:101D6000010006F049FEC5E045F0400023464FF073
:101D700000026060A80736D43EE0E8077FF447AF72
:101D80002068011D21600068290501D506701BE748
:101D9000290701D5068017E7A90703D5F117C0E980
:101DA000006111E706600FE745F0400023464FF061
:101DB00008026060A80716D41EE040F60E0125EA6E
:101DC0000100606016E045F0400023464FF00A0233
:101DD0006060A80707D40FE045F040006060A807E6
:101DE00008D5234610220D996FF00100AFF3008053
:101DF00080E007E0102223460D996FF00100AFF359
:101E0000008077E04FF0000963284F46C8464B46F4
:101E1000CB4602D05B2806D038E0E80601D401208A
:101E2000A060012732E06269D4F80CB00B98012160
:101E300090475E2807D14FF0010949466269D4F8FE
:101E40000CB00B989047216939B900210A4603ABC1
:101E500043F82120491C0829FADBD8B3216949B38A
:101E600008F1010862690B98012190475D28F4D1BF
:101E7000B9F1000F09D0002003A951F82020D24366
:101E800041F82020401C0828F7DB03AB206900281C
:101E900020794FEA40701ED05B462246CDF8008084
:101EA000CDE901970D9900286FF0010020DAAFF31A
:101EB00000801FE0C11703AA00EBD1614B1121F094
:101EC0001F0102EB8302411A13680120884003437B
:101ED0001360C7E719E00D99224600286FF0010052
:101EE000009702DAAFF3008004E0AFF3008001E076
:101EF000AFF3008000280ADA401C06D10C9820B10C
:101F00004FF0FF300FB0BDE8F08F5046FAE7E90719
:101F100001D10AF1010A064400200C9054E60000A9
:101F2000CCCCCC0C2DE9F047814616468AB035481A
:101F300078440DC88DE80D0032487844801C03AC0D
:101F40000DC884E80D0041F69B300844372190FB12
:101F5000F1F290FBF1F5A5F1800501FB12041B3CA9
:101F600002D56442012000E00020DFF898A08046FE
:101F70000027FA44AAF1BE0A0EE0E0070AD0324672
:101F8000684607EB470101230AEB810105F062FC7B
:101F90008DE8070064107F1C002CEED1194F7F44A0
:101FA000AE3F19E0E80715D007EB04100DF1180A51
:101FB00090E80E008AE80E00C068F04201D198193E
:101FC00008903246012306A903A805F043FC03ABA1
:101FD00083E807006D10641C002DE3D14FF001036E
:101FE00032466946B8F1000F03A802D005F008FC9C
:101FF00001E005F02FFCC9E90001C9F808200AB08A
:10200000BDE8F087B06D00002DE9F04116460C46A2
:10201000054600F047F8036893F80101012807D04E
:10202000FF2C12D8185D80B101202C70BDE8F08122
:10203000D3F807013246214603F20713C718284692
:10204000BC46BDE8F041002360474FF0FF30EDE7AC
:1020500000487047E09C00247546FFF7F9FFAE4644
:1020600005006946534620F00700854618B020B5A4
:10207000FEF7EAF9BDE820404FF000064FF00007F8
:102080004FF000084FF0000BAC46ACE8C009ACE8DC
:10209000C009ACE8C009ACE8C00921F007018D46D1
:1020A0007047000010B5FFF709F9001D10BD00BF13
:1020B000256800002DE9F0411F460446032601680B
:1020C000072A01F4006004DB08B116A505E016A597
:1020D00003E008B115A500E015A521F0100020606F
:1020E000A069C01EA0610FB1401EA0612046FEF78E
:1020F00047FB4FB1D4E9012138469047206A401C84
:102100002062C01C206206E0206AFAE7D4E90121BF
:1021100015F8010B9047761EF8D22046FEF746FBD5
:10212000BDE8F0814E414E006E616E00494E4600A2
:10213000696E66002DE9FF4F1F464FF03C0987B0DE
:102140004FF00042DDE9141001F10108DDF858A05C
:1021500002EA40500390002005908346054604465D
:102160000490B969461E08988847AAF1010A0290AE
:10217000BAF1000F3BDD02982E2815D0102100F097
:102180000CFA00282EDB4FF0010B0599014317D004
:10219000B9F1000F0BDB4A46C117FFF797F805436B
:1021A0000C43A9F1040905E0012004900BE008B1FB
:1021B00045F0010501200590049820B9361D02E084
:1021C000049800B1361FB969089808F101088847DA
:1021D000BBF1000FAAF1010A0290C9D00999C1F818
:1021E0000080C5E70298702808D0502806D0F96909
:1021F00008988847BBF1000F14D04FE000200290F0
:102200000120BBF1000F049009D0B969089808F1CA
:1022100001088847AAF10109B9F1000F07DCF96943
:10222000089888476FF001000BB0BDE8F08F2B28AD
:1022300004D02D280CD14FF0FF300490B9690898D4
:1022400008F101088847A9F10109B9F1000FE6DD9D
:10225000411CE4D00A2100F0A0F90028DFDB02993C
:1022600008F1010801EB810100EB41000290B9691E
:10227000089888470A2100F090F9099AA9F1010904
:10228000B9F1000FC2F8008001DD0028E7DAF96932
:10229000089888470499029800FB016655EA0400F3
:1022A00004D004F04041090002D006E0039898E011
:1022B000A40044EA9574AD00B61E04F00041080085
:1022C00002D16D196441761E159810F0240F03D0C9
:1022D0004FF00B095C4803E04FF028096FF07D00D8
:1022E0008246564507DAAAEB06018944B9F1410F47
:1022F00001DD4FF0410901200021A9F10102FEF7A3
:10230000E5FF024628400B462140084301D0012149
:1023100000E00021501E029143F1FF31284021408E
:10232000084301D0012000E000200299834651EAD1
:102330000B014FD0002108464FF00000039900F434
:10234000400039B100EB80004FF4400100EBD07049
:1023500001EA60008015012802DD4FF0FF3000E047
:1023600013D0401C36D0029860B3BBF1000F0CD1E3
:102370004A4601200021FEF7A9FF284021400843DA
:1023800001D0012000E00020E0B101204A460021F8
:10239000FEF79CFF034640190A4661412D1A8C4105
:1023A00011D3B9F1400F09DD159810F0240F02D0B8
:1023B000AAF1340603E0AAF1170600E0761C002516
:1023C0004FF0004406E05B1E42F1FF3220EA0305B5
:1023D00021EA0204CAF10100B04206DA1B4903985F
:1023E00008430190002000900EE0039AC4F3D3212B
:1023F000E80A0A43164940EA44500A433146CDE907
:102400000002684606F0E5F8159810F0240F0BD08E
:102410001598C00715D13868DDE90012031D3B602F
:102420000068C0E900120CE002A8694606F0C8F88E
:102430001598C00705D13868029A011D39600068F7
:1024400002604046F0E6000002FCFFFF0000F07F63
:102450000000F03F2DE9FF4F92461D4685B04FF03A
:102460000041DDE9124BDDE914727F1E01EA4B5099
:10247000414940F0FF4940EA0108002122F02000D4
:102480004928049102D04E2828D04CE03BA00126D8
:1024900007C88DE80700A9690698641C88477F1E55
:1024A000014606D41DF8060018B121F02001814232
:1024B0000BD0E96906988847032E34D0082E32D015
:1024C0006FF0010009B0BDE8F08F761C032E01D03B
:1024D000082EE0D1601CCAF80000DCE7A969069864
:1024E000641C88477F1E2AD420F02000412826D172
:1024F000A9690698641C88477F1E20D420F020001C
:102500004E281CD1A9690698641C88477F1E48F490
:10251000002849F48009CAF8004001D4282806D0D0
:10252000E969069888475FEACB7012D022E0A96972
:102530000698641C88477F1E01D4002803DAE969E5
:1025400006988847BCE72928F1D1641CCAF80040E6
:10255000E9E71BF0240F07D028680499031D2B60BE
:102560000068C0E9001805E02868021D2A600068BC
:10257000C0F800902046A5E70000F07F494E46498C
:102580004E4954590000000010B50446AFF30080D6
:102590002046BDE81040FDF742BF3A2800D230384F
:1025A00020F02002412A01D3A2F13700884201D352
:1025B0004FF0FF307047000001491820ABBEFEE726
:1025C00026000200704790ED0A1A90ED0B0AB4EE57
:1025D000401AF1EE10FAC8BF80ED0A0A7047FEE714
:1025E00090ED0C1A90ED090A2948B1EE412AB4EE9B
:1025F000410AF1EE10FA80FE022A31FE020A91ED44
:102600000C1AB1EE412A80ED060A80ED020A91ED26
:10261000090AB4EE410AF1EE10FA80FE022A31FEF8
:10262000020A80ED040A80ED000A7047704700003E
:10263000044C05A5EFF3108072B62046294604F03D
:10264000A1FBFAE7C4A000244552524F52210D0AC3
:1026500000000000B0B50E480125041D052D08BF7F
:10266000B0BD14ED010AB5EE400AF1EE10FA03DA3E
:10267000B1EE400A002100E001212170BCEEC00A49
:10268000E8B210EE102A04F089FD08340135E5E7C0
:10269000589D0024F8B5044600F02EFB002C00F0F5
:1026A0009880054694F83500022840F08D80276810
:1026B000A64EB74224D0A64887421CBFA5488742F1
:1026C0001ED0A54887421CBFA448874218D0A44802
:1026D00087421CBFA348874212D0A34887421CBF31
:1026E000A24887420CD0A24887421CBFA14887421B
:1026F00006D0A14887421CBFA048874240F0EB802B
:10270000386820F01E01384640F8141B6FF0800135
:10271000026811400160B7423CD08D4887421CBF1F
:102720008C48874236D08C4887421CBF8B488742F2
:1027300030D08B4887421CBF8A4887422AD0F44851
:1027400087421CBFF348874224D0F34887421CBF0E
:10275000F24887421ED0F24887421CBFF1488742A8
:1027600018D0F14887421CBFF148874212D0EF4889
:1027700087421CBFEF4887420CD0EF4887421CBFFE
:10278000EE48874206D0EE4887421CBFED4887429C
:1027900040F0C480206E016821F4807101603868C7
:1027A00020F0010038603868C00714D000F0A4FAA7
:1027B000401B0628F7D320206065002084F83400F1
:1027C000032084F8350004E0002084F834008020E1
:1027D00060650120F8BD2068B04223D0C649884218
:1027E0001CBFC64988421DD0C54988421CBFC54987
:1027F000884217D0C44988421CBFC449884211D0BE
:10280000C34988421CBFC34988420BD0C249884291
:102810001CBFC249884205D0C14988421CBFC1497A
:10282000884268D1D4E916123F2302F01F0203FA4E
:1028300002F28A60B0423BD0AF4988421CBFAF4928
:10284000884235D0AE4988421CBFAE4988422FD05D
:10285000AD4988421CBFAD49884229D0AC49884265
:102860001CBFAC49884223D0AB4988421CBFAB494E
:1028700088421DD0AA4988421CBFAA49884217D065
:10288000A94988421CBFAA49884211D0A749884259
:102890001CBFA84988420BD0A74988421CBFA74942
:1028A000884205D0A64988421CBFA649884242D129
:1028B000E06ED4E919124A6030B1016821F48071E8
:1028C0000160D4E91C014160012084F8350000203A
:1028D00084F83400F8BD944887423FF411AF934820
:1028E00087423FF40DAF924887423FF409AF6FF043
:1028F0000E0138460CE78C49884293D08B498842B8
:1029000090D08B4988423FF48DAFD4E91612012351
:1029100002F01F0203FA02F24A608BE78A488742FC
:102920003FF438AF894887423FF434AF8848874244
:102930003FF430AF33E784498842B9D083498842B5
:10294000B6D083498842B3D0BEE700BF1000024032
:10295000280002404000024058000240700002403F
:1029600088000240A0000240B8000240100402406B
:10297000280402404004024058040240700402400F
:10298000B0B500285CD090F83510022956D1016806
:10299000584A914223D0584B99421CBF574B9942F9
:1029A0001DD0574B99421CBF564B994217D0564BDE
:1029B00099421CBF554B994211D0554B99421CBFAF
:1029C000544B99420BD0544B99421CBF534B9942E4
:1029D00005D0534B99421CBF524B994233D104232B
:1029E00080F83530914223D0434881421CBF434890
:1029F00081421DD0424881421CBF4248814217D0CB
:102A0000414881421CBF4148814211D04048814227
:102A10001CBF404881420BD03F4881421CBF3F4809
:102A2000814205D03E4881421CBF3E4881424DD183
:102A3000086820F001000860002102E08021416563
:102A400001210846B0BD384B9942C8D0374B994256
:102A5000C5D0374B9942C2D00A6822F00E020A60F4
:102A60000A6822F001020A60324A91420BD0324ACF
:102A700091421CBF314A914205D0314A91421CBF5C
:102A8000304A91422BD100F158041ECC1D6825F428
:102A900080751D6002F01F02012303FA02F24A60F2
:102AA000816E6160C16E31B10A6822F480720A6081
:102AB000D0E91C124A60012180F835100021026D16
:102AC00080F83410002ABCD09047B5E71648814200
:102AD000AED016488142ABD015488142A8E71A4AC9
:102AE0009142D0D0194A9142CDD0194A9142CAD0D0
:102AF000E1E700BF10000240280002404000024011
:102B0000580002407000024088000240A0000240CD
:102B1000B800024010040240280402404004024071
:102B2000580402407004024088040240B804024085
:102B3000A0040240085402581C5402583054025851
:102B400044540258585402586C5402589454025831
:102B5000805402582DE9F84F594A4FF00A0A4FF0B5
:102B600000084FF0010B4FF0000C9042554A08BF8F
:102B70004FF0090A02444FEAB223092B38BF4FEA4B
:102B8000B22A00220D6835FA02F600F097800BFA9F
:102B900002F715EA070900F084804E68122E00F251
:102BA00086800BFA06F414F0061F00F080800323E1
:102BB00003FA0CF48368CD68A34305FA0CF56FEAB9
:102BC000040E2B43836033094568BD43934057008F
:102BD0002B434360C3688C6803EA0E03BC40234365
:102BE000C36046F01003122B11D16FF0030508F0FB
:102BF0001C030F2405EA52059C4005442E6A26EA70
:102C000004040E6906FA03F323432B624E6803683B
:102C100006F0030403EA0E03BC4023430360F30001
:102C20003FD56A4C294F4FF0B04E236843F0020362
:102C3000236023680F2403F002030093009D08F033
:102C40000C0322F003059C400AFA03F3EE5926EA2E
:102C500004042343EB511C4FFB6F4D6843EA090406
:102C6000EE0358BF23EA0904FC67AE03D7F88030AF
:102C700043EA090458BF23EA0904C7F88040EE027A
:102C8000DEF8003043EA090458BF23EA0904CEF80D
:102C90000040AD023B6843EA090458BF23EA090437
:102CA0003C6008F104080CF1020C01326AE70323CE
:102CB000674603FA0CF46FEA040E8BE7BDE8F88F61
:102CC000002402580000FEA7040000580804005821
:102CD000426902EA0103914341EA0341816170477D
:102CE000002A08BF0904816170470000014800689C
:102CF000000C70470010005C05480068704700BF7A
:102D00002848034900780A6810440860704700BFEB
:102D1000DCA1002480B5032000F084F800F036FE2A
:102D20000E495E4B0A68096801F00F01C2F30322E5
:102D3000595C9A5C01F01F0102F01F02D0401A4A50
:102D40001060C84006490860002000F00BF808B188
:102D5000012080BD00F02AF8002080BD18440258F0
:102D60000C00002470B50F4E04463078B0B14FF41B
:102D70007A71B1FBF0F00C490968B1FBF0F001F099
:102D8000BBFC01250F2C0AD848B94FF0FF30214673
:102D90000022002500F02AF8746000E00125284692
:102DA00070BD00BF000000240800002481B0074867
:102DB000016841F002010160006800F0020000902B
:102DC0000098052001B000F02DB800BFF44402586F
:102DD000002808D400F01F010122400902FA01F185
:102DE000014A42F82010704700E100E070B5134B33
:102DF0004FF0FF351B68C3F30223DC1E83F007038B
:102E000038BF002405FA04F6B243042B28BF04237C
:102E100005FA03F39943A1401143BDE8704003F064
:102E2000D5BF00BF05494FF6FF030A681A4060F39B
:102E30000A22034810430860704700BF0CED00E011
:102E40000000FA05B0B50F4D2A682968520705D46D
:102E500001F00701081A18BF0120B0BD21F00701D9
:102E6000084302F02CFC044655F8080C800406D4F4
:102E7000FFF742FF02F0D2FBF6D90120B0BD0020DF
:102E8000B0BD00BF0C48025880B500F049FD0249B2
:102E9000024A02F07ABC00BF20440258FC8C0008B1
:102EA000B0B51C498B6A8A6ACC6ACD6BC2F3053215
:102EB000B2B1C4F3001402F08EFE15D0BBB90B689A
:102EC0009B0651BF9FED161A0B68C3F3C103154C47
:102ED00042BF24FA03F301EE103AB8EE411A08E0BB
:102EE0000021C0E9001112E09FED0C1A01E09FEDF6
:102EF0000A1A8B6B9FED0C3A02F024FE8A6B02F0EB
:102F000076FB8A6B02F05EFD896B02F0BAFC816091
:102F1000B0BD00BF004402580024744A20BCBE4B20
:102F20000024744C0090D00300000039B0B51C4957
:102F30008B6A8A6ACC6A4D6CC2F30552B2B1C4F393
:102F4000002402F048FE15D0BBB90B689B0651BFA8
:102F50009FED161A0B68C3F3C103154C42BF24FA48
:102F600003F301EE103AB8EE411A08E00021C0E97F
:102F7000001112E09FED0C1A01E09FED0A1A0B6C94
:102F80009FED0C3A02F0DEFD0A6C02F030FB0A6C99
:102F900002F018FD096C02F074FC8160B0BD00BF46
:102FA000004402580024744A20BCBE4B0024744CD8
:102FB0000090D003000000392DE9F0470446C078A6
:102FC000A74F00071CD5606E4FEA3051032908D87F
:102FD000DFE801F002090C11F96941F40031F961EF
:102FE00009E001260DE002F0E7FB01E002F03EFD02
:102FF000064630B9606E396C21F4401108433864DC
:1030000000266078BA46C00701D1354620E0606DE1
:1030100004280BD83546DFE800F0030C0F1212002D
:10302000F869354640F40030F86108E001250127D1
:103030000FE002F0B4FD01E002F071FB05462F46FF
:103040003DB9606D02F099FB21F0070102F0F3FB3E
:103050003746607880071ED5A06D4FEAB01004286F
:1030600007D8DFE800F003090C0F0F0002F01FFB88
:1030700008E0012501260FE002F091FD01E002F0D9
:103080004EFB05462E463DB9A06D02F076FB21F4BD
:10309000E07102F0D0FB3E466078400702D4B046B3
:1030A000574623E0D4F8A40057464FEA705004284E
:1030B00007D8DFE800F0030A0D10100002F0ADFBA6
:1030C00009E001254FF0010810E002F068FD01E081
:1030D00002F025FB0546A84645B9D4F8A400B96C12
:1030E0000025B04621F460010843B8646078000709
:1030F00020D5D4F8A8004FEA3060042807D8DFE8CC
:1031000000F003090C0F0F0002F087FB08E0012517
:10311000012710E002F043FD01E002F000FB05464C
:103120002F4645B9D4F8A80002F016FB21F0E06163
:1031300002F061FB4746E07880071DD5A06C4FEA9E
:103140003010032806D8DFE800F00B02080B02F06D
:10315000AEFA05E0012501260FE002F02DFB054641
:103160002E4655B9A06CDAF83C100025524621F0E5
:1031700030010843CAF83C003E466078C0061ED5C0
:10318000E06D4FEA3030042807D8DFE800F003098B
:103190000C0F0F0002F08BFA08E0012501270FE069
:1031A00002F0FDFC01E002F0BAFA05462F463DB9F7
:1031B000E06D02F0E2FA21F4E04102F03CFB374618
:1031C000607880061BD5206E4FEA3040052807D86E
:1031D000DFE800F00C03090C0C0C02F0AFFA04E07D
:1031E000012501260CE002F023FD05462E463DB9DF
:1031F000206E02F0C2FA21F4E02102F01CFB3E46F0
:10320000607840061DD5D4F8AC004FEA3070052830
:1032100007D8DFE800F00C03090C0C0C02F08EFA62
:1032200004E0012501270DE002F002FD05462F46CE
:1032300045B9D4F8AC0002F08FFA21F0E04102F079
:10324000DAFA37466078000618D5E06E68B1B0F15A
:10325000005F07D0B0F1805F22D102F028FA04E0CD
:103260001044025802F06AFA05462E463DB9E06E57
:1032700002F083FA21F0405102F0DDFA3E46E07898
:10328000C00702D1B04657461EE0606C574603287F
:1032900009D8DFE800F00F020C0F02F0BEFA09E0D7
:1032A00001250126EBE701254FF001080CE002F0B3
:1032B00083FA0546A8463DB9606CF96B0025B04617
:1032C00021F003010843F863A078400601D4474683
:1032D00016E0D7F8F00340F48070C7F8F003FFF76A
:1032E0000BFD0646D7F8F003C00507D4FFF704FD31
:1032F000801B6428F6D90325032701E02F467DB102
:103300002078C00746D0A06F4FEAF000052832D8D9
:10331000DFE800F037033437373702F00FFA2FE0D9
:10332000DAF86010D4F8B0005546414011F4407FFF
:103330000BD0296E2A6E42F480322A6621F4407145
:103340002A6E22F480322A662966B0F5807F40F02A
:10335000C981FFF7D1FC064641F288390327DAF824
:103360006000800700F1BB81FFF7C6FC801B0325CE
:103370004845F4D9C4E7012501260CE002F058FCC9
:1033800005462E463DB9A06F02F021FA21F0380122
:1033900002F0A3FA3E462078800719D5606F052811
:1033A00007D8DFE800F00C03090C0C0C02F0C6F99A
:1033B00004E0012501270CE002F03AFC05462F4607
:1033C0003DB9606F02F003FA21F0070102F085FABF
:1033D0003746207840071BD5D4F89000052807D839
:1033E000DFE800F00C03090C0C0C02F0A7F904E074
:1033F000012501260DE002F01BFC05462E4645B9CD
:10340000D4F8900002F0A8F921F0070102F0F3F9D6
:103410003E46207880061DD5D4F88C004FEA3070E7
:10342000052807D8DFE800F00C03090C0C0C02F0AB
:10343000B6FB04E0012501270DE002F017FB05466D
:103440002F4645B9D4F88C0002F0C1F921F0E041D3
:1034500002F043FA3746207840061DD5D4F898008C
:103460004FEAB020052807D8DFE800F00C03090C6C
:103470000C0C02F094FB04E0012501260DE002F0A3
:10348000F5FA05462E4645B9D4F8980002F064F9DD
:1034900021F4E05102F0AFF93E46207800061DD538
:1034A000D4F89C004FEA7030052807D8DFE800F018
:1034B0000C03090C0C0C02F072FB04E0012501273F
:1034C0000DE002F0D3FA05462F4645B9D4F89C002A
:1034D00002F042F921F4604102F08DF9374620688C
:1034E000010714D5D4F88010B1F5805F07D102F040
:1034F000BDFA002818BF01272068D4F88010DAF838
:103500004420534622F440521143CAF84410C106E5
:1035100014D5D4F89410B1F5807F07D102F0A6FA43
:10352000002818BF01272068D4F89410DAF8482042
:10353000534622F440721143CAF84810000318D5CC
:10354000D4F8A000B0F5003F09D0B0F5803F03D01B
:1035500010BB02F024FB01E002F088FA05462E467B
:1035600045B9D4F8A00002F0F7F821F4403102F098
:1035700042F93E46A07840071ED5D4F88400B0F545
:10358000401F0FD0B0F5001F09D0B0F5801F40F0EC
:10359000A38002F08CF805E001250126EAE702F09D
:1035A00047FB05462F4645B9D4F8840002F00FF9D1
:1035B00021F4401102F091F93746A078C00701D1FB
:1035C0003E4619E0E06CB0F5803F03D090B902F0C0
:1035D0006EF802E002F0F0F805462E4665B9E06CA0
:1035E000DAF83C100025524621F480310843CAF82D
:1035F0003C00E5E7012501262068810005D502F0A1
:1036000035FA002818BF0126206881031BD5E16F19
:103610006FF0010202EB3122022A0AD34FEA312273
:103620003AB1012A06D1DAF81C2042F40032CAF875
:103630001C200DB1012606E0DAF8442022F4407285
:103640001143CAF84410C10207D5216FDAF84020AF
:1036500022F000421143CAF84010C10008D5D4F846
:10366000B410DAF8002022F480421143CAF80010A6
:10367000810207D5A16EDAF8402022F08072114352
:10368000CAF8401041000CD5DAF8001021F40041CE
:10369000CAF80010D4F8B810DAF800201143CAF8BC
:1036A0000010B0F1FF3F07DC216DDAF83C2022F07A
:1036B00040521143CAF83C10000207D5D4F88800E4
:1036C000DAF8441021F4400102F007F9002E18BF87
:1036D00001263046BDE8F087012501276DE75546F4
:1036E000D4F8B0002A68094900F4407322F47C52EF
:1036F00001EA1011B3F5407F6FF31F3008BF0A4392
:103700002A60296E084328660025E0E5CFFFFF0008
:103710002DE9F843002800F0FB807F4D04468846E1
:10372000286800F00F0088420BD2286820F00F00B4
:1037300040EA08002860286800F00F00404540F08B
:10374000E7802068C64F410709D52169BA6902F0B0
:1037500089F904D9BA6922F070021143B9610107ED
:1037600009D56169FA6902F07DF904D9FA6922F094
:1037700070021143F961C1060AD5A169FA6902F420
:10378000E062914204D9FA6922F4E0621143F961DE
:10379000810609D5E1693A6A02F064F904D93A6A06
:1037A00022F070021143396210F002010AD0E2687F
:1037B000BB6903F00F039A4204D9BB6923F00F03DE
:1037C0001A43BA61C2073AD0D4E90101BA6922F4B6
:1037D00070621143B961012807D0032809D002287B
:1037E0000BD1396889030CD492E03968C90508D433
:1037F0008EE03968890104D48AE03968490740F1CC
:1038000087803969A94621F0070108433861FFF72D
:1038100073FA064641F288356068396901F038016B
:10382000B1EBC00F07D0FFF767FA801BA842F3D9AE
:103830000320BDE8F88320684D4600F0020151B135
:10384000E168BA6902F00F02914204D2BA6922F02B
:103850000F021143B961296801F00F0141450AD9EE
:10386000296821F00F0141EA08012960296801F067
:103870000F0141454CD1410709D52169BA6902F0D0
:10388000F1F804D2BA6922F070021143B96101075C
:1038900009D56169FA6902F0E5F804D2FA6922F003
:1038A00070021143F961C1060AD5A169FA6902F4EF
:1038B000E062914204D2FA6922F4E0621143F961B4
:1038C00080060AD5E069396A01F07001884204D2A5
:1038D000396A21F070010843386200F057F8B9697D
:1038E000294A1C4BC1F30321515C01F01F01C84060
:1038F000B969186001F00F01515C01F01F01C84067
:103900001549086005480068BDE8F843FFF72ABA82
:103910000120BDE8F88300BF00200052040000240D
:1039200080B500F033F80A49174B0A68096801F0BE
:103930000F01C2F30322595C9A5C01F01F0102F0EF
:103940001F02D040034A1060C8400349086080BD90
:1039500018440258080000240C00002480B5FFF72A
:10396000DFFF0849084A0968C1F3021102F0BBB839
:1039700080B5FFF7D5FF0349034A0968C1F3022167
:1039800002F0B1B81C440258FC8C000810B5344950
:103990000869C0F3C20003280FD0022804BF3248D0
:1039A00010BD40B908688006334858D50968C1F38E
:1039B000C101C84010BD2B4810BD8A6A886ACB6A15
:1039C0004C6BC0F30510F0B103F00103C4F3CC0459
:1039D00002F003026343022A00EE103AB8EE400AF6
:1039E00013D0AAB90A68920651BF9FED221A0A683D
:1039F000C2F3C102204B42BF23FA02F201EE102AA9
:103A0000B8EE411A06E0002010BD9FED191A01E042
:103A10009FED161A0A6B9FED193A6FF35F2202EEC3
:103A2000102AB8EE422A00EE032AB7EE000A32EE60
:103A3000000A02EE100A086BC0F34620B8EE422AD4
:103A4000013081EE021A21EE000A01EE100AB8EEF2
:103A5000411A80EE010ABCEEC00A10EE100A10BD39
:103A60000044025800093D0040787D010024744A5A
:103A700020BCBE4B0024744C0090D00300000039E1
:103A8000F8B5002800F0E18004460078D84EC00761
:103A900012D0306900F03801B06A102905D0182919
:103AA0002AD100F00300022826D13068800303D514
:103AB0006068002800F0C980207880074AD5306906
:103AC00010F03801B06A26D0182901D1800722D021
:103AD0003068E168002900F0018120F019000843F6
:103AE00001F082FD0546306840071BD4FFF704F95A
:103AF000401B0228F7D94BE16068002800F02581BF
:103B0000B0F5A02F00F03181B0F5803F00F0318199
:103B100001F0C5FD30E13068400703D5E0680028BA
:103B200000F09380FFF7E2F841F2030188420AD8DF
:103B30002069716821F47C31402814BF41EA0030CB
:103B400041F4003005E02069716821F0FE4141EA4E
:103B5000006070602078C0063DD5306900F0380103
:103B6000B06A082905D018291BD100F003000128EC
:103B700017D13068C00502D5E069802865D1FFF70C
:103B8000B5F841F2030188421ED8206A716821F01D
:103B9000F841202814BF41EA806041F08040706005
:103BA00019E03068E169002900F0C08040F0800031
:103BB00001F01AFD05463068C005E0D4FFF79CF817
:103BC000401B0228F7D9E3E0206AF16821F07C511C
:103BD00041EA0060F0602078000738D42078800641
:103BE00047D42078400756D4676A67B3306900F03D
:103BF0003800182840F0CE80B16A306B012F24D0F5
:103C0000A26A01F0030393421FD1E26AC1F30511D6
:103C100091421AD10146226B6FF35F21013A914222
:103C200013D1626BC0F34621013A91420DD1A26BD0
:103C3000C0F30641013A914207D1E16BC0F306603F
:103C40000139884201D1002049E10120F8BD706F9F
:103C5000616999B340F001007067FFF74DF80546C0
:103C6000706F8007BAD4FFF747F8401B0228F7D9D6
:103C70008EE03068A169002949D040F4805001F0FD
:103C8000B3FC054630688004ABD4FFF735F8401B21
:103C90000228F7D97CE0D6F8000440F48070C6F81A
:103CA0000004FFF729F80546D6F80004C00524D41F
:103CB000FFF722F8401B6428F6D969E020F00100E4
:103CC0007067FFF719F80546706F80077FF586AFBC
:103CD000FFF712F8401B0228F6D959E020F0010046
:103CE00001F082FC0546306840077FF533AFFFF7EF
:103CF00003F801F063FEF6D9F1E0A068002864D073
:103D0000052877D0012879D001F0B3FD79E020F4BF
:103D1000805001F069FC0546306880047FF561AF92
:103D2000FEF7EAFF01F04AFEF6D9D8E020F0800065
:103D300001F05AFC05463068C0057FF54CAFFEF730
:103D4000DBFF01F03BFEF6D9C9E001F0A8FC01F071
:103D50004BFC0546306880037FF5AEAEFEF7CCFF26
:103D6000411B03206429F5D9B9E0306840F4802074
:103D70003060306840F4803001F036FC0546306831
:103D800080033FF599AEFEF7B7FF401B6428F6D9D4
:103D90000320F8BD306820F0807001F025FC054656
:103DA000022F08D1306880013CD5FEF7A5FF01F055
:103DB00005FEF7D993E0306880017FF544AFFEF748
:103DC0009BFF01F0FBFDF6D989E001F052FD306761
:103DD000FEF792FF054641F28837306F80077FF586
:103DE00003AFFEF789FF411B0320B942F5D976E006
:103DF00000440258306F40F004003067306F40F0EC
:103E000001003067FEF778FF054641F28837306FD2
:103E100080073FF5E9AEFEF76FFF411B0320B94273
:103E2000F5D95CE004F12805B06A40F2F33188432B
:103E30002ECD0843591E40EA0210B0626FF35F2195
:103E40004FF4FE024FF47E4000EB452080B2084460
:103E5000A16B02EB01414FF0FE4201F4FE01084468
:103E6000E16B02EB016101F0FE41084430634FF663
:103E7000F871F06A20F00100F062706B8843A16C69
:103E800040EAC1007063206CF16A21F00C01084324
:103E9000F062F06A616C20F002000843F062F06AA0
:103EA00040F48030F062F06A40F40030F062F06A72
:103EB00040F48020F062F06A40F00100F062306867
:103EC00040F0807001F090FB0446306880013FF5BF
:103ED000BAAEFEF711FF011B03200229F5D9F8BD88
:103EE000F8B538B3044600208949A06220688842AA
:103EF00008D0434A904205D0864A904202D0E268F8
:103F00000F2A17D8E268E36B0125083205EB53133B
:103F1000D2085A4388420BD07E49884208D0384B99
:103F2000984218BF082A05D8884218BF984203D182
:103F3000102A01D90120F8BD94F8811029B901F0A7
:103F4000D0FC204600F05EF82068022184F8811041
:103F500001F0F6FCD4F818C06168BCF1806F12D192
:103F600039B1B1F5800F0ED1A36B33B14FF480019D
:103F700009E0A36BB3F1805F04D1036843F480537D
:103F8000036000E00021E369A56A04F108076269A3
:103F90002B43E56B2B43E0CF33438360636B666A4F
:103FA00043EA0C033343A66B33433B431A43236A70
:103FB0001A43D4E912360A4332432A431A43A36D03
:103FC0001A43C26049B98268012363F3CC2282603C
:103FD0000223826863F34A228260026D490222F062
:103FE0000102026505D5616DC26822F000421143ED
:103FF000C1600020C4F88400012184F88110F8BD5C
:10400000003C0040B0B5B6B0044631A81421FCF71E
:1040100044FB02A8BC21FCF740FB20683C493B4C18
:10402000884233D03B4988426DD14FF480500025FF
:104030001995029002A8FEF7BFFF08B1FEF7F8FA43
:104040003548016941F480510161016901F48051F1
:1040500001910199016841F008010160016801F0D6
:1040600008010191019901F0F3FB019001980520ED
:104070003590CDE93355022032908020319031A91E
:1040800004F50060FEF766FD182030E04FF4805024
:1040900000251995029002A8FEF78EFF08B1FEF7E1
:1040A000C7FA1D48816841F480418160816801F44C
:1040B000804101910199016841F0040101600168AA
:1040C00001F004010191019901F0C2FB01900198F6
:1040D00005203590CDE933550220329006203190ED
:1040E00031A904F58060FEF735FD4FF48060319012
:1040F000052035900020CDE933000220329031A90F
:104100002046FEF727FD36B0B0BD00BF00040258C0
:104110000038004000300140E04402582DE9FC47DF
:104120000446D0E900901D4617460E46B0F5800FB4
:1041300002D1A068002857D094F88000012850D000
:10414000012084F88000FEF7D7FD01F0DFFB46D1A7
:10415000002E55D0002F53D0042001F03DFBA4F8D1
:104160006A70A4F868706666A4F86000E065C4E947
:104170001C00A4F86200A1682068B1F5C02F03D12B
:10418000016821F40061016001F08AFB01D101F0B6
:1041900028FCE168102939D348F208066F1CB4F8EE
:1041A0006A00002800F0878020684169314207D00A
:1041B00001F01CFDB4F86A000138A4F86A00EEE7CB
:1041C000FEF79AFD002FEAD001F039FBE7D301F0AA
:1041D000ABFA714601F026FA8E46BDE8FC8701F085
:1041E00080FB0220BDE8FC87042084F88100314672
:1041F00032463B460095204600F031F9BDE8FC8789
:10420000002084F880000120BDE8FC876E1C4FF67A
:10421000FC70072924D900F1030A871CB4F86A004E
:10422000002848D02068416911F4604F0AD04169E4
:1042300009040FD4B9F83000616E21F8020B504622
:1042400061660AE0FEF758FD002EE7D001F0F7FAAC
:10425000E4D3BCE701F0CAFC384601F0A4FCDDE77A
:1042600000F1020AC71CB4F86A0020B32068416953
:1042700011F4604F0CD04169090411D4416901F473
:10428000C041B1F5005F10D901F0C7FB50460FE007
:10429000FEF732FD002EE6D001F0D1FAE3D396E727
:1042A00001F0A4FC4FF6FC7002E001F0E4FB38469C
:1042B00001F079FCD7E701F037FA714601F042FAD4
:1042C0008E4618BF0120BDE8FC872DE9F04701F0BC
:1042D00048FA45D001201D46174601F071FA01F059
:1042E00015FB3BD1002E3ED0EFB3032001F074FA52
:1042F000A4F86270A4F86070E665A4F868006066CF
:10430000C4E91C00A4F86A00A1682068B1F5C02FB8
:1043100003D1016841F40061016001F0C1FA01D1EB
:1043200001F05FFBE068102823D36E1CB4F8620034
:1043300000287AD020684169890707D4FEF7DCFCA1
:10434000002EF3D001F07BFAF0D380E001F057FAB1
:10435000B4F862000138A4F86200E7E701F0C1FA9E
:104360000220BDE8F087002084F880000120BDE82D
:10437000F087072824D901F001FBB4F86200002877
:1043800053D020684169890707D4FEF7B5FC002E99
:10439000F3D001F054FAF0D359E0B4F862100229D6
:1043A00005D3E16B19B101F02AFA504602E001F0A1
:1043B000D5FA3846B4F862100844A4F86200DCE785
:1043C00001F0DCFAB4F8620078B32068416989072B
:1043D00007D4FEF791FC002EF4D001F030FAF1D3AF
:1043E00035E0B4F86210042907D3E16B412904D306
:1043F00001F005FA4FF6FC7011E0B4F862100229E2
:1044000005D3E16B19B101F0A9FA504607E0E16D5F
:10441000097880F82010E06D0130E0653846B4F886
:1044200062100844A4F86200CCE7204641462A46C0
:1044300001F0C0FD08B101F062FA01F075F97146B2
:1044400001F080F98E4618BF0120BDE8F08701F029
:104450006BF9714601F0E6F88E46BDE8F0872DE96C
:10446000F84F01F07EF978D001209A46154601F008
:10447000A7F901F04BFA65D1002E71D0002D6FD055
:10448000BAF1000F6CD094F88100042802D0052006
:1044900084F881000021C4F88410A4F86AA0A4F86C
:1044A00062A04FF6FF77D4E900024368BB43534450
:1044B00043606566A4F868A0E665C4E91C11A4F829
:1044C00060A0B2F5800F016841F00101016001D1E7
:1044D00001F087FAE168DDF828B0102946D348F2E8
:1044E00008050BF10106574657EA0A0000F0F28072
:1044F00001F09AFA18BF11F002010AD0E16D04C967
:104500000262B4F86220013AA4F86220E165B4F8CE
:1045100062A04169294218BF002F0AD0006BB4F88D
:104520006A100139A4F86A10616E01C16166B4F8BD
:104530006A70FEF7E1FB002ED6D0A0EB08005845CC
:10454000D2D3BFE06168B1F5800F04D1042802D155
:10455000A068002890D001F0C4F90220BDE8F88FCF
:10456000002084F880000120BDE8F88F4FF6FE702F
:104570000BF10105072945D9471C564656EA0A00A2
:1045800000F0A88001F050FA18BF11F0020117D016
:10459000BAF1010F06D0E16B21B101F030F94FF60D
:1045A000FE7106E0E16D31F8022BA9F82020E165EB
:1045B0003946B4F862201144A4F86210B4F862A03D
:1045C000416911F4604F18BF002E12D041690904EF
:1045D00007D4B9F83000616E21F8020B38466166E5
:1045E00003E001F003FB4FF6FE7001F0DCFAB4F8D3
:1045F0006A60FEF781FB002DC0D0A0EB0800584593
:10460000BCD35FE0861E5746411C009157EA0A0062
:1046100060D001F009FA18BF11F002012BD0BAF1F5
:10462000040F09D3E16B41290AD3E16D04C9026289
:10463000B4F86220043A0CE0BAF1020F0CD3E16B3B
:1046400051B1E16D31F8022BA9F82020B4F86220B5
:10465000023AA4F862200BE0E16D097880F820109E
:10466000B4F862000138A4F86200E16D20680131FD
:10467000E165B4F862A0416911F4604F18BF002FE2
:1046800018D0416909040AD4416901F4C041B1F567
:10469000005F08D901F0C1F94FF6FE7006E001F0A5
:1046A000A5FA304602E001F0E6F9009801F07BFA45
:1046B000B4F86A70FEF720FB002DA7D0A0EB08002D
:1046C0005845A3D301F030F8714600F0ABFF8E4699
:1046D000BDE8F88F204641465A4601F06BFC08B110
:1046E00001F00DF901F020F8714601F02BF88E462B
:1046F00018BF0120BDE8F88F411E0020B0EB116FFC
:1047000001D001207047044AF023516003490B7027
:10471000906007211160704710E000E023ED00E099
:10472000704770477047000070B590F83C30022227
:10473000012B31D080F83D20012280F83C204B4CE9
:10474000026842F4806655689368A64202BF25F469
:1047500070054E6835430E6825F070053543556089
:10476000B2F1804F1CBF3D4DAA420AD03C4DAA4237
:104770001CBF3C4DAA4204D03B4DAA4218BFA242E6
:104780000CD123F08003896819439160002280F8DE
:104790003C20012180F83D10104670BD344CA242EF
:1047A000EFD0F3E758B110B501F0C7F903D101F02C
:1047B000CCF800F007F801F040FA00F083BF0120C8
:1047C00070470000E0B500682449884218BF8CBDDE
:1047D00009480022016841F00201016000680121DE
:1047E00000F00200019001981D20FEF7FFFA1D2045
:1047F000BDE88C40FEF7ECBAE844025890F83D1052
:1048000001291ED1022180F83D100168B1F1804FCD
:10481000C86840F00100C8601CBF1048814205D044
:104820000F4881421CBF0F4881420CD18868114A51
:10483000734601F04DF99E4618BFB2F5803F0BD18B
:1048400070470120704708488142EFD007488142F5
:10485000ECD007488142E9D001F081B90004004062
:1048600000080040000C0040001800400004014017
:104870000000014007000100B0B501F058F92ED04A
:1048800084F83D00012084F83C002D4D206802464C
:1048900052F8083F2B4013600B68BBB1102B15D0AA
:1048A000202B18BF302B11D0402B26D0502B2DD0D1
:1048B000602B34D02348834208D0B3F5005F3AD050
:1048C000B3F5801F18BFB3F1101F09D1106820493C
:1048D0000840184340F00700106001F09DF9B0BD9A
:1048E00019488342F2D019488342EFD0702BF4D19B
:1048F00001F011F840F07700EEE701F060F922686E
:10490000134952F8080F08404730E5E701F057F91E
:1049100022680F4952F8080F08405730DCE74B680F
:10492000CA68194601F0D5FD2268094952F8080FF6
:1049300008406730D0E700F0EEFF40F48040CBE75E
:104940008800CEFF40001000200010003000100052
:1049500088FFCFFF704710B50446006801698907DA
:1049600014D5C168890711D56FF0020101610121D9
:1049700021778069800702D001F00EF903E001F091
:1049800048F901F006F900202077206801694907FD
:1049900015D5C168490712D56FF0040101610221E4
:1049A0002177806910F4407F02D001F0F5F803E030
:1049B00001F02FF901F0EDF800202077206801695F
:1049C000090714D5C168090711D56FF00801016105
:1049D00004212177C069800702D001F0DDF803E0EF
:1049E00001F017F901F0D5F800202077206801695F
:1049F000C90615D5C168C90612D56FF0100101614D
:104A000008212177C06910F4407F02D001F0C4F87A
:104A100003E001F0FEF801F0BCF8002020772068E8
:104A20000169C90709D0C168C90706D06FF0010143
:104A30000161204600F05CF920680169090609D58A
:104A4000C168090606D56FF0800101612046FFF7B5
:104A500068FE20680169C90509D5C168090606D53F
:104A60006FF4807101612046FFF75AFE20680169EA
:104A7000490609D5C168490606D56FF040010161B4
:104A8000204600F0C3F920680169890602D5C16893
:104A9000890600D410BD6FF0200101612046BDE8F9
:104AA0001040FFF73FBE000010B586B0044601A8D5
:104AB0001421FBF7F2FD2068B0F1804F16D10C48AD
:104AC000016841F0010101600068002100F001006F
:104AD00000900120059002200490CDE902010F20F2
:104AE0000190009801A90348FEF734F806B010BD04
:104AF000E04402580000025870470000B0B501F0D1
:104B000092F801D10220B0BD01F05EF848D80D4600
:104B1000DFE800F0030B131B23332068294601F064
:104B200087FB206850F8181F1EE02068294601F016
:104B3000C1FB206850F8181F26E02068294601F0C4
:104B4000F5FB206850F81C1F0EE02068294601F094
:104B500027FC206850F81C1F16E02068294601F049
:104B60004DFC206850F8541F41F0080101600168B5
:104B700021F00401016029690FE02068294601F055
:104B800065FC206850F8541F41F400610160016821
:104B900021F4806101602969090202681143016002
:104BA000002084F83C00B0BD58B110B500F0C5FF3E
:104BB00003D100F0CAFE00F007F801F03EF800F063
:104BC00081BD01207047000081B00068B0F1804FC6
:104BD00009D10648016841F001010160006800F058
:104BE00001000090009801B0704700BFE8440258EF
:104BF0007047000010B5044651B1081F00F0CDFD0C
:104C00000DD8DFE800F0020F121504F13F0211E0A9
:104C100094F83E00012819D100F0B7FF23E004F119
:104C2000430207E004F1400204E004F1410201E024
:104C300004F142021278012A08D1032808D8DFE8DB
:104C400000F0020A0D1000F037FF0CE0012010BD4B
:104C500000F0FCFE07E000F037FF04E000F028FF62
:104C600001E000F02DFF206800F08CFD00F082FED6
:104C700016D0154881421CBF1448814210D01448F8
:104C800081421CBF134881420AD0134881421CBF95
:104C9000124881420DD1486C104A00F048FD11D1F4
:104CA0008868124A00F014FF18BFB2F5803F09D19E
:104CB00010BD0B488142EED00A488142EBD00A4831
:104CC0008142E8D000F075BF0004004000080040B9
:104CD000000C0040001800400000014000040140AA
:104CE000004001400048014000440140070001002D
:104CF0002DE9F0413B49884201D0BDE8F08101F047
:104D0000BDF8394D288001F0BDF86880374800783B
:104D100001380328F1D8DFE800F00231025A354E9D
:104D2000354F384CDFF86C8F308894ED001AB7EEB1
:104D3000C11A00F08FFE02EE100A288800F0CCFEA7
:104D40004046F7EEC20B00F0A6FC708894ED011A05
:104D5000B7EEC11A00F02AFE02EE100A68882A4D4A
:104D600000F0BAFE2846F7EEC20B00F094FC00F00B
:104D700029FC4046FDF734FC40461FE01D4E1E4F07
:104D80001E4C308800F066FE01EE100A288800F004
:104D900067FD204600F07FFC708800F007FE01EE02
:104DA000100A6888164D00F05BFD284600F073FC81
:104DB00000F008FC2046FDF713FC2046FDF703FC3D
:104DC0002846FDF700FCBDE8F041FDF743BC00209C
:104DD00007490022202AF6D08B1888500832187113
:104DE000F8E700BFE89F0024489D0024419D00246F
:104DF000589D0024449D002490000024249E0024FB
:104E0000589E0024509D0024F09D0024704790F887
:104E10008010012901D1022112E02421C0F8841060
:104E200001680A680B6823F001030B6022F000524E
:104E30000A600021416680F880102022C0F884209A
:104E40000846704770477047B0B500F0E1FD01D1EA
:104E50000220B0BD00F0FEFB22F0606200F023FEF5
:104E600000F032BDB0B500F0D3FD01D10220B0BDDD
:104E700000F0F0FB22F0604200F015FE00F024BDCF
:104E8000704770477047000070B5016840F60F0525
:104E90000446CA6908688B682A4272D08C4D00EAC1
:104EA00005068C4D1D40761975D0D60709D0C6056C
:104EB00007D501260E62D4F88C6046F00106C4F8CE
:104EC0008C60960709D5DE0707D002260E62D4F85B
:104ED0008C6046F00406C4F88C60560709D5DE07DE
:104EE00007D004260E62D4F88C6046F00206C4F89F
:104EF0008C6016070BD500F02006354307D0082537
:104F00000D62D4F88C5045F00805C4F88C50150596
:104F10000AD5450108D54FF400650D62D4F88C50D0
:104F200045F02005C4F88C50D4F88C50002D70D07A
:104F300092060AD500F0200003F08052801804D0B9
:104F4000226F12B1204690472168D4F88C008968FE
:104F500000F0280001F04001401854D0204601F034
:104F600073FB20688168490648D500F0FFFB45D0F7
:104F700059490165FDF704FD00284AD0E06F016D35
:104F80001FE0950607D500F0200503F08056AD1907
:104F900001D0216F13E0E56E012D03D1D50601D5B7
:104FA000C50637D4D50201D55D021FD415060BD531
:104FB00000F0800503F400035B1905D0616F41B375
:104FC0002046BDE870400847530601D5430644D447
:104FD000110201D541004ED4D1011AD5B0F1FF3FE5
:104FE00017DC2046BDE87040FFF72DBF4FF480105E
:104FF00008622046BDE87040FFF743BF2046BDE889
:105000007040FFF73FBF2046FFF73CFF0020C4F889
:105010008C0070BD102008628868400630D4B4F857
:105020005E00B4F85C20B4F85E30002BF1D0101AAA
:105030000204EED00A68294B22F490720A608A6852
:105040001A408A602022C4F888200022E266226783
:105050000A6822F010020A6033E0086820F040007D
:105060000860002060672020C4F884002046BDE866
:10507000704000F035B92046BDE87040FFF700BF32
:10508000E06F026853689DB2002DC2D0B4F85C2076
:105090009542BED2A4F85E30C369B3F5807F0DD0CF
:1050A00000F0A9FDC4F888200022E2660A6822F018
:1050B00010020A60FDF7EEFAB4F85C20B4F85E0066
:1050C000101A81B22046BDE87040FFF7BBBE00BF9A
:1050D000200100040100001039660008FEFFFFEF08
:1050E00010B548B10446D0F8840008B900F019FDA5
:1050F00000F0A5FA012801D1012010BDA06A08B175
:1051000000F0A1FC00F095FC21F02A01816000F084
:105110009BFDBDE8104001F063BA000010B5B6B0C9
:10512000044631A81421FBF7B8FA02A8BC21FBF70A
:10513000B4FA20681B49884231D101200024209410
:10514000029002A8FDF738FF08B1FDF771FA9F48F9
:10515000016941F010010161016901F01001019143
:105160000199016841F002010160006800F002004D
:10517000019004203590CDE93344022032904FF461
:1051800040403190019831A90748FDF7E3FC252004
:1051900000210022FDF72AFE2520FDF719FE36B07A
:1051A00010BD00BF001001400004025810B5D0F837
:1051B0008830202B05D131B12AB190F88030012BF5
:1051C00003D1022010BD012010BD0023C366094C8D
:1051D000012380F880300368A34206D05C68240273
:1051E00003D51C6844F080641C6001F009FD0020B8
:1051F00010BD00BF000C005810B5074C0548012237
:10520000214602F00CFDE34821460122BDE8104092
:10521000FFF7CCBF809D0024409D00242DE9F8437A
:105220000446D0F88400202807D10E4641B1174625
:1052300032B194F88000012805D10220BDE8F8833E
:105240000120BDE8F88301204FF00009C4F88C90DC
:1052500084F880001D462120C4F88400FDF74CFD31
:10526000A4F856708046A4F85470A068B0F5805F2A
:1052700001D1206908B1002701E03746002684F8F3
:105280008090B4F85600D0B12046802100224346D9
:10529000009501F01BFDD0B926B1216816F8010B6D
:1052A000886206E037F8021B206800266FF35F2152
:1052B0008162B4F856000138A4F85600E1E72046B0
:1052C000402100224346009501F000FD10B103206B
:1052D000BDE8F8832020C4F884000020BDE8F883EE
:1052E0007047FEE72DE9F04F87B038484FF00008CF
:1052F000CDF81880364CDFF8DCA0012208274FF0EB
:10530000010904F58056016841F01001016001684F
:1053100001F0100101910199016841F080010160E3
:10532000016801F0800101910199016841F00401D7
:105330000160016801F0040101910199016841F0E7
:1053400001010160016801F0010101910199016809
:1053500041F002010160016801F00201019101992F
:10536000016841F0080101600068082100F00800B0
:10537000019001983046D0472046F0210022D047C6
:1053800004F5406560210122A3462846D047022447
:10539000CDE90484CDE9027902AFDFF83CA03046C4
:1053A0003946D047F0200594CDE90398029039465C
:1053B0005846D04760200594CDE9039802903946BD
:1053C0002846D04707B0BDE8F08F00BFE044025840
:1053D00000000258E12C0008552B0008F8B5074CD6
:1053E00000F04EF9064F00F0DBF82046FEF778FD9E
:1053F00018B1BDE8F840FDF71BB9F8BD8C9E00243C
:1054000000300140F8B5074C00F03AF9064F00F0C3
:10541000C7F82046FEF764FD18B1BDE8F840FDF777
:1054200007B9F8BD149F00240038004010B58AB0B9
:1054300068461C2100240994CDE90744FBF72DF9A7
:10544000214842F20F714FF080428461C0E900248C
:10545000C0E902410461FFF7A7FB08B1FDF7E8F8D6
:1054600009940794184807A9FFF75EF908B1FDF7FA
:10547000DFF800200490CDE9010069460022602099
:1054800000901148FFF73AFB08B1FDF7D1F80E483C
:1054900069460422FFF732FB08B1FDF7C9F80A4854
:1054A00069460822FFF72AFB08B1FDF7C1F8064854
:1054B00069460C22FFF722FB08B1FDF7B9F8024854
:1054C000FFF7F2FA0AB010BD9C9F002410B588B017
:1054D000164800210791CDE90511CDE9031140F2ED
:1054E000E7326323124CCDE901118161C0E9004329
:1054F000C0E902120161FFF755F908B1FDF798F80C
:105500004FF48050049004A90848FFF7B5F908B19A
:10551000FDF78EF800200390019001A90348FFF7E2
:1055200003F908B1FDF784F808B010BDE89F002426
:105530000004004010B5174C0C2000214FF4E1325C
:10554000154BC4E90032C4E90211C4E9041004F1A6
:1055500018001421FBF7A1F82046FFF7C1FD08B1A0
:10556000FDF766F80B480021FFF77CFC08B1FDF75A
:105570005FF808480021FFF767FC08B1FDF758F80D
:105580000448FFF744FC18B1BDE81040FDF750B8DF
:1055900010BD00BF34A0002400100140FEE7FEE76C
:1055A0002062C4E90076C4E90205C4E90403C4E941
:1055B0000621C4E90900E062616304F13800242196
:1055C000FBF76BB8308842F210710430B0FBF1F297
:1055D00002FB1100308070880430B0FBF1F202FB56
:1055E00011002946708070473060FDF785BBC2F31B
:1055F0004622B8EE433A32EE002A81EE031A21EE3B
:10560000021A02EE102AB8EE422A32EE002A81EE89
:10561000022ABCEEC22A80ED002A7047001BB0F5BA
:105620007A7F7047D4F8840040F48070C4F8840016
:10563000002084F88000012084F881007047242035
:10564000C4F884002068016821F00101016020464F
:1056500001F02EB92420C4F884002068056802688F
:1056600022F001020260012284F8802082687047E3
:10567000B8EE411B20EE010B80EE0A0B02F06CBB72
:1056800000204FF080414FF080624FF080730F2573
:105690004FF480067047B8EE400A00F00ABB30684D
:1056A00020F480303060306820F480207047DAF8D1
:1056B0001C00514640F40030CAF81C0070472860B6
:1056C000FDF71ABB012084F8480084F83E0084F8F6
:1056D0003F0084F8400084F8410084F8420084F8D8
:1056E000430084F8440084F8450084F8460084F8B8
:1056F000470084F83D00002010BD016821F0100132
:1057000001602046B4F85C10FFF79CBB00EE100A65
:10571000B8EE400B80EE080B20EE090B704704F149
:105720002400002100F048BB204600F0EDBB40F40F
:105730000040486441F4806090427047201D012180
:1057400000F0DABA012084F88100002084F880009B
:10575000D4F8840000287047DAF848100025524633
:105760007047044690F8800001287047816821F056
:1057700040018160E06F00287047DAF84010002592
:1057800052467047012200F043BD0968C1F302117F
:10579000515C01F01F01C84080BD4FEAB0000328F2
:1057A000704721F4D0710160816821F001018160AE
:1057B0002020C4F884007047201D022100F09CBA0C
:1057C0000E46D4F8009084F88000FDF795BADAF818
:1057D000441000255246704784F881000020C4F828
:1057E0008400704701220262D4F88C2042F001024A
:1057F000C4F88C2070470843CAF848007047E16D30
:1058000004C90262E165704704210162D4F88C008A
:1058100040F00200C4F88C007047F86940F4003092
:10582000F861704702220262D4F88C2042F0040230
:10583000C4F88C2070470843CAF840007047A0EBBA
:105840000800A84270470122FF232846FEF73DBD0D
:10585000016841F002010160006800F00200704739
:10586000B8EE411B30EE010BF7EEC00B00EE100A54
:105870007047306F20F001003067306F20F0040077
:105880007047C1F3066102EE101AB8EE422A32EEFA
:10589000000A81EE000ABCEEC00A10EE101A704732
:1058A00041684FF6FF72914339444160016841F00D
:1058B000010101606168B1F5800F7047586D9C4629
:1058C00000F00700052870472068202105600020AF
:1058D00084F88000C4F88410B0BD0843CAF84400BE
:1058E0007047002084F8800070473860FDF704BAE4
:1058F0002167016841F020010160BDE8F88FD4F80C
:10590000840040F02000C4F884007047804694F87A
:10591000810001287047D1E90103C968184340EAB2
:105920000120116821F47F4108431060106870471E
:1059300001688268B4F86050D4F88830222B704730
:10594000016821F0010101607047002084F83C00EB
:1059500020467047B4F85E0000287047E06D30F8CC
:10596000021BA9F82010E065704700222B46204654
:1059700001F0ACB92168B1F1804F70474FF6FC706F
:105980006E1C00F1020AC71C7047816941F00801D2
:10599000816110BD0870B4F85E000138A4F85E00A3
:1059A000704728460122FF23FEF7B8BB07EB8000B3
:1059B00090ED000AE888B7EEC00A7047411B03204B
:1059C00002297047C2F3064202EE102AB8EE422ABC
:1059D00032EE002A81EE022ABCEEC22A80ED012AB4
:1059E0007047016841F400710160704720684A46C1
:1059F000016821F480710160816801EA0901816018
:105A00002021C4F88810C4F870A0E16E0129704705
:105A1000044690F8800001287047B9F83000616EA4
:105A200021F8020B616670472068BAF1000F4169E6
:105A300070472068416821F4904141608168704757
:105A40002046FFF7D9BB204600F076BD022084F83F
:105A50004300704707EB800090ED000AA888B7EE7E
:105A6000C00A704702F070029142704704F12400AE
:105A7000022100F0A1B990F83000616E0870606EEC
:105A8000013060667047016821F49071016081689F
:105A900021F0010181602021C4F8881000212167D4
:105AA000E16E0129704711438160204600F022BD5C
:105AB000022084F841007047022084F83F007047BC
:105AC000022084F842007047022084F840007047AA
:105AD00002400020062A7047B8EE422B00EE012B50
