:020000040800F2
:10000000102200242D040008273700082936000894
:1000100025370008F51500085D3B000800000000CA
:10002000000000000000000000000000F13800089F
:10003000451600080000000029370008F3380008C2
:100040004704000847040008470400084704000864
:100050004704000847040008470400084704000854
:100060004704000847040008470400084704000844
:100070004704000847040008470400084704000834
:100080004704000847040008470400084704000824
:100090004704000847040008470400084704000814
:1000A0004704000847040008470400084704000804
:1000B00047040008653A00084704000847040008A0
:1000C00047040008470400084704000847040008E4
:1000D00047040008553B000847040008470400088F
:1000E0004704000847040008000000004704000817
:1000F00047040008470400084704000847040008B4
:1001000047040008470400084704000847040008A3
:100110004704000847040008470400084704000893
:100120004704000847040008470400084704000883
:100130004704000847040008470400084704000873
:1001400000000000000000000000000000000000AF
:100150004704000847040008470400084704000853
:100160004704000847040008470400084704000843
:100170004704000847040008470400084704000833
:100180004704000847040008470400084704000823
:100190004704000847040008470400084704000813
:1001A0004704000847040008470400084704000803
:1001B00047040008470400084704000847040008F3
:1001C00047040008470400084704000847040008E3
:1001D00047040008470400084704000847040008D3
:1001E00047040008470400084704000847040008C3
:1001F00047040008470400084704000847040008B3
:1002000047040008470400084704000847040008A2
:100210004704000847040008470400084704000892
:1002200047040008470400084704000800000000D5
:1002300047040008470400080000000047040008C5
:100240004704000847040008470400084704000862
:100250004704000847040008470400084704000852
:100260004704000847040008470400084704000842
:100270004704000847040008470400080000000085
:100280004704000847040008470400080000000075
:10029000000000004704000800F002F800F0B6F883
:1002A0000AA090E8000C82448344AAF10107DA45D1
:1002B00001D100F0ABF8AFF2090EBAE80F0013F06D
:1002C000010F18BFFB1A43F001031847F842000062
:1002D000184300000A4410F8013B13F0030408BF60
:1002E00010F8014B1D1108BF10F8015B641E05D00A
:1002F00010F8016B641E01F8016BF9D1002D15D0C7
:1003000010F8014B03F00C030C2BA1EB04040ABF03
:1003100010F8013BA4EB8314A4EB032405F10103C3
:1003200014F8016B5B1E01F8016BF9D5914238BFDF
:1003300010F8013BD1D3704700230024002500268C
:10034000103A28BF78C1FBD8520728BF30C148BF38
:100350000B6070476E2900F0AB81702900F0F582C8
:10036000662904F0A480652904F0A180672904F0BF
:100370009E80612904F09D8003681B0A28BF41F01C
:100380008001692900F05881642900F055817529A0
:1003900000F052816F2900F08382782900F0C18239
:1003A000E92900F01D82E42900F01A82F52900F005
:1003B0001782EF2900F08082F82900F0C0820368DC
:1003C000DB0928BF41F08001632900F0C58773294C
:1003D00000F0CA87E32900F0D587F32900F0DA8717
:1003E000002070471FB504F055F800F07DFB0400B5
:1003F0000020002104F038F8401C6060002000213B
:1004000004F01CF8E0601FBD10B510BD01F060F8ED
:100410001146FFF7E7FF03F0D7FB01F0C7F803B47D
:10042000FFF7F2FF03BC01F0CBF80000094880475A
:1004300009480047FEE7FEE7FEE7FEE7FEE7FEE7C6
:10044000FEE7FEE7FEE7FEE704480549054A064BDE
:1004500070470000A939000899020008101C002408
:1004600010220024101E0024101E00247CB51D46FE
:1004700016460C00009001D02044401E074B7B44E0
:100480002A4669460190304600F02BF905461CB11A
:100490000020694600F038F928467CBD9102000032
:1004A0004FF0000200B5134694469646203922BF0D
:1004B000A0E80C50A0E80C50B1F12001BFF4F7AF58
:1004C000090728BFA0E80C5048BF0CC05DF804EB3A
:1004D000890028BF40F8042B08BF704748BF20F8A8
:1004E000022B11F0804F18BF00F8012B704700005D
:1004F00030B44FF0013C50F8042BCCFA52F451F8D0
:10050000043BD51A20D1FCB950F8042BCCFA52F494
:1005100051F8043BD51A17D1B4B950F8042BCCFAD2
:1005200052F451F8043BD51A0ED16CB950F8042B93
:10053000CCFA52F451F8043BD51A05D1002CDAD08C
:1005400030BC4FF00000704729BAB1FA81F111F0C8
:100550001801D1F120008440F2D1CA40CB4012F002
:10056000FF0213F0FF0330BCD01A7047704770478A
:10057000704770B5044685690068C10601D530260C
:1005800000E02026C00707D070BDD4E90121304625
:100590009047206A401C20626D1EF6D570BD70B574
:1005A000044685690078C00707D170BDD4E90121F0
:1005B00020209047206A401C20626D1EF6D570BD39
:1005C00009684A0501D540B27047C905FCD500B29B
:1005D000704709684A0501D5C0B27047C905FCD506
:1005E00080B2704770B50C460546012A05D02878C0
:1005F000800600D5EA69002302E0012305E05B1CC8
:10060000934202D2E05C0028F9D1A869E618C01A2A
:10061000A861286A184428622846FFF7AAFF04E068
:10062000D5E9012114F8010B9047B442F8D32846CC
:10063000FFF7B5FF70BD00002DE9F041064600242C
:1006400010687529314616A510D0FFF7B9FF0028AC
:1006500002DA404213A507E031688A0701D512A5E6
:1006600002E0490704D511A5012401E0FFF7B1FF1D
:1006700000210A2206F1240709E0B0FBF2FCB0FBDE
:10068000F2F302FB1C00303078541846491C002855
:10069000F3D123462A463046BDE8F04100F06DBA5A
:1006A000000000002D0000002B00000020000000D2
:1006B00011680268006A530501D508700AE0D30585
:1006C00001D5088006E0130603D5C217C1E9000270
:1006D00000E008600120704701694A1C0261087847
:1006E000704700B58FB0CDE9013100210591054972
:1006F0007944CDE903101146684600F031F90FB096
:1007000000BD0000E5FFFFFF0A6802F8010B0A6068
:100710007047D1E900239A4202D2531C0B6010703B
:10072000704700002DE9FF5F15468A460446DFF852
:10073000AC80F8440027D8E900103E46CDE900100F
:1007400010E03AF816106A4602A800F099FE411C23
:1007500007D02178890603D5E269391891420DD86E
:100760000744761C2078800602D5E069B84205DD92
:10077000AE42E6DB3AF816000028E2D1A069C01BC1
:10078000A0612046FFF7F5FED8E90010CDE9001082
:10079000002017E03AF818106A4602A800F070FE30
:1007A000B0F1FF3F81460BD000250DF1080B05E0AD
:1007B000D4E901211BF8050090476D1C4D45F7D386
:1007C00008F10100B0428046E4DB206A3844206230
:1007D0002046FFF7E4FEBDE8FF9F0000823D0000D9
:1007E0002DE9F0418046D21D22F007020025D2E912
:1007F0000002F52915A614D0011E72F1000106DAD7
:100800000023D0EB030063EB020211A608E0D8F846
:1008100000108B0701D50FA602E0490701D50EA6EF
:1008200001251146002408F1240704E000F060F9D6
:1008300030323A55641C50EA0102F7D12B46324659
:1008400021464046BDE8F04100F097B900000000A5
:100850002D0000002B0000002000000030B400211B
:1008600000F1240408E002F00705D208303542EA1E
:100870004372DB086554491C52EA0305F3D104684E
:10088000002310A2250708D504F020040C4304D04F
:10089000C46901230CA2641EC46130BC00F06DB9B0
:1008A00010B5044621461068FFF793FE0246204625
:1008B000BDE810400023D1E7D21D22F00701D1E9A5
:1008C0000023CBE70000000030000000F0B40D462C
:1008D0000188090502D5214C7C4402E01F4C7C4470
:1008E0000E34002100F1240608E002F00F0712097F
:1008F000E75D42EA03721B097754491C52EA030779
:10090000F3D102780023120704D5702D06D009B167
:10091000022311342246F0BC00F02FB90123103419
:10092000F8E770B504460D4621461068FFF751FE02
:10093000024629462046BDE870400023C6E7D21D86
:1009400022F00703D3E90023C0E70368126843F0ED
:10095000200303600823C3610023B7E7E43B0000E2
:100960002DE9F05F894604464FF0000ADFF874B1C4
:10097000FB44C0F820A02046E1688847002874D0D6
:10098000252806D0D4E901219047206A401C206226
:10099000F1E700265F462046E168884720280546A3
:1009A00007DB312D05D2781910F8200C08B1064369
:1009B000F1E7B00701D526F00406C4F81CA0002713
:1009C000C4F818A02A2D09D0284603F02FFD38B30B
:1009D00004EB8708303DC8F8185019E059F8041B9B
:1009E000204604EB87029161E1688847012F0546A4
:1009F00018D1E069002820DA26F020061DE0D8F89A
:100A0000180000EB800005EB40003038C8F81800F3
:100A10002046E1688847054603F008FD0028EED12E
:100A2000012F0AD02E2D08D12046E16888477F1C6F
:100A30000546022F46F02006C4DBA069002803DA31
:100A4000404246F00106A061F00701D026F01006F2
:100A50006C2D0BD0682D09D04C2D39D06A2D35D096
:100A6000742D35D07A2D33D016E038E0E1682F466A
:100A700020468847B842054609D16C2F26D04FF44E
:100A80008060E168064320468847054604E06C2FF5
:100A90001AD04FF4807006430DB3A5F14100192818
:100AA00002D8203546F400664A462946204626608C
:100AB0004E46FFF74FFC80B101280BD0F61D26F003
:100AC000070000F1080956E74020E4E78020D8E756
:100AD0000020D6E706F104094DE7284652E7206AD0
:100AE000BDE8F09F743B000000487047A817002441
:100AF00030B5B0F10A0271F100034FEA900E4EEAF0
:100B0000817EB0EB0E0061EB91014FEA101E4EEAC0
:100B1000017E10EB0E0041EB11114FEA102E4EEA50
:100B2000016E10EB0E0041EB11214FEA104E4EEA20
:100B3000014E10EB0E0041EB1141401841F1000154
:100B40004FEAD00040EA41704FEAD1014FEA8104F8
:100B500044EA907410EB800544EB01046D1944EBFA
:100B60000404521BA3414FF0000348BF0A3200D5D2
:100B700030BD401C41F1000130BD2DE9F0470D466C
:100B800099469246044600F124080168880604D577
:100B9000E06921F01001216000E00120A84201DDA0
:100BA000471B00E00027A1697A1902EB0900081A27
:100BB000A0612078C00602D42046FFF7DAFC0026A8
:100BC00008E0D4E901211AF806009047206A401C89
:100BD000761C20624E45F4DB2078C0060AD52046FC
:100BE000FFF7C7FC06E0D4E9012130209047206AD6
:100BF000401C2062381EA7F10107F4DC07E0D4E9AD
:100C0000012118F805009047206A401C2062281E28
:100C1000A5F10105F3DC2046FFF7C1FC20780006B2
:100C200002D50220BDE8F0870120FBE72DE9FF4F48
:100C30000C461E464FF0FF378BB0D2E90001DDF8BD
:100C400060800A908A46C1F30A5505B93D460021E5
:100C500008464FF00000BAF1000F00F4400005DA3A
:100C600000EB80004FF4400101EA50004FEA905938
:100C7000B9F1010F00DDB9460A9850EA4A000ED0DA
:100C800044F61050A5F2FF3545432F14B8F1000F7C
:100C90001ED07542291E1EDDC9F100021CE0B8F10C
:100CA000010F4FF0000001D0302103E0F24305E0D6
:100CB0002154401CB042FBDB30460022002121546D
:100CC0000B99C1F80880C1E900200FB0BDE8F08F92
:100CD000BD1B6D1CDEE74A4600DA694206A800F03B
:100CE0005DFB06AB93E8070003AB83E807005046C3
:100CF0000A9902F0BBFF8DE80700A0F500501F38ED
:100D000000900398002D0ADD42F21F014A46084474
:100D1000002303A90390684603F024FA09E0A0F534
:100D200000504A461F38002303A90390684603F089
:100D30002EFA8DE807000004000C03D04FF0FF30BE
:100D4000410800E01046B8F1000F03D000220092E5
:100D500015461EE0751E05D4FFF7CAFE30326255F7
:100D60006D1EF9D5B3460122084302D000227F1C34
:100D700004E02078302801D100227F1E002A099744
:100D800084D01DE0112D07DAFFF7B2FE3032625534
:100D90006D1C50EA0102F5D1084302D00098C8B199
:100DA0000EE00021681E05E0235C625C635422545F
:100DB000401E491C8142F7DBAB46A81B401E099030
:100DC000002004F80B000B98099AC0F80880C0E9CD
:100DD000002B7AE711264FF0000857E72DE9F04F76
:100DE00088460446D21D22F0070191B0D1E90001E6
:100DF000CDE90A0103F002FB02460B98C00F01D0B7
:100E00002D2007E02068810701D52B2002E020215A
:100E100001EAC000032A099001D0072A05DB034636
:100E20004146204600F082FB0BE12078800601D588
:100E3000E06900E00620B8F1650F814606D0B8F100
:100E4000660F18D0B8F1670F70D131E00020B9F10A
:100E5000110F009001DB112301E009F101030AAA3F
:100E600001A90CA8FFF7E2FEDDE90C70002609F1EC
:100E70000105834647E001204B4600904FF00047B4
:100E80000AAA01A90CA8FFF7D1FEDDE90DB00C9963
:100E90005D46002610B909F101000D18B9EB0500F7
:100EA00003D4C0F1FF3609F10105A5EB09002BE0E1
:100EB000B9F1010F01DA4FF001090020B9F1110F6A
:100EC0000090484601DD112300E003460AAA01A96B
:100ED0000CA8FFF7ABFEDDE90C704D4600268346FB
:100EE000207800070AD4AB4500DA5D4601A8012D41
:100EF00004DD411911F8011C302907D04F4502DAF1
:100F000017F1040F04DA012082460FE06D1EEEE7B0
:100F1000002F02DCED1B3E4403E0781CA84200DDFC
:100F20007D1CB81B00F1010A4FF000472078000734
:100F300003D4AA4501DB4FF0FF3A0021B7F1004F7F
:100F40000DF143088DF8431024D002202B23002FED
:100F500001DA7F422D230A21021EA0F1010000DCEC
:100F60005FB197FBF1FC97FBF1F201FB1C7C17468C
:100F70000CF1300C08F801CDEEE7A8F10100037088
:100F80002188090501D5452100E06521A0F101086E
:100F900000F8011C09980FA9A1EB0807FF1D00B17B
:100FA0000120411901EBEA70A1693844081A401E7A
:100FB000A0612078C00602D42046FFF7DAFA09982B
:100FC00028B1D4E901219047206A401C2062207892
:100FD000C00622D52046FFF7CCFA1EE0002E04DB27
:100FE000B34502DD01A8805D00E03020D4E9012195
:100FF0009047206A401C2062761CAAF101005FEA3B
:10100000000A0AD1FFF770FDC0680168405CD4E9AE
:1010100001219047206A401C2062281EA5F101058D
:10102000DCDC07E0D4E9012118F8010B9047206AC5
:10103000401C2062381EA7F10107F3DC2046FFF7B1
:10104000AEFA032011B041E62DE9F04F04460D46FB
:10105000D21D22F0070089B0D0E9009748463946F2
:1010600003F0CCF90246F80F01D02D2307E02068E9
:10107000810701D52B2302E0202101EAC0038DF86E
:1010800020300BB1012000E00020032A824601D06D
:10109000072A04DB2946204600F048FA3FE1207881
:1010A000800601D40D2500E0E569C7F30A560D2D31
:1010B00049DA00214FEA175B08464FF00000002F85
:1010C00000F4400007DA00EB80004FF4400100EB31
:1010D000D07001EA60008115012901DD4FF0FF3178
:1010E00000224FEA850CBCF1180F06D31346ACF171
:1010F00018004FF08052C24003E04FF4801323FAEF
:101100000CF30CF10C0CBCF1200F04D3ACF1200C4F
:1011100009FA0CF001E007FA0CF000294FF0004842
:1011200001DD18B90FE00ED140450CD319EB0209CF
:101130005F4121B9404502D19F4329EA0209BBEB37
:10114000175F00D0761C2088000502D57B487844C4
:1011500002E07A487844193808AA302302F80A30A5
:10116000037C0AF10101002E0AF1020A53546A4677
:1011700002DC4FF0300101E04FF031014FF0010887
:101180008DF8001002D0A6F2FF3603E059EA4701BD
:1011900000D06B4E002D02DC2178090704D54FF0FA
:1011A00002082E218DF80110C44600210BE0C7F380
:1011B00003433F01C35C491C6D1E02F8083005293A
:1011C00008F1010801DA002DF1DC00210CE000EB50
:1011D0001973491C1B786D1E082902F808304FEA64
:1011E000091908F1010801DA002DF0DC21688B06ED
:1011F00002D516E0A8F10108E04505DD02EB080381
:1012000013F8013C302BF5D0B8F1000F09DD02EBEB
:10121000080313F8013C2E2B03D1090701D4A8F1D0
:101220000108002D05DD3E2102F808106D1E08F1B1
:101230000108407C002E02F8080008F1010804DAD9
:101240002D20764202F8080002E02B2002F8080068
:101250000A214FF47A70864208F101080BDB96FBF5
:10126000F0F3303302F8083096FBF0F308F1010890
:1012700000FB136601E0642E0CDB642096FBF0F3A8
:10128000303302F8083096FBF0F308F1010800FB58
:10129000136601E00A2E06DB96FBF1F0303002F80F
:1012A000080008F1010896FBF1F001FB10603030F6
:1012B00002F80800A16908F1010808EB050202EB39
:1012C0000A00081AA0612078C00602D42046FFF761
:1012D00050F9216A08AE01EB0A00206204E0D4E96B
:1012E000012116F8010B9047BAF1010AF7D22078D4
:1012F000C00602D52046FFF73CF96E4609E016F815
:10130000010B3E280FD0D4E901219047206A401CF0
:101310002062B8F10108F2D22046FFF740F909B087
:101320000320BDE8F08F206A2844206203E0D4E95E
:101330000121302090476D1EEBD3F8E7BA3300004F
:1013400002FCFFFF10B5436913B1AFF3008001E069
:10135000FFF748F9012010BD127800F124010A704E
:1013600000224A700122EDE711684FF0FF32E9E7F1
:1013700010B5436913B1AFF3008001E0FFF7D2F974
:10138000012010BD128800F1240182840022C28451
:101390000122EDE711684FF0FF32E9E72DE9F04750
:1013A000814616468AB0354878440DC88DE80D0050
:1013B00032487844801C03AC0DC884E80D0041F627
:1013C0009B300844372190FBF1F290FBF1F5A5F139
:1013D000800501FB12041B3C02D56442012000E0A1
:1013E0000020DFF898A080460027FA44AAF1BE0A40
:1013F0000EE0E0070AD03246684607EB47010123BA
:101400000AEB810102F0C3FE8DE8070064107F1C27
:10141000002CEED1194F7F44AE3F19E0E80715D0FC
:1014200007EB04100DF1180A90E80E008AE80E0090
:10143000C068F04201D1981908903246012306A9EC
:1014400003A802F0A4FE03AB83E807006D10641C40
:10145000002DE3D14FF0010332466946B8F1000F89
:1014600003A802D002F07EFE01E002F090FEC9E97E
:101470000001C9F808200AB0BDE8F087F03100008B
:101480002DE9F04116460C46054600F047F8036882
:1014900093F80101012807D0FF2C12D8185D80B104
:1014A00001202C70BDE8F081D3F8070132462146B7
:1014B00003F20713C7182846BC46BDE8F0410023D5
:1014C00060474FF0FF30EDE7004870478817002471
:1014D0007546FFF7F9FFAE4605006946534620F012
:1014E0000700854618B020B5FEF7AEFFBDE82040E6
:1014F0004FF000064FF000074FF000084FF0000BD0
:10150000AC46ACE8C009ACE8C009ACE8C009ACE83E
:10151000C00921F007018D467047000010B5FFF7A4
:10152000E3FA001D10BD00BF412F00002DE9F0417E
:101530001F46044603260168072A01F4006004DB05
:1015400008B116A505E016A503E008B115A500E051
:1015500015A521F010002060A069C01EA0610FB188
:10156000401EA0612046FFF704F84FB1D4E90121E5
:1015700038469047206A401C2062C01C206206E06A
:10158000206AFAE7D4E9012115F8010B9047761E8D
:10159000F8D22046FFF703F8BDE8F0814E414E0037
:1015A0006E616E00494E4600696E660010B50446D5
:1015B000AFF300802046BDE81040FEF730BF0000CA
:1015C00001491820ABBEFEE726000200704790EDEF
:1015D0000A1A90ED0B0AB4EE401AF1EE10FA06DC8E
:1015E000B1EE400AB4EE401AF1EE10FA01DA80EDE5
:1015F0000A0A7047FEE7000090ED0C1A90ED090A08
:101600004448B1EE412AB4EE410AF1EE10FA80FEF0
:10161000022A31FE020A91ED0C1AB1EE412A80ED48
:10162000060A80ED020A91ED090AB4EE410AF1EED4
:1016300010FA80FE022A31FE020A80ED040A80EDD3
:10164000000A704770470000044C05A5EFF31080B6
:1016500072B62046294602F082FAFAE7101B0024EF
:101660004552524F52210D0A00000000B0B5294CDE
:10167000012094ED000A2071B5EE400AF1EE10FA57
:101680000FDA01200121C82202F0AEFA94ED040A1B
:1016900000202075B1EE400ABCEEC00A10EE102A00
:1016A0000AE0BCEEC00A0120012110EE102A02F06F
:1016B0009BFA00202075C82203200021002502F09B
:1016C00093FA94ED020A01202073B5EE400AF1EE80
:1016D00010FA0EDA02200121C82202F085FA94EDF8
:1016E000060A2577B1EE400ABCEEC00A10EE102AB9
:1016F00009E0BCEEC00A0220012110EE102A02F01F
:1017000073FA2577C82204200021BDE8B04002F01A
:101710006BBA00BFE81B0024F8B5044600F06CFB70
:10172000002C00F0BB80054694F83500022840F0FC
:10173000B0802768C14EB7421CBFC14887421ED047
:10174000C04887421CBFC048874218D0BF48874264
:101750001CBFBF48874212D0BE4887421CBFBE484C
:1017600087420CD0BD4887421CBFBD48874206D087
:10177000BC4887421CBFBC48874240F00E81386895
:10178000394620F01E00386051F8140F20F0800018
:10179000B74208603CD0AA4887421CBFA94887428C
:1017A00036D0A94887421CBFA848874230D0A848F5
:1017B00087421CBFA74887422AD0A74887421CBF40
:1017C000A648874224D0A64887421CBFA548874226
:1017D0001ED0A54887421CBFA448874218D0A54800
:1017E00087421CBFA248874212D0A34887421CBF31
:1017F000A24887420CD0A24887421CBFA14887421A
:1018000006D0A14887421CBFA048874240F0FE8016
:10181000206EB742016821F48071016024D0FA483B
:1018200087421CBFF94887421ED0F94887421CBF37
:10183000F848874218D0F84887421CBFF7488742CB
:1018400012D0F74887421CBFF64887420CD0F648B2
:1018500087421CBFF548874206D0F54887421CBF27
:10186000F448874240F0AE80386820F001003860CC
:101870003868C00714D000F0BFFA401B0628F7D321
:1018800020206065002084F83400032084F83500AF
:1018900004E0002084F83400802060650120F8BD59
:1018A0002068B0421CBFD84988421DD0D749884221
:1018B0001CBFD749884217D0D64988421CBFD64999
:1018C000884211D0D54988421CBFD54988420BD0E7
:1018D000D44988421CBFD449884205D0D3498842A4
:1018E0001CBFD349884278D1A16DE26D3F2302F03D
:1018F0001F0203FA02F28A60B0423BD0C24988421A
:101900001CBFC249884235D0C14988421CBFC14969
:1019100088422FD0C04988421CBFC049884229D084
:10192000BF4988421CBFBF49884223D0BE49884274
:101930001CBFBE4988421DD0BD4988421CBFBD495D
:10194000884217D0BC4988421CBFBD49884211D08B
:10195000BA4988421CBFBB4988420BD0BA49884269
:101960001CBFBA49884205D0B94988421CBFB94951
:10197000884258D1E06ED4E919124A6030B101684A
:1019800021F480710160D4E91C014160012084F8D8
:101990003500002084F83400F8BDA64887423FF4A3
:1019A000EEAEA74887423FF4EAAEA34887423FF431
:1019B000E6AEA24938688F423FF4E2AE20F00E0056
:1019C0003946E5E69C4887423FF44EAF9B48874244
:1019D0003FF44AAF9A48874246E7964988423FF427
:1019E00083AF974988423FF47FAF934988423FF4E1
:1019F0007BAF924AA16D90423FF477AFE26D012335
:101A000002F01F0203FA02F24A6075E79248874229
:101A10003FF4FEAE914887423FF4FAAE90488742C9
:101A20003FF4F6AE20E78C498842A3D08B49884228
:101A3000A0D08B4988429DD0A8E700BF100002408B
:101A4000280002404000024058000240700002405E
:101A500088000240A0000240B8000240100402408A
:101A6000280402404004024058040240700402402E
:101A7000A004024088040240B804024008540258FE
:101A80001C540258305402584454025858540258B6
:101A9000B0B500285DD090F83510022957D1016803
:101AA000584A914223D0584B99421CBF574B9942F8
:101AB0001DD0574B99421CBF564B994217D0564BDD
:101AC00099421CBF554B994211D0554B99421CBFAE
:101AD000544B99420BD0544B99421CBF534B9942E3
:101AE00005D0534B99421CBF524B994234D191427D
:101AF0004FF0040380F8353023D0434881421CBFA7
:101B0000424881421DD0424881421CBF4148814227
:101B100017D0414881421CBF4048814211D0404803
:101B200081421CBF3F4881420BD03F4881421CBFCD
:101B30003E48814205D03E4881421CBF3D4881421B
:101B40004DD1086820F001000860002102E08021EA
:101B5000416501210846B0BD374B9942C7D0374B8C
:101B60009942C4D0364B9942C1D00A6822F00E0285
:101B70000A600A6822F001020A60324A91420BD0E0
:101B8000314A91421CBF314A914205D0304A9142BC
:101B90001CBF304A91422BD100F158041ECC1D6865
:101BA00025F480751D6002F01F02012303FA02F282
:101BB0004A60816E6160C16E31B10A6822F4807240
:101BC0000A60D0E91C124A60012180F83510026DCC
:101BD000002180F83410002ABCD09047B5E71648A1
:101BE0008142AED015488142ABD015488142A8E76A
:101BF000194A9142D0D0194A9142CDD0184A914207
:101C0000CAD0E1E710000240280002404000024034
:101C1000580002407000024088000240A0000240CC
:101C2000B800024010040240280402404004024070
:101C3000580402407004024088040240B804024084
:101C4000A0040240085402581C5402583054025850
:101C500044540258585402586C5402589454025830
:101C6000805402582DE9F84F594A4FF00A0A4FF0B4
:101C700000084FF0010B4FF0000C9042554A08BF8E
:101C80004FF0090A02444FEAB223092B38BF4FEA4A
:101C9000B22A00220D6835FA02F600F097800BFA9E
:101CA00002F715EA070900F084804E68122E00F250
:101CB00086800BFA06F414F0061F00F080800323E0
:101CC00003FA0CF48368CD68A34305FA0CF56FEAB8
:101CD000040E2B43836033094568BD43934057008E
:101CE0002B434360C3688C6803EA0E03BC40234364
:101CF000C36046F01003122B11D16FF0030508F0FA
:101D00001C030F2405EA52059C4005442E6A26EA6E
:101D100004040E6906FA03F323432B624E6803683A
:101D200006F0030403EA0E03BC4023430360F30000
:101D30003FD5644C294F4FF0B04E236843F0020367
:101D4000236023680F2403F002030093009D08F032
:101D50000C0322F003059C400AFA03F3EE5926EA2D
:101D600004042343EB511C4FFB6F4D6843EA090405
:101D7000EE0358BF23EA0904FC67AE03D7F88030AE
:101D800043EA090458BF23EA0904C7F88040EE0279
:101D9000DEF8003043EA090458BF23EA0904CEF80C
:101DA0000040AD023B6843EA090458BF23EA090436
:101DB0003C6008F104080CF1020C01326AE70323CD
:101DC000674603FA0CF46FEA040E8BE7BDE8F88F60
:101DD000002402580000FEA7040000580804005820
:101DE000002A08BF090481617047000001480068AB
:101DF000000C70470010005C05480068704700BF89
:101E00002748034900780A6810440860704700BFFB
:101E10000C1C002480B5032000F072F800F0B6F925
:101E20000E49D64B0A68C2F30322096801F00F017C
:101E30009A5C595C02F01F02D040D14A01F01F01A8
:101E40001060C840CF490860002000F009F808B1D0
:101E5000012080BD00F026F8002080BD1844025803
:101E600070B50F4E04463078B0B14FF47A71B1FBC3
:101E7000F0F0C3490968B1FBF0F000F0FFFF012565
:101E80000F2C0AD848B94FF0FF3021460022002518
:101E900000F01AF8746000E00125284670BD00BF0C
:101EA0000000002481B00748016841F00201016090
:101EB000006800F0020000900098052001B000F0DA
:101EC0001FB800BFF444025870B5134B4FF0FF35F4
:101ED0001B68C3F30223DC1E83F0070338BF002412
:101EE000042B28BF042305FA04F605FA03F3B243D2
:101EF0009943A1401143BDE8704001F053BE00BFBB
:101F000005494FF6FF030A681A4060F30A220348A6
:101F100010430860704700BF0CED00E00000FA05B8
:101F2000B0B5104D2A682968520705D401F00701A1
:101F3000081A18BF0120B0BD21F00701084328602E
:101F4000FFF75AFF044655F8080C800407D4FFF742
:101F500053FF001BB0F57A7FF5D90120B0BD0020FA
:101F6000B0BD00BF0C4802582DE9F843002800F02E
:101F70000081814D04468846286800F00F008842A1
:101F80000BD2286820F00F0040EA0800286028687B
:101F900000F00F00404540F0EC802068B04F410752
:101FA0000AD52169BA6902F07002914204D9BA696E
:101FB00022F070021143B96101070AD56169FA691B
:101FC00002F07002914204D9FA6922F070021143C2
:101FD000F961C1060AD5A169FA6902F4E062914289
:101FE00004D9FA6922F4E0621143F96181060AD545
:101FF000E1693A6A02F07002914204D93A6A22F029
:1020000070021143396210F002010AD0E268BB6924
:1020100003F00F039A4204D9BB6923F00F031A435C
:10202000BA61C2073AD0D4E90101BA6922F47062F8
:10203000032841EA0201B96105D0022807D13968B5
:1020400089030DD495E03968890109D491E0396894
:10205000012802D1C90503D48BE0490740F18980EA
:102060003969A94621F0070108433861FFF7C4FE2A
:10207000064641F288356068396901F03801B1EBF4
:10208000C00F07D0FFF7B8FE801BA842F3D903208A
:10209000BDE8F88320684D4600F0020151B1E168C7
:1020A000BA6902F00F02914204D2BA6922F00F021B
:1020B0001143B961296801F00F0141450AD9296826
:1020C00021F00F0141EA08012960296801F00F01A0
:1020D00041454ED141070AD52169BA6902F0700223
:1020E000914204D2BA6922F070021143B96101072A
:1020F0000AD56169FA6902F07002914204D2FA6964
:1021000022F070021143F961C1060AD5A169FA698A
:1021100002F4E062914204D2FA6922F4E0621143CF
:10212000F96180060AD5E069396A01F070018842D8
:1021300004D2396A21F070010843386200F026F8B1
:10214000B9690E4A0E4BC1F30321515C01F01F0126
:10215000C840B969186001F00F01515C01F01F011E
:10216000C8400849086008480068BDE8F843FFF720
:1021700077BE0120BDE8F88300200052B445000876
:10218000080000240C0000240400002410B5344989
:102190000869C0F3C20003280BD002282FD080BBEF
:1021A0000868800634485AD50968C1F3C101C8409F
:1021B00010BD8A6A886ACB6A4C6B03F00103C4F3D2
:1021C000CC04634300EE103AB8EE400AC0F30510A9
:1021D000C8B102F00302022A17D0CAB90A689206EF
:1021E00051BF9FED241A0A68C2F3C102224B42BFBD
:1021F00023FA02F201EE102AB8EE411A0AE01A4858
:1022000010BD184810BD002010BD9FED191A01E047
:102210009FED161A0A6B9FED193A6FF35F2202EEDB
:10222000102AB8EE422A00EE032AB7EE000A32EE78
:10223000000A02EE100AB8EE422A086BC0F34620EC
:1022400081EE021A013021EE000A01EE100AB8EE0A
:10225000411A80EE010ABCEEC00A10EE100A10BD51
:102260000044025800093D0040787D010024744A72
:1022700020BCBE4B0024744C0090D00300000039F9
:10228000F8B5002800F0E88004460078D34EC00777
:1022900012D0306900F03801B06A102905D0182931
:1022A0002CD100F00300022828D13068800303D528
:1022B0006068002800F0D0802078800750D5306911
:1022C00010F03801B06A2CD0182908BF5FEA80707E
:1022D00027D03068E168002900F0088120F019005B
:1022E00008433060FFF788FD0546306840071FD47B
:1022F000FFF782FD401B0228F7D984E160680028BF
:1023000000F00581B0F5803F07D03168B0F5A02F0F
:1023100040F0668141F480203060306840F48030C5
:1023200064E13068400703D5E068002800F094803D
:10233000FFF75CFD41F2030188420AD82069716809
:1023400021F47C31402814BF41EA003041F40030D0
:1023500005E02069716821F0FE4141EA006070608B
:102360002078C0063ED5306900F03801B06A0829EF
:1023700005D018291BD100F00300012817D13068BF
:10238000C00502D5E069802866D1FFF72FFD41F234
:10239000030188421FD8206A716821F0F841202883
:1023A00014BF41EA806041F0804070601AE03068FC
:1023B000E169002900F0E28040F080003060FFF722
:1023C0001BFD05463068C005DFD4FFF715FD401B37
:1023D0000228F7D917E1206AF16821F07C5141EA1F
:1023E0000060F0602078000738D42078800647D459
:1023F0002078400757D4676A67B3306900F0380027
:10240000182840F0CC80B16A306B012F24D0A26A2A
:1024100001F0030393421FD1E26AC1F30511914217
:102420001AD10146226B6FF35F21013A914213D119
:10243000C0F34621626B013A91420DD1C0F30641CF
:10244000A26B013A914207D1C0F30660E16B0139FA
:10245000884201D1002065E10120F8BD706F6169FB
:10246000A1B340F001007067FFF7C6FC0546706F2E
:102470008007BAD4FFF7C0FC401B0228F7D9C2E09E
:102480003068A169002968D040F480503060FFF7BF
:10249000B3FC054630688004AAD4FFF7ADFC401BAE
:1024A0000228F7D9AFE0D6F8000440F48070C6F8EF
:1024B0000004FFF7A1FC0546D6F80004C0053CD493
:1024C000FFF79AFC401B6428F6D99CE020F001003D
:1024D0007067FFF791FC0546706F80077FF585AF49
:1024E000FFF78AFC401B0228F6D98CE020F001009F
:1024F0003060FFF781FC0546306840077FF530AF5C
:10250000FFF77AFC411B03200229F5D90AE1306864
:1025100020F480303060306820F480203060FFF795
:102520006BFC0546306880037FF5C6AEFFF764FCA0
:10253000411B03206429F5D9F4E0A068002864D089
:10254000012806D0316F052840F0D68041F0040004
:102550003067306F40F00100D4E020F480503060EC
:10256000FFF74AFC0546306880047FF541AFFFF76E
:1025700043FC411B03200229F5D9D3E020F0800061
:102580003060FFF739FC05463068C0057FF52AAF9B
:10259000FFF732FC411B03200229F5D9C2E0306865
:1025A00020F080703060FFF727FC0546022F09D12C
:1025B0003068800141D5FFF71FFC411B0320022931
:1025C000F6D9AFE0306880017FF544AFFFF714FC27
:1025D000411B03200229F5D9A4E000BF00440258A2
:1025E00021F480303060306820F480203060FFF7C4
:1025F00003FC0546306880033FF55EAEFFF7FCFB49
:10260000401B6428F6D90320F8BD306F20F001008C
:102610003067306F20F004003067FFF7EDFB0546B0
:1026200041F28837306F80077FF5E5AEFFF7E4FBB6
:10263000411B0320B942F5D974E004F12805B06AC2
:1026400040F2F33188432ECD0843591E40EA021070
:10265000B0626FF35F214FF4FE024FF47E4000EB57
:10266000452080B20844A16B02EB01414FF0FE42CD
:1026700001F4FE010844E16B02EB016101F0FE414F
:10268000084430634FF6F871F06A20F00100F06200
:10269000706B8843A16C40EAC1007063206CF16AE2
:1026A00021F00C010843F062F06A616C20F0020036
:1026B0000843F062F06A40F48030F062F06A40F45F
:1026C0000030F062F06A40F48020F062F06A40F07E
:1026D0000100F062306840F080703060FFF78CFBE2
:1026E0000446306880013FF5B5AEFFF785FB011B5E
:1026F00003200229F5D915E021F001003067306F81
:1027000020F004003067FFF777FB054641F2883779
:10271000306F80073FF56FAEFFF76EFB411B032064
:10272000B942F5D9F8BD2DE9FC470446D0E900903F
:102730001D4617460E46B0F5800F02D1A06800284E
:1027400076D094F8800001286FD0012084F88000B2
:10275000FFF752FB804694F88100012862D1002ED9
:1027600072D0002F70D0042084F881000020C4F8BB
:102770008400A4F86A70A4F868706666A4F8600023
:10278000E065C4E91C00A4F86200A1682068B1F506
:10279000C02F03D1016821F40061016041684FF648
:1027A000FF72914339444160016841F001010160C9
:1027B0006168B1F5800F03D1016841F400710160D7
:1027C000E168102946D348F208066F1CB4F86A0085
:1027D000002800F0A98020684169314209D0006BCF
:1027E000616E01C16166B4F86A000138A4F86A003C
:1027F000ECE7FFF701FB002FE8D0A0EB0800A842B0
:10280000E4D3204601F00AF8D4F8840040F4807044
:10281000C4F88400002084F88000012084F881003E
:10282000BDE8FC87002084F880000220BDE8FC871A
:10283000042084F88100314632463B46009520460C
:1028400000F094F9BDE8FC87002084F880000120A6
:10285000BDE8FC874FF6FC706E1C07292AD900F1F1
:10286000030A871CB4F86A0000285DD0206841691B
:1028700011F4604F0AD04169090410D4B9F830004E
:10288000616E21F8020B504661660DE0FFF7B4FA65
:10289000002EE7D0A0EB0800A842E3D3B1E7006B1D
:1028A000616E01C161663846B4F86A100844A4F844
:1028B0006A00D7E700F1020AC71CB4F86A0098B3AF
:1028C0002068416911F4604F10D04169090416D4A1
:1028D000416901F4C041B1F5005F17D9B9F8300082
:1028E000616E21F8020B6166504617E0FFF784FA2B
:1028F000002EE2D0A0EB0800A842DED381E7006BF7
:10290000616E01C161664FF6FC7007E090F830001F
:10291000616E0870606E013060663846B4F86A1007
:102920000844A4F86A00C8E7204600F077FF0120B9
:1029300084F88100002084F88000D4F88400002806
:1029400018BF0120BDE8FC872DE9F047044690F848
:102950008000012862D001201D4617460E46D4F89B
:10296000009084F88000FFF747FA804694F88100D1
:10297000012850D1002E54D0002F52D0032084F8CB
:1029800081000020C4F88400A4F86270A4F860708C
:10299000E665A4F868006066C4E91C00A4F86A0053
:1029A000A1682068B1F5C02F03D1016841F400612E
:1029B000016041684FF6FF729143394441600168FC
:1029C00041F0010101606168B1F5800F03D1016838
:1029D00041F400710160E068102828D36E1CB4F83F
:1029E0006200002800F0958020684169890708D4BA
:1029F000FFF702FA002EF2D0A0EB0800A842EED3B7
:102A0000A3E0E16D04C90262E165B4F86200013837
:102A1000A4F86200E3E7002084F880000220BDE80B
:102A2000F087002084F880000120BDE8F0870728A7
:102A30002FD94FF6FC706E1C00F1020AC71CB4F8C7
:102A40006200002865D020684169890708D4FFF733
:102A5000D3F9002EF3D0A0EB0800A842EFD374E026
:102A6000B4F86210022907D3E16B29B1E16D04C902
:102A70000262E165504606E0E06D30F8021BA9F8FD
:102A80002010E0653846B4F862100844A4F86200EB
:102A9000D5E74FF6FC706E1C00F1020AC71CB4F8B3
:102AA0006200B0B320684169890708D4FFF7A4F930
:102AB000002EF4D0A0EB0800A842F0D345E0B4F813
:102AC0006210042909D3E16B412906D3E16D04C9E1
:102AD0000262E1654FF6FC7015E0B4F8621002295D
:102AE00009D3E16B39B1E06D30F8021BA9F8201071
:102AF000E065504607E0E16D097880F82010E06D50
:102B00000130E0653846B4F862100844A4F8620069
:102B1000C5E7204641462A4600F0D6FE28B1D4F843
:102B2000840040F02000C4F88400204600F076FEC7
:102B3000012084F88100002084F88000D4F884000B
:102B4000002818BF0120BDE8F087204600F066FE8F
:102B5000D4F8840040F48070C4F88400002084F825
:102B60008000012084F88100BDE8F0872DE9F84F4E
:102B7000044690F88000012800F0868001209A46E3
:102B800015460E46D4F8009084F88000FFF734F91B
:102B9000804694F88100012869D1002E77D0002D5D
:102BA00075D0BAF1000F72D094F88100042802D0D9
:102BB000052084F881000021C4F88410A4F86AA0DC
:102BC000A4F862A04FF6FF77D4E90002B2F5800FB7
:102BD000436823EA0703534443606566A4F868A08A
:102BE000E665C4E91C11A4F860A0016841F0010188
:102BF000016003D1016841F400710160E168DDF812
:102C000028B0102949D348F208050BF101065746B0
:102C100057EA0A0000F015812068BAF1000F4169F7
:102C200018BF11F002010AD0E16D04C90262B4F8C4
:102C30006220013AA4F86220E165B4F862A041691B
:102C400067B129400AD0006BB4F86A100139A4F8C2
:102C50006A10616E01C16166B4F86A70FFF7CCF862
:102C6000002ED5D0A0EB08005845D1D3D8E061683C
:102C7000B1F5800F05D1042803D1A06800283FF4E6
:102C80008CAF002084F880000220BDE8F88F00207F
:102C900084F880000120BDE8F88F4FF6FE700BF13C
:102CA000010507294DD9471C564656EA0A0000F08F
:102CB000C8802068BAF1000F416918BF11F0020105
:102CC00019D0BAF1010F08D0E16B31B1E16D04C93F
:102CD0000262E1654FF6FE7106E0E16D31F8022B0C
:102CE000A9F82020E1653946B4F862201144A4F81F
:102CF0006210B4F862A04169D6B111F4604117D0F6
:102D00004169090407D4B9F83000616E21F8020B5B
:102D10003846616605E0006B616E01C161664FF681
:102D2000FE70B4F86A100844A4F86A00B4F86A6047
:102D3000FFF762F8002DB8D0A0EB08005845B4D3D7
:102D40006EE0861E5746411C009157EA0A0078D073
:102D50002068BAF1000F416918BF11F002012BD0B1
:102D6000BAF1040F09D3E16B41290AD3E16D04C91B
:102D70000262B4F86220043A0CE0BAF1020F0CD3FC
:102D8000E16B51B1E16D31F8022BA9F82020B4F8C4
:102D90006220023AA4F862200BE0E16D097880F825
:102DA0002010B4F862000138A4F86200E16D2068D8
:102DB0000131E165B4F862A041694FB311F460419B
:102DC00026D0416909040ED4416901F4C041B1F52E
:102DD000005F0ED9B9F83000616E21F8020B616610
:102DE0004FF6FE700DE0006B616E01C1616630460A
:102DF00007E090F83000616E0870606E0130606628
:102E00000098B4F86A100844A4F86A00B4F86A702C
:102E1000FEF7F2FF002D98D0A0EB0800584594D3A0
:102E2000204600F0FBFCD4F8840040F48070C4F825
:102E30008400002084F88000012084F88100BDE82F
:102E4000F88F204641465A4600F03EFD28B1D4F89E
:102E5000840040F02000C4F88400204600F0DEFC2E
:102E6000012084F88100002084F88000D4F88400D8
:102E7000002818BF0120BDE8F88F0000411E002087
:102E8000B0EB116F01D001207047044AF02351606C
:102E900003490B70906007211160704710E000E05B
:102EA00023ED00E0704770477047704710B5044647
:102EB00000680169890744BFC1685FEA817140D435
:102EC0000169490744BFC1685FEA417145D401699E
:102ED000090744BFC1685FEA01714BD40169C906A3
:102EE00044BFC1685FEAC16150D40169C9071CBF12
:102EF000C1685FEAC17156D10169090644BFC16862
:102F00005FEA016157D40169C90544BFC1685FEA3E
:102F1000016158D40169490644BFC1685FEA416153
:102F200059D40169890644BFC1685FEA816100D450
:102F300010BD6FF0200101612046BDE81040FFF791
:102F4000B3BF6FF002010161012121778069800721
:102F500049D02046FFF7A9FF4BE06FF00401016163
:102F600002212177806910F4407F46D02046FFF788
:102F70009CFF48E06FF00801016104212177C069DE
:102F8000800744D02046FFF790FF46E06FF0100125
:102F9000016108212177C06910F4407F41D02046AB
:102FA000FFF783FF43E06FF001010161204600F06D
:102FB00047F82068A0E76FF0800101612046FFF725
:102FC00072FF20689FE76FF4807101612046FFF770
:102FD00069FF20689EE76FF040010161204600F024
:102FE0006BF920689DE7204600F025F8204600F0A8
:102FF00023F800202077206862E7204600F01BF8C5
:10300000204600F019F80020207720685FE720466E
:1030100000F011F8204600F00FF80020207720681B
:103020005CE7204600F007F8204600F005F8002095
:103030002077206859E770477047000000000000C3
:103040002DE9F0412DED028B8F49884203D0BDEC74
:10305000028BBDE8F08100F08FFB8C4D288000F0E2
:103060008FFB68808A48007801380328EFD8DFE8B2
:1030700000F0021202598C4E307C96ED000A96ED5B
:10308000021AB4EE401A002857D0F1EE10FA5BDABB
:10309000B7EE000A56E0804E804F9FED798B804C52
:1030A000308807EB800090ED000AA888B7EEC00AD0
:1030B00001EE100AB8EE411B288800EE081B00EE56
:1030C000100A2046F7EEC10BB8EE400A00F02DFBC7
:1030D000708807EB800090ED000AE888B7EEC00A20
:1030E00001EE100AB8EE411B68886E4D00EE081B19
:1030F00000EE100A2846F7EEC10BB8EE400A00F0C9
:1031000014FB308840F2DC510130B0FBF1F202FBDD
:103110001100308070880130B0FBF1F202FB110029
:1031200070809AE000205B490022202A00F09F80F6
:103130008B18885008321871F7E7F1EE10FA03DDAA
:10314000BFEE000A31EE000A707C96ED011A96ED92
:10315000032A86ED020AB4EE412A28B1F1EE10FAF4
:1031600009DAB7EE001A04E0F1EE10FA03DDBFEE63
:10317000001A32EE011A484FDFF8208186ED031A5B
:103180009FED3F8BB7EEC00A484C388808EB8000B3
:1031900090ED001AA888B7EEC11A02EE100A21EECF
:1031A000081BB8EE422B288801EE002B00EE100A17
:1031B0002046F7EEC20BB8EE400A00F0B6FA788867
:1031C00096ED031AB7EEC11A08EB800090ED000AE5
:1031D000E888B7EEC00A02EE100A20EE080BB8EE3F
:1031E000422B6888324D00EE012B00EE100A284673
:1031F000F7EEC20BB8EE400A00F097FA388840F2BA
:10320000DC5296ED020A96ED031A94ED094A411C30
:10321000B1FBF2F308EB800003FB12113980254962
:1032200090ED003A788891ED002A411C22EE000AC8
:1032300008EB8000B1FBF2F303FB1211798000EE82
:10324000434A22EE010A90ED001A95ED092A84ED19
:10325000094A00EE412A85ED092A20462946FEF753
:10326000CBF92046FEF7B3F92846FEF7B0F9BDECDE
:10327000028BBDE8F041FEF7F9B900BF00BF00BF07
:10328000F6285C8FC2F5F03F341A0024CC180024D5
:10329000D4180024E81B0024081C00241400002477
:1032A0005018002484180024B8180024E8170024BB
:1032B0001C180024100000247047704770477047A6
:1032C00070477047F8B50168044640F62F00CA6998
:1032D00002EA000508688B68202D0ED100F0200559
:1032E00003F08056AD1900F08B80216F002900F0AB
:1032F00011812046BDE8F840084740F60F052A42F4
:103300007ED0914D00EA0506904D1D40761977D08C
:10331000D60718BF10F4807607D001260E62D4F8C5
:103320008C6046F00106C4F88C6003F00106970734
:1033300008D53EB102270F62D4F88C7047F004071D
:10334000C4F88C70570708D53EB104260E62D4F835
:103350008C6046F00206C4F88C6016070BD500F0AE
:103360002006354307D008250D62D4F88C5045F06F
:103370000805C4F88C5015050BD510F0806508D0F1
:103380004FF400650D62D4F88C5045F02005C4F868
:103390008C50D4F88C50002D00F0BC8012F020022C
:1033A0000AD000F0200003F08052801804D0226F71
:1033B00012B1204690472168D4F88C00896800F04B
:1033C000280001F04001401800F09E80204600F0E7
:1033D00057FB20688168490640F19180816821F09F
:1033E00040018160E06F002800F089805849016544
:1033F000FEF74EFB002800F08D80E06F016D79E74D
:1034000000EA0205EE06E66E24D5012E22D1102038
:103410000862886840062AD4B4F85E00B4F85C20DC
:10342000B4F85E30002B75D0101A020472D00A680E
:10343000484B22F490720A608A681A408A602022FF
:10344000C4F888200022E26622670A6822F010028F
:103450000A6038E0D6023CD513F4800639D04FF428
:10346000801008622046BDE8F840FFF729BFE06FF2
:10347000026853689DB2002D4CD0B4F85C20954290
:1034800048D2A4F85E30C369B3F5807F18D00A68CB
:1034900022F480720A608A6822F001028A608A68D7
:1034A00022F040028A602022C4F888200022E266CE
:1034B0000A6822F010020A60FEF72EF9B4F85C20C8
:1034C000B4F85E00101A81B22046BDE8F840FFF75C
:1034D000F4BE160607D500F0800603F400039B191E
:1034E00001D0616F02E76B0615D4110221D510F0EF
:1034F00080411ED02046BDE8F840FFF7E0BE2046E0
:10350000BDE8F840FFF7DDBE2046FFF7DAFE0020F9
:10351000C4F88C00F8BD086820F040000860002066
:1035200060672020C4F884002046BDE8F84000F021
:103530007AB8D101EED5B0F1FF3FEBDC2046BDE813
:10354000F840FFF7BBBE00BF2001000401000010DF
:10355000713A0008FEFFFFEF2DE9FC470446D0F862
:10356000840020280AD10D460120002959D0164692
:10357000002A56D094F88000012802D10220BDE82C
:10358000FC8701204FF0000AC4F88CA084F880006A
:1035900099462120C4F88400FEF72EFCA4F856605A
:1035A0008046A4F85460A068B0F5805F06D1276912
:1035B0000026002F0CBF2E462F4601E02F46002686
:1035C00084F880A0B4F85600D8B1204680210022AB
:1035D0004346CDF8009000F06DFAD8B927B12168C4
:1035E00017F8010B886206E036F8021B20680027F6
:1035F0006FF35F218162B4F856000138A4F85600D9
:10360000E0E72046402100224346CDF8009000F03C
:1036100051FA10B10320BDE8FC872020C4F88400D3
:103620000020BDE8FC877047FEE700002DE9F04F61
:1036300087B038484FF00008CDF81880364CDFF8D6
:10364000DCA0012208274FF0010904F5805601682B
:1036500041F010010160016801F010010191019930
:10366000016841F080010160016801F08001019171
:103670000199016841F004010160016801F0040151
:1036800001910199016841F001010160016801F0B7
:10369000010101910199016841F002010160016895
:1036A00001F0020101910199016841F008010160F6
:1036B0000068082100F00800019001983046D047CA
:1036C0002046F0210022D04704F540656021012208
:1036D000A3462846D0470224CDE90484CDE90279E7
:1036E00002AFDFF83CA030463946D047F0200594C1
:1036F000CDE90398029039465846D047602005949A
:10370000CDE90398029039462846D04707B0BDE876
:10371000F08F00BFE044025800000258E11D00088D
:10372000651C0008FEE7FEE7704730EEC01A90ED1A
:10373000085A80ED010A90ED030A90ED064A90EDDB
:10374000022A90ED043AC0ED000A80ED074A80EDB0
:10375000051A80ED061A31EE055A80ED085A25EE5D
:10376000000A80ED0A0A01EE020A31EE441A03EE65
:10377000010A80ED090A704748F2210000F004B800
:1037800048F2210000F024B8BCB5224CADF8060088
:10379000202100222046FEF723FB0C4D0DF10601EF
:1037A0000122FF232846FFF7CFF801A9284601226E
:1037B000FF23FEF7B8FF204620210122FEF710FB71
:1037C000BDF80400400080B2BCBD00BFD818002482
:1037D000BCB5104CADF80600402100222046FEF793
:1037E000FFFA0D4D0DF106010122FF232846FFF7D8
:1037F000ABF801A928460122FF23FEF794FF2046DB
:1038000040210122FEF7ECFABDF80400400080B22E
:10381000BCBD00BF000C02586019002410B501683F
:1038200040F26F344A698B6943F008038B618B69FE
:1038300043F010038B610B6823F001030B600B69ED
:10384000A3430B6194068B6823F440438B6090F88C
:1038500081300BD5042B09D0D0F8843043F080039D
:10386000C0F884308B6943F020038B6190F881307D
:1038700054060BD5032B09D0D0F8843043F0040351
:10388000C0F884308B6943F040038B61930509D500
:10389000D0F8843043F00103C0F884308B6943F4DE
:1038A00000738B61D20509D5D0F8842042F008025C
:1038B000C0F884208A6942F480728A610021A0F8ED
:1038C0006210A0F86A1010BDF8B514460D46064601
:1038D000571C30684069000708D4FEF78DFA002FA6
:1038E000F7D0401BA042F4D30320F8BD0020F8BD60
:1038F0007047FEF785BA0000B0B59CB009A84C210E
:10390000FCF7CEFD01A82021FCF7CAFD0220FEF73E
:1039100007FB002000902248016821F001010160AE
:10392000006800F0010000901E48016841F4404129
:103930000160016801F44041009100990168890427
:10394000FCD50C200024CDE91A441990042103254C
:1039500002201890CDE91601602115911495CDE94A
:1039600012004FF480300A900120099009A8FEF758
:1039700087FC98B940204FF4806107910890CDE909
:10398000050008200490CDE9025402213F20019057
:1039900001A8FEF7E9FA08B91CB0B0BDFDF754FE66
:1039A0002C04005818480258B0B52448244BD0F8CD
:1039B000801041F47001C0F88010196801F00F0107
:1039C000062904D81968072262F3030119601D490A
:1039D0001D4D0A6842F001020A6000220A610C686B
:1039E0002C400C601C68240704D51C68072565F36F
:1039F00003041C60154B8A61CA610A628B62144B16
:103A0000CB62144B0B634A638B63CA630B644A64D7
:103A10000B6823F480230B600A660F490968B2EB38
:103A2000517F02D10D4901220A600D4943F2D202B1
:103A30000A604FF000610160B0BD00BF08ED00E01A
:103A400000200052004402587FEDF6EA0002020214
:103A50000000FF01800201010010005C088100519C
:103A6000004000520148FFF721BA00BF341A002479
:103A7000806B0021A0F85E10A0F85610FFF721BC63
:103A800001680B4B0A6822F490720A608A681A4037
:103A90008A60C26E012A03D10A6822F010020A600D
:103AA0002021C0F8881000210167C166704700BF5F
:103AB000FEFFFFEF2DE9F843DDF820900F46984612
:103AC00016460446016809F10105C8693840C01B63
:103AD000B0FA80F04009B04225D1002DF5D0FEF7B4
:103AE0008BF92168B9F1000F0A681FD0A0EB08001C
:103AF00048451BD8500744BFC8695FEA0050E4D569
:103B00004FF400600862086820F4D070086088688C
:103B100020F0010088602020C4F88400C4F88800E8
:103B200004F18C000EE00020BDE8F88322F4D07090
:103B30000860886820F0010088602020C4F88400B4
:103B400004F18800002184F8801020210160032006
:103B5000BDE8F8831248FFF7B5BB00BFFEE782B0AF
:103B6000BCB50C46CDE9062306AB6421054601939E
:103B70002246FCF77BFC82B22846294600F004F876
:103B8000BDE8BC4002B0704710B5054C4FF6FF735E
:103B90002046FFF7E1FC2068C1694906FCD510BD4D
:103BA000801A002410B500F00F03064C044AB0F14F
:103BB000FF3F2344C8BF83180801187010BD00BF21
:103BC00000E400E014ED00E0FEF724F9FFF794FEB6
:103BD000FFF72CFD034C204608210122FEF700F9D7
:103BE000F9E700BF0010025810B50138032837D894
:103BF0001446DFE800F0020F1C29012919484FF094
:103C000010010CBF01220022FEF7EAF816480068F6
:103C1000446310BD002913484FF040010CBF00223F
:103C20000122FEF7DDF810480068C46310BD0029CA
:103C30000C484FF020010CBF00220122FEF7D0F803
:103C400009480068846310BD012906484FF08001CF
:103C500014BF00220122FEF7C3F803480068046481
:103C600010BD00BF00000258E81900245FEA400CB4
:103C700008BF91F0000F4FEA8C234FEAC12243EABC
:103C800051514FEA1C5018BF00F5F0404FEA300088
:103C900018BF41F000415FEA6C5C00F02980BCF184
:103CA000FF3F08BF40F080407047130C06BF12046E
:103CB0004FF0100C4FF0000C130E04BF12020CF169
:103CC000080C130F04BF12010CF1040C930F04BF76
:103CD00092000CF1020CD30F04BF52000CF1010C46
:103CE00011464FF00002A0F11F00A0EB0C0070473E
:103CF00011F0004F08BF704731F000413FF4D5AFDD
:103D00000B0C06BF09044FF0100C4FF0000C0B0E0B
:103D100004BF09020CF1080C0B0F04BF09010CF1E0
:103D2000040C8B0F04BF89000CF1020CCB0F04BFF5
:103D300049000CF1010CCCF1200322FA03F341EA13
:103D4000030102FA0CF2A0EB0C0000F10100704735
:103D500023F07F4720F07F4C80EA030000F0004012
:103D6000ACEB070303F57C5303F1FF032DE9804916
:103D700009B44FEA144324EA03484FEA154B25EAF5
:103D80000B4E0FF2042606EB13273E7803FB066763
:103D9000C7F5000707FB06F64FEAD64606F102060E
:103DA0004FEA543707FB066CCCF1005C4FEA1C4726
:103DB0002CEA074C0CFB06F507FB06F404EB154652
:103DC0004FEA961649085FEA320234BF00204FF0EE
:103DD00000404FEAD13706FB07FC4FEA1C4C0CFBB6
:103DE0000BF7D21B03FB0CF761EB07010CFB0EF783
:103DF000B0EB074072EB17420CFB08F734BFA2EBA5
:103E00000742B2EB074261EB17414FEA0C444FEA1D
:103E1000910706FB07FC4FEA1C4C0CFB0BF7B0EBC1
:103E2000C74072EB573203FB0CF734BFA2EBC7421B
:103E3000B2EBC74261EB57310CFB0EF7B0EBC7009A
:103E400072EB57720CFB08F734BFA2EBC702B2EB60
:103E5000C70261EB57714FEA816141EA92114FEA63
:103E6000826242EA90124FEA806004EBCC04039F26
:103E70004FEAD13706FB07FC4FEA1C4C0CFB0BF753
:103E8000D21B03FB0CF761EB07010CFB0EF7B0EB49
:103E9000074072EB17420CFB08F734BFA2EB074256
:103EA000B2EB074261EB17414FEA8C5504EB9C24BF
:103EB0004FEA910706FB07FC4FEA1C4C0CFB0BF783
:103EC000B0EBC74072EB573203FB0CF734BFA2EBE9
:103ED000C742B2EBC74261EB57310CFB0EF7B0EBB8
:103EE000C70072EB57720CFB08F734BFA2EBC70296
:103EF000B2EBC70261EB57714FEA816141EA92115F
:103F00004FEA826242EA90124FEA806015EB4C253C
:103F100044F100044FEAD13706FB07FC4FEA1C4C82
:103F20000CFB0BF7D21B03FB0CF761EB07010CFB3F
:103F30000EF7B0EB074072EB17420CFB08F734BFEB
:103F4000A2EB0742B2EB074261EB17414FEA813126
:103F500041EA92414FEA823242EA90424FEA80308F
:103F60004FEA0C7615EB1C1544F1000448EA0343B4
:103F70004EEA0B484FF0000EB2EB080C71EB030752
:103F800024BF624639464EEB0E0E4FF0000B001870
:103F9000524149414BEB0B0BB2EB080C71EB0307A1
:103FA0007BF1000B24BF624639464EEB0E0E4FF0FC
:103FB000000B0018524149414BEB0B0BB2EB080CC4
:103FC00071EB03077BF1000B24BF624639464EEBD1
:103FD0000E0E51EA020718BF46F0010616EB0E76E8
:103FE00055F1000254F1000103D5BDE88901BDE897
:103FF0000088BDE88901BDE80048B619524141EB8F
:104000000101A3F10103704780807F7E7D7C7B7A74
:104010007978777676757473727171706F6E6E6D74
:104020006C6C6B6A6A69686867666665646463631A
:1040300062616160605F5F5E5E5D5D5C5C5B5B5AA0
:104040005A5959585857575656555555545453530D
:1040500052525251515050504F4F4F4E4E4D4D4D68
:104060004C4C4C4B4B4B4A4A4A49494948484847B3
:1040700047474746464645454544444444434343F1
:1040800043424242424141419C46002B30D477009A
:104090002BD04FEA37071CB503B44FF010004FF098
:1040A0001001BAF1000F06D0BCF1000FDCBF40F0E8
:1040B000080040F008014FF000000FBCBDE81040C0
:1040C0000BF1010BBBF1010F08BF5FEA170722BF1D
:1040D00012F1010211F101014FF0004143F100031F
:1040E00000F0004043EA00007047F9D35708D0E7DA
:1040F00046EA06464FEA164613F1400F1FDD13F15C
:10410000200FDFBF16430A46002120335B42BED09A
:10411000C3F1200746EA06464FEA164602FA07F7B9
:1041200046EA070622FA03F2C3F1200701FA07F76D
:1041300042EA070221FA03F14FF00003A7E746EA3B
:10414000020646EA06464FEA164646EA0106BCBFA4
:1041500046EA0646360C4FF000034FF000024FF0DF
:10416000000194E72DE9804C70B49A46934691E89B
:10417000380007C831EA400C48BF34EA430C03D585
:10418000FFF7E6FDFFF780FFF0BCBDE8008C2DE9EE
:10419000804C70B49A46934691E8380007C810F0F6
:1041A000804F08BF13F0804F03D100F005F8FFF7F0
:1041B0006BFFF0BCBDE8008C20F07F4723F07F4C04
:1041C00080EA030000F0004007EB0C03A3F57C53EA
:1041D000A3F1FE0392F0000F00F0B38095F0000F02
:1041E00000F077802DE901494FEA114021EA0048AB
:1041F0004FEA144624EA064700FB06FC08FB06F6D5
:1042000007FB08F818EB06484CEB164C00FB07F7C9
:1042100018EB07484CEB17404FEA124B22EA0B4EC3
:104220004FEA154625EA06470BFB06FC0EFB06F691
:1042300007FB0EFE1EEB064E4CEB164C0BFB07F776
:104240001EEB074E4CEB174B18EB0B0840F1000030
:1042500018EB0E0B58EB000840F100008F1A4FF0DE
:1042600000014FF000063CBFC943661B14BFB5EB0D
:10427000040C00213CBFC943F61B4FEA174427EA50
:1042800004454FEA1C472CEA074C04FB076205FB78
:1042900007F70CFB05F616EB074642EB174204FB4B
:1042A0000CFC16EB0C4642EB1C421BEB060658EBD3
:1042B000020241414EEA8E0E46EA9E0601D5BDE855
:1042C0000189B619524141EB0101A3F10103BDE897
:1042D00001894FEA144524EA05464FEA114721EACD
:1042E000074C05FB07F406FB07F70CFB06F111EB87
:1042F000074144EB174405FB0CFC11EB0C4144EB6C
:104300001C444FEA124722EA074C05FB07F206FB62
:1043100007F70CFB06F616EB074642EB174205FBC8
:104320000CFC16EB0C4642EB1C456A1854F10001DC
:1043300048BF7047B619524141EB0101A3F1010397
:10434000704795F0000F37D04FEA114221EA02463C
:104350004FEA144724EA074C02FB07F106FB07F774
:104360000CFB06F414EB074441EB174102FB0CFC79
:1043700014EB0C4441EB1C414FEA154725EA074C6E
:1043800002FB07F506FB07F70CFB06F616EB0746E4
:1043900045EB174502FB0CFC16EB0C4645EB1C42AB
:1043A000121951F1000148BF7047B619524141EB53
:1043B0000101A3F1010370474FEA144524EA0546C1
:1043C0004FEA114721EA074C05FB07F106FB07F707
:1043D0000CFB06F212EB074241EB174105FB0CFC0C
:1043E00012EB0C4251EB1C414FF0000648BF7047E6
:1043F000921841EB0101A3F10103704703B4019846
:104400004100009850EAC12018BF04204A0D18BF8F
:1044100040F0010040F2FF72B2EB515F08BF40F084
:104420000200012808BF052002B0704730380A2872
:1044300001D20120704700207047000010B500290C
:104440000AD00878002807D005487844FCF750F8CF
:10445000002801D0002010BD0248784410BD0000A3
:104460009A0100009201000010B500290AD00878D6
:10447000002807D005487844FCF73AF8002801D016
:10448000002010BD0248784410BD00008A010000E1
:1044900082010000F1EE100A4FF6FF71C0F2C03148
:1044A00020EA010040F04070E1EE100A7047FCF78E
:1044B00095BCFCF7C9BD0000000000000000000032
:1044C000303132333435363738394142434445464A
:1044D0004030580030313233343536373839616244
:1044E0006364656640307800040000080000000046
:1044F0000000000200010000103031323334353644
:104500003738396162636465667870003031323300
:104510003435363738394142434445465850000017
:1045200002400000000000A0000000000540000064
:10453000000000C8000000000C4000000000409C8B
:1045400000000000194000000020BCBE0000000078
:1045500034400000BFC91B8E00000004B5400000BD
:10456000504BCFD06607E2CF010000006C41000045
:104570003E8251AADFEEA73401000000D9420000BC
:10458000DCB5A0E23A301F97FFFFFFFFB445000003
:10459000FD25A0C8E9A3C14FFFFFFFFFFF3F0000BB
:1045A0000000008000000000FF3F000000000080CD
:1045B00000000000000000000102030401020304E7
:1045C00006070809104700080000002488170000AB
:1045D000D4020008C85A000888170024880A00007E
:1045E000380300081C00000043000000F8FFFFFF34
:1045F0000C0000000E0000000F0000002E00000064
:104600001001000043000000F8FFFFFF00404040A1
:104610004040404040404141414141404040404095
:104620004040404040404040404040404005020241
:104630000202020202020202020202020220202000
:10464000202020202020200202020202020290905C
:10465000909090901010101010101010101010105A
:1046600010101010101010100202020202028888AE
:1046700088888888080808080808080808080808BA
:1046800008080808080808080202020240000000A2
:10469000000000000000000000000000000000001A
:1046A000000000000000000000000000000000000A
:1046B00000000000000000000000000000000000FA
:1046C00000000000000000000000000000000000EA
:1046D00000000000000000000000000000000000DA
:1046E00000000000000000000000000000000000CA
:1046F00000000000000000000000000000000000BA
:1047000000000000000000000000000000000000A9
:10471000100601000000100420050090D0030420C2
:10472000050AD7A33D0F00FF000442893BB54109AC
:104730003CCBE14D3C7A40893C708FAB3CA1DDCD58
:104740003CE62AF03C8B3B093D05611A3DCE852BAA
:104750003DD2A93C3DFCCC4D3D3AEF5E3D7810701A
:104760003D5198803DD227893DB5B6913DF1449A9F
:104770003D7BD2A23D4A5FAB3D54EBB33D8F76BC4F
:104780003DF100C53D718ACD3D0513D63DA29ADEAF
:104790003D4021E73DD3A6EF3D532BF83D5B57004D
:1047A0003E7998043EFED8083EE6180D3E2C58117E
:1047B0003ECA96153EBDD4193EFE111E3E8A4E22BB
:1047C0003E5B8A263E6DC52A3EBBFF2E3E3F3933F7
:1047D0003EF571373ED8A93B3EE3E03F3E12174419
:1047E0003E5F4C483EC6804C3E42B4503ECDE654FF
:1047F0003E6418593E02495D3EA078613E3CA76583
:104800003ECFD4693E56016E3ECB2C723E29577680
:104810003E6D807A3E90A87E3EC767813EB17A8326
:104820003E058D853EBE9E18F3873EDCAF893E5B1C
:10483000C08B3E3AD08D3E75DF8F3E0BEE913EFA37
:10484000FB933E3E09963ED615983EBE219A3EF613
:104850002C9C3E7A379E3E4841A03E5D4AA23EB91E
:1048600052A43E575AA63E3661A83E5367AA3EACB4
:104870006CAC3E3F71AE3E0A75B03E0978B23E3B2D
:104880007AB43E9E7BB63E2F7CB83EEC7BBA3ED2DD
:104890007ABC3EE078BE3E1376C03E6872C23EDE11
:1048A0006DC43E7168C63E2162C83EEA5ACA3ECB1C
:1048B00052CC3EC149CE3EC93FD03EE234D23E0941
:1048C00029D43E3D1CD63E7A0ED83EBEFFD93E08C6
:1048D000F0DB3E55DFDD3EA3CDDF3EF0BAE13E39F1
:1048E000A7E33E7C92E53EB77CE73EE865E93E0DF6
:1048F0004EEB3E2335ED3E291BEF3E1B00F13EF80B
:10490000E3F23EBEC6F43E6BA8F63EFC88F83E6F6E
:1049100068FA3EC246FC3EF323FE3E02108D3F7312
:10492000ED003F52DA013F9CC6023F4FB2033F6B9E
:104930009D043FEE87053FD871063F275B073FDBAD
:1049400043083FF22B093F6B130A3F45FA0A3F80A9
:10495000E00B3F1AC60C3F12AB0D3F678F0E3F189E
:10496000730F3F2456103F8A38113F491A123F6097
:10497000FB123FCEDB133F92BB143FAB9A153F189F
:1049800079163FD856173FEA33183F4D10193F00AC
:10499000EC193F02C71A3F52A11B3FEF7A1C3FD8C8
:1049A000531D3F0C2C1E3F8A031F8800FF001F3F32
:1049B00062B0203FB885213F565A223F382E233F10
:1049C0005F01243FC9D3243F76A5253F6476263F67
:1049D0009346273F0116283FAEE4283F99B2293F6E
:1049E000C17F2A3F254C2B3FC3172C3F9CE22C3F15
:1049F000AEAC2D3FF9752E3F7B3E2F3F3306303F47
:104A000021CD303F4393313F9A58323F231D333FEE
:104A1000DEE0333FCBA3343FE865353F3427363FF4
:104A2000AEE7363F57A7373F2C66383F2D24393F36
:104A30005AE1393FB09D3A3F30593B3FD9133C3F93
:104A4000A9CD3C3FA0863D3FBD3E3E3F00F63E3FE8
:104A500067AC3F3FF161403F9E16413F6ECA413F08
:104A60005E7D423F6F2F433F9FE0433FEE90443FC8
:104A70005B40453FE5EE453F8C9C463F4E49473FF6
:104A80002BF5473F22A0483F334A493F5CF3493F5B
:104A90009D9B4A3FF4424B3F62E94B3FE68E4C3FC1
:104AA0007E334D3F2BD74D3FEB794E3F00FF00BD8E
:104AB0001B4F3FA1BC4F3F965C503F9CFB503FB10A
:104AC00099513FD636523F08D3523F486E533F96D6
:104AD00008543FEFA1543F543A553FC3D1553F3D91
:104AE00068563FC0FD563F4C92573FE025583F7BEC
:104AF000B8583F1E4A593FC6DA593F746A5A3F2791
:104B0000F95A3FDE865B3F98135C3F569F5C3F1629
:104B10002A5D3FD7B35D3F9A3C5E3F5DC45E3F2058
:104B20004B5F3FE2D05F3FA255603F61D9603F1DC0
:104B30005C613FD6DD613F8C5E623F3DDE623FE9F6
:104B40005C633F90DA633F3057643FCBD2643F5E93
:104B50004D653FE9C6653F6C3F663FE7B6663F5827
:104B60002D673FBFA2673F1C17683F6E8A683FB43E
:104B7000FC683FEF6D693F1DDE693F3F4D6A3F5363
:104B8000BB6A3F59286B3F50946B3F39FF6B3F1313
:104B9000696C3FDCD16C3F95396D3F3EA06D3FD5D0
:104BA000056E3F5A6A6E3FCECD6E3F2E3010626F5B
:104BB0003F7C916F3FB6F16F3FDD50703FEFAE70BD
:104BC0003FEC0B713FD467713FA6C2713F631C720B
:104BD0003F0975723F98CC723F1023733F71787311
:104BE0003FB9CC733FE91F743F0172743FFFC27439
:104BF0003FE412753FAF61753F60AF753FF6FB75DF
:104C00003F7247763FD291763F17DB763F4023775E
:104C10009330FA773F3DB0773F11F5773FC738784B
:104C20003F607B783FDBBC783F39FD783F783C794B
:104C30003F987A793F99B7793F7CF3793F3E2E7A56
:104C40003FE2677A3F65A07A3FC8D77A3F0A0E7B7A
:104C50003F2C437B3F2D777B3F0DAA7B3FCCDB7BFB
:104C60003F690C7C3FE43B7C3F3C6A7C3F73977C14
:104C70003F87C37C3F79EE7C3F48187D3FF4407D01
:104C80003F7C687D3FE18E7D3F23B47D3F41D87DF1
:104C90003F3BFB7D3F111D7E3FC23D7E3F505D7E11
:104CA0003FB87B7E3FFD987E3F1CB57E3F17D07E90
:104CB0003FECE97E3F9D027F3F281A7F3F8E307F89
:104CC0003FCE457F3FE9597F3FDE6C7F3FAE7E7F21
:104CD0003F588F7F3FDC9E7F3F3AAD7F3F72BA7F68
:104CE0003F84C67F3F6FD17F3F35DB7F3FD4E37F7B
:104CF0003F4EEB7F3FA0F17F3FCDF67F3FD3FA7F62
:104D00003FB3FD7F3F6DFF7F3F00008008211021F2
:104D100018212021282130213821402148215021EB
:104D200058216021682170217821802188219021DB
:104D30009821A021A821B021B821C021C821D021CB
:104D4000D821E021E821F021F825002508251025AB
:104D5000182520252825302538254025482550258B
:104D6000582560256825702578258025882590257B
:104D70009825A025A825B025B825C025C825D0256B
:104D8000D825E025E825F025F8290029082910294B
:104D9000182920292829302938294029482950292B
:104DA000582960296829702978298029882990291B
:104DB0009829A029A829B029B829C029C829D0290B
:104DC000D829E029E829F029F82D00032D08032D22
:104DD00010032D18032D20032D28032D30032D380B
:104DE000032D40032D48032D50032D58032D600340
:104DF0002D68032D70032D78032D80032D88032D3E
:104E000090032D98032DA0032DA8032DB0032DB8DA
:104E1000032DC0032DC8032DD0032DD8032DE0038F
:104E20002DE8032DF0032DF8032D00042D08042D8B
:104E300010042D18042D20042D28042D30042D38A5
:104E4000042D40042D48042D50042D58042D6004D9
:104E50002D68042D70042D78042D80042D88042DD8
:104E600090042D98042DA0042DA8042DB0042DB875
:104E7000042DC0042DC8042DD0042DD8042DE00429
:104E80002DE8042DF0042DF8042D00052D08052D26
:104E900010052D18052D20052D28052D30052D3840
:104EA000052D40052D48052D50052D58052D600573
:104EB0002D68052D70052D78052D80052D88052D73
:104EC00090052D98052DA0052DA8052DB0052DB810
:104ED000052DC0052DC8052DD0052DD8052DE005C3
:104EE0002DE8052DF0052DF8052D00062D08062DC1
:104EF00010062D18062D20062D28062D30062D38DB
:104F0000062D40062D48062D50062D58062D60060C
:104F10002D68062D70062D78062D80062D88062D0D
:104F200090062D98062DA0062DA8062DB0062DB8AA
:104F3000062DC0062DC8062DD0062DD8062DE0065C
:104F40002DE8062DF0062DF8062D00072D08072D5B
:104F500010072D18072D20072D28072D30072D3875
:104F6000072D40072D48072D50072D58072D6007A6
:104F70002D68072D70072D78072D80072D88072DA8
:104F800090072D98072DA0072DA8072DB0072DB845
:104F9000072DC0072DC8072DD0072DD8072DE007F6
:104FA0002DE8072DF0072DF8072D00082D08082DF6
:104FB00010082D18082D20082D28082D30082D3810
:104FC000082D40082D48082D50082D58082D600840
:104FD0002D68082D70082D78082D80082D88082D43
:104FE00090082D98082DA0082DA8082DB0082DB8E0
:104FF000082DC0082DC8082DD0082DD8082DE00890
:105000002DE8082DF0082DF8082D00092D08092D90
:1050100010092D18092D20092D28092D30092D38AA
:10502000092D40092D48092D50092D58092D6009D9
:105030002D68092D70092D78092D80092D88092DDD
:1050400090092D98092DA0092DA8092DB0092DB87A
:10505000092DC0092DC8092DD0092DD8092DE00929
:105060002DE8092DF0092DF8092D000A2D080A2D2B
:10507000100A2D180A2D200A2D280A2D300A2D3845
:105080000A2D400A2D480A2D500A2D580A2D600A73
:105090002D680A2D700A2D780A2D800A2D880A2D78
:1050A000900A2D980A2DA00A2DA80A2DB00A2DB815
:1050B0000A2DC00A2DC80A2DD00A2DD80A2DE00AC3
:1050C0002DE80A2DF00A2DF80A2D000B2D080B2DC6
:1050D000100B2D180B2D200B2D280B2D300B2D38E0
:1050E0000B2D400B2D480B2D500B2D580B2D600B0D
:1050F0002D680B2D700B2D780B2D800B2D880B2D13
:10510000900B2D980B2DA00B2DA80B2DB00B1C0573
:105110004C4C2326B80B1EBBB80B12BC1812BC207B
:105120001EBCB80B1EBCB80B12BC3812BC401EBD56
:10513000B80B1EBDB80B1EBDB80B12BD6012BD680A
:105140001EBDB80B1EBDB80B1EBDB80B1EBDB80BE7
:1051500012BD9012BD9812BDA01EBDB80B1EBDB8E9
:105160000B12BDB812BDC01EBDB80B1EBDB80B1EC4
:10517000BDB80B1EBDB80B12BDE81EBDB80B1EBEE0
:10518000B80B1EBEB80B16BE0816BE101EBEB80B5E
:105190001EBEB80B16BE2816BE3016BE381EBEB8D0
:1051A0000B16BE481EBEB80B1EBEB80B16BE601650
:1051B000BE6816BE701EBEB80B16BE801EBEB80BF3
:1051C0001EBEB80B16BE981EBEB80B1EBEB80B1E78
:1051D000BEB80B1EBEB80B16BEC016BEC816BED0DB
:1051E0001EBEB80B1EBEB80B1EBEB80B16BEF01E00
:1051F000BEB80B1EBEB80B1ABE081ABE101EBEB833
:105200000B1ABE201EBEB80B1EBEB80B1ABE381E2F
:10521000BEB80B1EBEB80B1ABE501ABE581ABE60DE
:105220001EBEB80B1ABE701ABE781ABE801EBEB85B
:105230000B1ABE901ABE981ABEA01EBEB80B1EBE98
:10524000B80B1ABEB81EBEB80B1EBEB80B1ABED025
:105250001ABED81ABEE01EBEB80B1EBEB80B1ABED0
:10526000F81EBEB80B1EBEB80B1EBE10031EBE1825
:10527000031EBEB80B1EBE28031EBE30031EBEB8E2
:105280000B1EBEB80B1EBE48031EBE50031EBEB88A
:105290000B1EBEB80B1EBE68031EBE70031EBEB83A
:1052A0000B1EBEB80B1EBE88031EBE90031EBEB8EA
:1052B0000B1EBEA0031EBEB80B1EBEB80B1EBEB892
:1052C000031EBEB80B1EBEB80B1EBED0031EBEB85A
:1052D0000B1EBEE0031EBEBA0D1EBFB80B1EBFB82C
:1052E0000B1EBF00041EBF08041EBFB80B1EBFB8B4
:1052F0000B1EBF20041EBFB80B1EBFB80B1EBF384D
:10530000041EBF40041EBFB80B1EBF50041EBF5872
:10531000041EBFB80B1EBFB80B1EBF70041EBFB863
:105320000B1EBFB80B1EBF88041EBFB80B1EBFB834
:105330000B1EBFA0041EBFA8041EBFB80B1EBFB823
:105340000B1EBFC0041EBFC8041EBFD0041EBFB8C2
:105350000B1EBFB80B1EBFB80B1EBFF0041EBFF85C
:10536000041EBFB80B11881F1FBFB80B1EBF180546
:105370001EBF20051EBFB80B1EBFB80B1EBFB80B4B
:105380001EBF40051EBFB80B1EBF50051EBFB80B89
:105390001EBFB80B1EBFB80B1EBF70051EBFB80BDB
:1053A0001EBFB80B1EBF88051EBFB80B1EBF9805D9
:1053B0001EBFA0051EBFA8051EBFB80B1EBFB80BA1
:1053C0001EBFC0051EBFB80B1EBFB80B1EBFB80B5B
:1053D0001EBFE0051EBFE8051EBFB80B1EBFF805C7
:1053E0001EBF00061EBFB80B1EBFB80B1EBF18069F
:1053F0001EBFB80B1EBFB80B1EBF30061EBFB80BBA
:105400001EBF40061EBF48061EBFB80B1EBFB80B0E
:105410001EBF60061EBF68061EBFB80B1EBFB80BBE
:105420001EBFB80B1EBF88061EBF90061EBFB80B5E
:105430001EBFA0061EBFA8061EBFB0061EBFB80B2B
:105440001EBFB80B1EBFB80B1EBFB80B1EBFD806C1
:105450001EBFE0061EBFB80B1EBFF0061EBFB80B76
:105460001EBFB80B1EBF08071EBF10071EBF1807C0
:105470001EBFB80B1EBFB80B1EBF30071EBF3807BC
:105480001EBFB80B1EBFB80B1EBF50071EBF58076C
:105490001EBF60071EBF68071EBFB80B1EBFB80B3C
:1054A0001EBFB80B1EBF88071EBFB80B1EBFB80BB0
:1054B0001EBFA0071EBFB80B1EBFB80B1EBFB8078C
:1054C0001EBFC0071EBFB80B1EBFB80B1EBFD8073C
:1054D0001EBFE0071EBFB80B1EBFB80B1EBFF807EC
:1054E0001EBF00081EBFB80B1EBFB80B1EBF18089A
:1054F0001EBFB80B1EBFB80B1EBF30081EBFB80BB7
:105500001EBFB80B1EBFB80B1EBFB80B1EBF58087E
:105510001EBF60081EBF68081EBF70081EBF780847
:105520001EBFB80B1EBFB80B1EBF90081EBF980849
:105530001EBF35091EBFB80B1EBFB0081EBFB8087E
:105540001EBFC0081EBFB80B1EBFB80B1EBFD808B9
:105550001EBFB80B1EBFB80B1EBFF0081EBFF80859
:105560001EBF00091EBFB80B1EBFB80B1EBFB80B75
:105570001EBFB80B1EBF28091EBF30091EBF380949
:105580001EBF40091EBFB80B1EBFB80B1EBF580977
:105590001EBFB80B1EBFB80B1EBF70091EBFB80BD5
:1055A0001EBFB80B1EBF88091EBF90091EBFB80BD7
:1055B0001EBFB80B1EBFA8091EBFB0091EBFB80989
:1055C0001EBFB80B1EBFC8091EBFD0091EBFB80B37
:1055D0001EBFB80B1EBFB80B1EBFF0091EBFF809D7
:1055E0001EBFB80B1EBFB80B1EBF100A1EBF180A85
:1055F0001EBFB80B1EBFB80B1EBF300A1EBF380A35
:105600001EBF400A1EBFB80B1EBF500A1EBFB80BFC
:105610001EBFB80B1EBFB80B1EBF700A1EBF780A94
:105620001EBFB80B1EBFB80B1EBF900A1EBFB80B23
:105630001EBFB80B1EBFA80A1EBFB00A1EBFB80A05
:105640001EBFB80B1EBFC80A1EBFB80B1EBFB80BCB
:105650001EBFE00A1EBFB80B1EBFF00A1EBFF80A2D
:105660001EBFB80B1EBFB80B1EBF100B1EBF180B02
:105670001EBFB80B1EBFB80B1EBFB80B1EBF380B2A
:105680001EBF400B1EBFB80B1EBF500B1EBF580BDA
:105690001EBFB80B1EBF680B1EBF700B1EBFB80B22
:1056A0001EBFB80B1EBF880B1EBFB80B1EBFB80BAA
:1056B0001EBFA00B1EBFA80B1EBFB00B1EBFB80B9A
:1056C00031082110211821202128213021382140A2
:1056D00021482150215821602168217021782180A2
:1056E00021882190219821A021A821B021B821C092
:1056F00021C821D021D821E021E821F021F825007E
:105700002508251025182520252825302538254051
:105710002548255025582560256825702578258041
:1057200025882590259825A025A825B025B825C031
:1057300025C825D025D825E025E825F025F829001D
:1057400029082910291829202928293029382940F1
:1057500029482950295829602968297029782980E1
:1057600029882990299829A029A829B029B829C0D1
:1057700029C829D029D829E029E829F029F82D00BD
:10578000032D08032D10032D18032D20032D2803AE
:105790002D30032D38032D40032D48032D50032DAC
:1057A00058032D60032D68032D70032D78032D8081
:1057B000032D88032D90032D98032DA0032DA803FE
:1057C0002DB0032DB8032DC0032DC8032DD0032DFC
:1057D000D8032DE0032DE8032DF0032DF8032D0051
:1057E000042D08042D10042D18042D20042D280448
:1057F0002D30042D38042D40042D48042D50042D47
:1058000058042D60042D68042D70042D78042D801B
:10581000042D88042D90042D98042DA0042DA80497
:105820002DB0042DB8042DC0042DC8042DD0042D96
:10583000D8042DE0042DE8042DF0042DF8042D00EB
:10584000052D08052D10052D18052D20052D2805E1
:105850002D30052D38052D40052D48052D50052DE1
:1058600058052D60052D68052D70052D78052D80B6
:10587000052D88052D90052D98052DA0052DA80531
:105880002DB0052DB8052DC0052DC8052DD0052D31
:10589000D8052DE0052DE8052DF0052DF8052D0086
:1058A000062D08062D10062D18062D20062D28067B
:1058B0002D30062D38062D40062D48062D50062D7C
:1058C00058062D60062D68062D70062D78062D8051
:1058D000062D88062D90062D98062DA0062DA806CB
:1058E0002DB0062DB8062DC0062DC8062DD0062DCC
:1058F000D8062DE0062DE8062DF0062DF8062D0021
:10590000072D08072D10072D18072D20072D280714
:105910002D30072D38072D40072D48072D50072D16
:1059200058072D60072D68072D70072D78072D80EB
:10593000072D88072D90072D98072DA0072DA80764
:105940002DB0072DB8072DC0072DC8072DD0072D66
:10595000D8072DE0072DE8072DF0072DF8072D00BB
:10596000082D08082D10082D18082D20082D2808AE
:105970002D30082D38082D40082D48082D50082DB1
:1059800058082D60082D68082D70082D78082D8086
:10599000082D88082D90082D98082DA0082DA808FE
:1059A0002DB0082DB8082DC0082DC8082DD0082D01
:1059B000D8082DE0082DE8082DF0082DF8082D0056
:1059C000092D08092D10092D18092D20092D280948
:1059D0002D30092D38092D40092D48092D50092D4C
:1059E00058092D60092D68092D70092D78092D8021
:1059F000092D88092D90092D98092DA0092DA80998
:105A00002DB0092DB8092DC0092DC8092DD0092D9B
:105A1000D8092DE0092DE8092DF0092DF8092D00F0
:105A20000A2D080A2D100A2D180A2D200A2D280AE1
:105A30002D300A2D380A2D400A2D480A2D500A2DE6
:105A4000580A2D600A2D680A2D700A2D780A2D80BB
:105A50000A2D880A2D900A2D980A2DA00A2DA80A31
:105A60002DB00A2DB80A2DC00A2DC80A2DD00A2D36
:105A7000D80A2DE00A2DE80A2DF00A2DF80A2D008B
:105A80000B2D080B2D100B2D180B2D200B2D280B7B
:105A90002D300B2D380B2D400B2D480B2D500B2D81
:105AA000580B2D600B2D680B2D700B2D780B2D8056
:105AB0000B2D880B2D900B2D980B2DA00B2DA80BCB
:085AC0002DB00B2D7017000042
:040000050800029954
:00000001FF
